:100000000C9424050C94001C0C946B050C946B054B
:100010000C946B050C946B050C946B050C946B05A0
:100020000C946B050C946B050C94BD2F0C948F30C5
:100030000C94372A0C946B050C946B050C946B058F
:100040000C946B050C946B050C946B050C946B0570
:100050000C946B050C94842A0C946B050C946B0522
:100060000C946B050C946B050C946B050C946B0550
:100070000C946B050C946B050C946B050C946B0540
:100080000C946B050C946B050C946B050C946B0530
:100090000C946B050C946B050C946B050C946B0520
:1000A0000C946B050C946B050C946B0587158A15E5
:1000B0008F1596159B15A015A515AA15AF15B41586
:1000C000B915BE15C015C315C615C915CC15CF1564
:1000D000D115D6150F200F20412041208E20C2219E
:1000E000C221C221AC20412152215221B221C22180
:1000F000C221BB215E225E22702270226722702202
:10010000702270225E225E226C22702270226C228B
:10011000FC3023311B3223311B326F3192311B32C1
:10012000E931F83129001E001F00200021002200C3
:100130002B0014001A00080015001700E10004004D
:100140001600070009000A00E0001D001B00060061
:100150001900050000000000E200E3000151350035
:100160002A00270026002500240023003100130068
:1001700012000C0018001C00340033000F000E00A9
:100180000D000B00E50038003700360010001100AC
:1001900000000000E30002512C00280001000000D4
:1001A000BC00AE00BB00AD002B002B0000002800FF
:1001B000E0000000E100E100E300E2002D022F0278
:1001C000E000E0004A004B004E004D00000000003F
:1001D000E200E300010001004C002E002D00BD00F4
:1001E000BE000000310030002F0052002B00000044
:1001F00028002E004F00510050003002E500E500BD
:100200001D00190006001B000000000001002B006B
:10021000280039003A003B003C003D003E003F0012
:100220002B002B00C75CC55CC95CCB5CE100E00027
:10023000C45CC25CC35C0000E000E000C85CC65C5B
:10024000CA5CCC5C00000000E200E3002B00290047
:1002500045004400430042004100400031003000AE
:100260002F005200A900A8002800E5004F0051000F
:100270005000AA00E500E5004D004E004B004A008A
:10028000000000000100010001000000444542554B
:10029000473A2064697361626C65642E0A004445C4
:1002A0004255473A20656E61626C65642E0A000A09
:1002B0000025303862003A200025303258000A729A
:1002C0002F632030313233343536370A007267629B
:1002D0006C6967687420616E696D6174696F6E2006
:1002E0007469636B207265706F727420746F207311
:1002F0006C6176650A007267626C69676874207465
:10030000696D65722064697361626C652E0A0072A2
:1003100067626C696768742074696D657220656EC8
:1003200061626C65642E0A007267626C696768744A
:100330002073657420687376205B4E4F454550529C
:100340004F4D5D3A2025752C25752C25750A0072B8
:1003500067626C69676874207365742068737620BF
:100360005B454550524F4D5D3A2025752C25752C27
:1003700025750A007267626C69676874207261692A
:100380006E626F7720736574206873763A202564F7
:100390002C25642C25642C25750A007267626C6913
:1003A0006768742064697361626C65205B4E4F45B9
:1003B0004550524F4D5D3A207267626C69676874B0
:1003C0005F636F6E6669672E656E61626C65203D66
:1003D0002025750A007267626C6967687420646919
:1003E0007361626C65205B454550524F4D5D3A200C
:1003F0007267626C696768745F636F6E6669672EA7
:10040000656E61626C65203D2025750A0072676229
:100410006C6967687420656E61626C65205B454538
:1004200050524F4D5D3A207267626C696768745F25
:10043000636F6E6669672E656E61626C65203D2034
:1004400025750A007267626C6967687420746F674B
:10045000676C65205B454550524F4D5D3A20726791
:10046000626C696768745F636F6E6669672E656E3C
:1004700061626C65203D2025750A007267626C69B7
:10048000676874206D6F6465205B4E4F4545505220
:100490004F4D5D3A2025750A007267626C69676886
:1004A00074206D6F6465205B454550524F4D5D3A39
:1004B0002025750A007267626C696768745F696EEF
:1004C0006974207267626C696768745F636F6E66D7
:1004D00069672E6D6F6465203D20302E205772694C
:1004E00074652064656661756C742076616C7565F1
:1004F0007320746F20454550524F4D2E0A0072678D
:10050000626C696768745F696E6974206565636FA2
:100510006E666967206973206E6F7420656E616214
:100520006C65642E0A007267626C696768745F6943
:100530006E6974207374617274210A007267626C50
:10054000696768745F696E69742063616C6C656467
:100550002E0A007267626C696768745F636F6E660B
:1005600069672E7370656564203D2025640A0072FA
:1005700067626C696768745F636F6E6669672E7621
:10058000616C203D2025640A007267626C696768AF
:10059000745F636F6E6669672E736174203D2025FA
:1005A000640A007267626C696768745F636F6E6685
:1005B00069672E687565203D2025640A00726768AA
:1005C0006C696768745F636F6E6669672E6D6F64D0
:1005D00065203D2025640A007267626C6967687453
:1005E0005F636F6E6669672E656E61626C65203D44
:1005F0002025640A007267626C696768745F636FC4
:100600006E66696720454550524F4D3A0A003219CF
:100610000A00047F3F1F643214643214783C1E1EAB
:10062000140A052223252628292A2C2D2F3032337F
:100630003536383A3B3D3E4042434547494A4C4EA9
:100640005051535557595A5C5E6062646668696BD5
:100650006D6F71737577797B7D7F81838587898ADB
:100660008C8E90929496989A9C9E9FA1A3A5A7A8E1
:10067000AAACAEAFB1B3B4B6B8B9BBBCBEBFC1C211
:10068000C3C5C6C7C9CACBCCCDCED0D1D2D2D3D4A4
:10069000D5D6D7D7D8D9D9DADADBDBDBDCDCDCDCC2
:1006A000DCDDDDDDDDDCDCDCDCDCDBDBDBDADAD990
:1006B000D9D8D7D7D6D5D4D3D2D2D1D0CECDCCCB12
:1006C000CAC9C7C6C5C3C2C1BFBEBCBBB9B8B6B430
:1006D000B3B1AFAEACAAA8A7A5A3A19F9E9C9A98C0
:1006E000969492908E8C8A89878583817F7D7B7991
:1006F000777573716F6D6B6968666462605E5C5A72
:100700005957555351504E4C4A4947454342403E34
:100710003D3B3A3836353332302F2D2C2A292826C6
:10072000252322FFAA7F55406261636B6C6967686D
:100730007420737465703A2025750A006261636BDA
:100740006C696768742064697361626C650A006231
:1007500061636B6C6967687420656E61626C650AC1
:10076000006261636B6C6967687420746F67676CA3
:10077000653A2025750A006261636B6C696768746D
:100780002064656372656173653A2025750A0062AD
:1007900061636B6C6967687420696E63726561730D
:1007A000653A2025750A00000101010101010101DE
:1007B0000102020202020202020203030303030314
:1007C00003030404040404040405050505050606E2
:1007D00006060607070707070808080809090909A0
:1007E0000A0A0A0B0B0B0C0C0C0D0D0D0E0E0E0F46
:1007F0000F0F1010111111121213131414151516D6
:10080000161717181819191A1A1B1B1C1D1D1E1E46
:100810001F20202122222324242526262728292997
:100820002A2B2C2D2D2E2F303132323334353637C2
:1008300038393A3B3C3D3E3F4041424344454647C0
:1008400048494A4C4D4E4F50515354555658595A99
:100850005B5D5E5F616264656668696B6C6D6F703D
:1008600072737577787A7B7D7E8082838587888AAC
:100870008C8E8F91939596989A9C9EA0A2A3A5A7E3
:10088000A9ABADAFB1B3B5B7BABCBEC0C2C4C6C9DF
:10089000CBCDCFD1D4D6D8DBDDDFE2E4E7E9EBEE98
:1008A000F0F3F5F8FAFDFF0A002530325820006B0E
:1008B0006579626F6172645F7265706F72743A20FD
:1008C000000A0025303258006B6579626F617264EE
:1008D0005F7365745F6C65643A20005B735D004B09
:1008E0006579626F6172642073746172742E0A009C
:1008F0005B575D005B535D005B525D005B445D00D8
:100900005B435D0004033000000026034B006500DC
:100910006500620069006F002000490072006900F4
:10092000730020005200650076002E002000340085
:1009300000000E034B0065006500620069006F0057
:1009400000000403090409025B00030100A0FA0986
:1009500004000001030101000921110100012240EE
:10096000000705810308000A0904010001030000D3
:100970000009211101000122320007058203200035
:100980000A0904020002030000000921110100010C
:10099000222200070583032000010705030320002E
:1009A00001120110010000000810CB5642000401A2
:1009B0000203010631FF0974A1010975150026FF24
:1009C000009520750881020976150026FF00952004
:1009D00075089102C005010980A101850319012A4A
:1009E000B700150126B700950175108100C0050CF0
:1009F0000901A101850419012AA002150126A002FE
:100A0000950175108100C005010906A101050719AE
:100A1000E029E7150025019508750181029501750A
:100A20000881010507190029FF150026FF0095061A
:100A300075088100050819012905950575019102C0
:100A4000950175039101C00011241FBECFEFDAE0BC
:100A5000DEBFCDBF04B603FE27C080915403909142
:100A60005503A0915603B09157038730904BA74090
:100A7000B04BD1F4109254031092550310925603C8
:100A80001092570314BE84B7877F84BF0FB6F894C3
:100A9000A89580916000886180936000109260004A
:100AA0000FBEE0E0F8E3099511E0A0E0B1E0E6E96F
:100AB000F7E602C005900D92AA3FB107D9F723E0EF
:100AC000AAEFB1E001C01D92A435B207E1F70E9480
:100AD000F22C0C94C9330C940000FF93EF93E09137
:100AE000FA01F091FB01309709F00995EF91FF9120
:100AF0000895FC018591803011F0EFDFFBCF089560
:100B0000FF27E0E230E247FF0CC0419597FF09C0A4
:100B1000EDE26095709580959095611D711D811D28
:100B2000911D27FF02C0219530E350E2AA27660FEE
:100B3000771F881F991FAA1FA41710F0A41B639585
:100B40005A95A9F7AA3008F0A95FA05DAF93F39575
:100B5000611571058105910541F7ED3211F4EF93AF
:100B6000F395F21718F43F93F395FBCF8F91B5DF10
:100B7000FA95E1F70895E991F9918591803021F096
:100B8000853219F0AADFF9CF089520E0E894559155
:100B90005532C1F3503311F4689455915A3348F4E7
:100BA000505390F3220F022E220F220F200D250FFB
:100BB000F4CF0EF4219589919991533619F3533757
:100BC00029F1533559F1BC0188279927E8945C36FF
:100BD00021F48991999168945591543639F446EFEE
:100BE0007EF077FF0DC08FEF9FEF0AC055374AE0C8
:100BF00039F0583540E121F0523642E009F00895CD
:100C0000FF93EF937DDFEF91FF91B7CFFF93EF93CA
:100C1000FC0181918030B9F360DFFBCFFF93EF934C
:100C200068DFF1CFDF93CF93CDB7DEB72596A3DF93
:100C3000CF91DF9108950E947A1683E00E942A17CF
:100C40000E9443134FEF6FEF80E00E94770F8BE01D
:100C50000E94401360E070E0CB010E941F290C94B9
:100C60002B2981E0089581E008950C9433060895BE
:100C70000C9437061F93CF93DF9300D000D01F92C0
:100C8000CDB7DEB749835A836B8330917C0289816B
:100C90009A81311114C0662359F0222349F00E9431
:100CA0009C27182F682F89819A810E94432703C0AF
:100CB0000E946F27182F69817A81812F04C00E94BA
:100CC0009C2769817A810F900F900F900F900F9061
:100CD000DF91CF911F910C941707FC01262F4081C3
:100CE00051816281738184810C943A06CF93DF93A2
:100CF000EC0160E00E946D06BE01DF91CF910C9483
:100D000038060E94E528811102C00E9487290E94AE
:100D1000C7170C9472090C946E0908950C948D06F3
:100D200081E008950C949006CF93C82F0E948E0600
:100D30008C2F0E949206CF91089508950E944C2214
:100D40000E949D062FEF84E39CE02150804090405C
:100D5000E1F700C000000C94AA2A0F931F93CF93D1
:100D6000DF93EC0161E00E946D068C01BE010E94E0
:100D70003506882309F450C0BE01C8010E9430170F
:100D8000882309F449C0BE01C8010E94A219882322
:100D900009F442C0BE01C8010E94F4198823E1F1A0
:100DA000BE01C8010E941F1B8823B1F1BE01C8010A
:100DB0000E947115882381F18A81882331F10130E5
:100DC0008CE5180751F00E3D8CE51807D9F0011598
:100DD0001C45D9F40E949E061FC08091F202C82FC4
:100DE000C095C170C0FB80F98093F202CC2329F03A
:100DF0008EE992E00E9479050FC08CE892E00E9493
:100E000079050BC00E94872907C0CE01DF91CF91E1
:100E10001F910F910C943106C0E08C2FDF91CF9180
:100E20001F910F91089580E090E0089508952CE3BC
:100E3000829FC0011124FC0126E0729FE00DF11D8C
:100E40001124E60FF11DEE0FFF1FEC5DFE4F8591A3
:100E500094910895880F991FFC01E155FD4F8591EC
:100E600094910895CF93DF930E9417070E9444083E
:100E7000EC018115904508F043C0C11580E4D80706
:100E800008F0CBC0C03ED10528F5C03CD10508F024
:100E9000B3C0C83AD10578F4C53AD10508F0A4C06A
:100EA000C130D10509F4ECC008F4E8C0C430D10564
:100EB00008F0E6C0E3C0CF3BD10508F0DFC0C85A58
:100EC000D0E0CC0FDD1FC35BDE4F0990D881C02D71
:100ED000D464D6C0C11590E2D90750F4C11521E001
:100EE000D20708F0CDC0C83ED10508F4C9C0C6C0BD
:100EF000C11580E3D80708F086C0CE019F707FC07F
:100F0000C11595E5D90708F043C0C11524E5D207FE
:100F100008F09AC0C11582E5D80708F5C11591E51A
:100F2000D90708F07DC0CE0174E0969587957A9533
:100F3000E1F783709C2F937021E030E002C0220F14
:100F4000331F9A95E2F73C68382BCF70C695C6954B
:100F500080E2C89FE0011124C22BD32B91C09E01D7
:100F6000237033278C2F86958695C115D34508F0BD
:100F70005CC0C1E0D0E002C0CC0FDD1F2A95E2F7D3
:100F800020E2829FC0011124C82BD92BDC6878C0D5
:100F9000C11529E5D207A0F4C11588E5D80708F0E6
:100FA00058C0C11596E5D90708F068C08C2F0E947B
:100FB000D8088F71C82FD0E0DC2FCC27D06260C05A
:100FC000C1152AE5D20708F449C0CE019056811513
:100FD000904208F053C08D2F8F710E94D808DD27F2
:100FE000D0628F71D82B4CC0C55AD0E0C558DE4FA7
:100FF000C881D0E0D06444C0CE01805C91090E94D9
:101000002A07EC013DC0CE019927D3FF03C0EC01B4
:10101000D86C36C0EC01D06C33C0DF70D06A30C001
:10102000DC2FCC27C16FD06A2BC0C1E0D0E002C05A
:10103000CC0FDD1F2A95E2F720E2829FC001112428
:10104000C82BD92BDA681CC0DC2FCC27C46FD06A20
:1010500017C0DC2FCC27C06FD06A12C08C2F8F70C6
:101060000E94D80894E0D695C7959A95E1F7CF707D
:10107000D0E0DC2FCC27D069C82B02C0C0E0D0E084
:10108000CE01DF91CF9108958238910569F1B0F4D6
:101090008133910509F46DC048F48932910509F452
:1010A00063C08A32910509F469C0089585339105BA
:1010B00009F455C089339105B9F00895833E91052F
:1010C00069F138F4803E9105B1F0823E910509F155
:1010D0000895863E9105A9F1873E9105B9F1843EB8
:1010E000910509F064C023C02091450320FD4FC045
:1010F00021FD4DC008958091450380FD44C080913D
:10110000460380FF44C08091450384FD42C083EEC6
:101110004DC08091450382FF38C0F5CF80914503D3
:1011200082FD33C08091460380FD31C0ECCF8091B9
:10113000460381FF32C08091450384FD2AC087EEBB
:1011400035C08091450383FF26C0F5CF80914503CC
:1011500083FD21C08091460381FD1FC0ECCF8091AB
:10116000450385FD1CC01DC08091450385FD19C048
:1011700016C08091450386FD16C017C080914503B7
:1011800086FD13C010C089E311C082EE0FC080EE4F
:101190000DC080E00BC086EE09C084EE07C089E276
:1011A00005C085E303C08AE201C081E390E00895B1
:1011B0009091450392FF0DC0282F2871283019F413
:1011C000877F846006C0282F2471243011F48B7F20
:1011D000886093FF0DC0282F2871283119F4877E6D
:1011E000846106C0282F2471243111F48B7E88611C
:1011F0002091460320FF0DC0382F3871383019F484
:10120000877F816006C0382F3171313011F48E7FB5
:10121000886021FF0DC0282F2871283119F4877E9E
:10122000816106C0282F2171213111F48E7E8861E1
:1012300094FD877E0895E82FF0E0E55FFC4F808104
:101240000895CF92DF92EF92FF920F931F93CF9367
:10125000DF938EEB92E00E9479058BE0E82E83E02D
:10126000F82EC0E0D0E099EBC92E92E0D92E01EB28
:1012700012E0DF93CF93DF92CF920E94120686EBAB
:1012800092E00E947905F70181917F010E94D328A5
:101290001F928F931F930F930E9412068FEA92E082
:1012A0000E94790521968DB79EB708960FB6F894DF
:1012B0009EBF0FBE8DBFCA30D105D9F6DF91CF9149
:1012C0001F910F91FF90EF90DF90CF90089580EAEB
:1012D0008A95F1F7089508950C946B090C946C09A4
:1012E0000C946B090C94700908950F931F93CF937E
:1012F000DF93CDB7DEB760970FB6F894DEBF0FBEB1
:10130000CDBF0E94450B8091140181112DC0FE01BB
:1013100031968AE0DF011D928A95E9F781E389839E
:1013200082E38A8382E98B8381EF8C8384EF8D83D0
:10133000AAE0B1E0CE010B9621912D938E179F0765
:10134000D9F726E0E7E4F1E0DE011B9601900D926B
:101350002A95E1F7FC01A4E0B1E0CE01419621918C
:101360002D938E179F07D9F780911401811102C028
:1013700095E001C090E09093160385E0891B80936F
:101380001503AAE0B1E04FE051E061E070E08D911B
:10139000E82FE295EF70F0E021A18F708B0102C081
:1013A000000F111F8A95E2F7C801902F90959223A4
:1013B00091A392A1892B82A34A175B0741F7A4E06E
:1013C000B1E04AE051E061E070E08D91E82FE295F4
:1013D000EF70F0E021A18F708B0102C0000F111F90
:1013E0008A95E2F7C801902F9095922391A392A13C
:1013F000892B82A34A175B0741F7E1E0F3E0ABE0FA
:10140000B3E08BE093E011921D928E179F07D9F7FE
:1014100085E00E94EA0A0E94810660960FB6F89461
:10142000DEBF0FBECDBFDF91CF911F910F910C9406
:10143000590B0E94280B882309F18091150390E035
:10144000855F9C4F0E94890B811114C08091FC0123
:101450008F5F8093FC01863078F0E0911503F0E017
:10146000E55FFC4F80E090E0119201968530910598
:10147000D9F702C01092FC010C948B0680911603E0
:1014800090E0855F9C4F0E94B60B0C947409BF924C
:10149000CF92DF92EF92FF920F931F93CF93DF9340
:1014A000CAE0D1E081E0C82E83E0D82E9FE0E92E8B
:1014B00091E0F92EB12C01E010E08881E82FE2954F
:1014C000EF70F0E021A18F70A80102C0440F551FFA
:1014D0008A95E2F7CA01822B81A38881E82FE295E1
:1014E000EF70F0E092A18F70980101C0220F8A95F1
:1014F000EAF7822F8095892382A30E946709E4E09E
:10150000F1E040E050E020E03191A32FA295AF70D0
:10151000B0E090968C9190E03F7002C095958795D1
:101520003A95E2F780FD07C0802F042E01C0880F96
:101530000A94EAF701C080E0282B4F5F5F4F4630E6
:10154000510511F78881E82FE295EF70F0E091A145
:101550008F70A80101C0440F8A95EAF7842F809507
:10156000892381A38991E82FE295EF70F0E032A101
:101570008F70A80102C0440F551F8A95E2F7CA0177
:10158000832B82A3F6018081281719F0208381E044
:1015900001C080E0B82AFFEFCF1ADF0AEC16FD0683
:1015A00009F08BCF6091160370E0655F7C4F2B2DA7
:1015B00045E081E093E00E94EB0A0E94190A8B2D1E
:1015C000DF91CF911F910F91FF90EF90DF90CF901F
:1015D000BF9008950895FF920F931F93CF93DF93C9
:1015E0008C01F62ED72FC42F222349F081E080935F
:1015F000FF010E94692A9093FE018093FD01809172
:10160000FF018823C1F08091FD019091FE010E94AD
:10161000752A069780F0EF2DFD2FD8014C2F50E052
:10162000CD01801B910B841795071CF48D9181933C
:10163000F7CF1092FF01DF91CF911F910F91FF9093
:10164000089555985D9889B185FB882780F908959C
:1016500080910002811112C08091D8008061809336
:10166000D8008AE18A95F1F700C08091D90080FD09
:1016700002C082E001C081E08093000281E090918D
:101680000002913009F080E008950E94210B8093C0
:1016900014018091140166E0882311F080E001C0FC
:1016A00086E00E94680C0E94280B81110C94600B4C
:1016B00008950E94280B811102C00C94660B0895B6
:1016C00062E070E085E191E00C94AE1B62E070E0B6
:1016D00085E191E00C94B71B0E946C12882361F0A5
:1016E0008AE092E00E94721281E090E00E94901CD9
:1016F000892B11F40C946F1208958091090288309F
:1017000039F460E08AE092E00E94411410920902EC
:101710000895CF93DF93D82FC92F0E946C0B80E0E0
:1017200090E00E94901C892BE9F4ED2FFC2F80E0C3
:1017300090E0DC01AD5FBD4F2C9121930196853087
:101740009105B9F70E94E015882319F00E94E4156D
:1017500001C080E08093020288E092E00E94D718E6
:1017600081E001C080E0DF91CF910895CF93DF93B6
:10177000D82FC92F0E947D0BED2FFC2F80E090E029
:101780002191DC01AD5FBD4F2C9301968530910511
:10179000B9F7809102020E94651788E092E0DF911C
:1017A000CF910C94CE18EF92FF920F931F93CF938B
:1017B000DF938B01682F11110AC0442329F0E82F11
:1017C000F0E0E955F84F6491762F862F75C0212FF0
:1017D00030E0E82FF0E0442321F0E955F84FE491A0
:1017E000F0E046E0049FC0011124CFEFD0E0BE013D
:1017F0000E9478324BEA4603C001479F900D1124A6
:10180000800F911D800F911D982F990F890FAE01A8
:10181000421B530B4E9FD0014F9FB00D5E9FB00DEA
:1018200011249B2F189FA0011124452F55278E01AD
:10183000041B150B0E9FA0010F9F500D1E9F500DF6
:1018400011247E01E81AF108E29E8001E39E100D4A
:10185000F29E100D1124212F3327C21BD30BCE9FD4
:101860009001CF9F300DDE9F300D11246230710545
:10187000A9F048F46115710569F061307105C9F48A
:101880008B2F752F0DC06430710581F058F06630D4
:10189000710579F47E2F8B2F932F0DC0832F7B2F13
:1018A0009E2F09C08E2F7B2F952F05C08E2F732F53
:1018B00002C07E2F852F692FDF91CF911F910F914D
:1018C000FF90EF90089541E00E94D30B0895089592
:1018D000E8E2F1E0808361830895CF93DF93762F70
:1018E000E901682F842F0E94630C798368838A83BF
:1018F000DF91CF91089580911703282F269530E02E
:101900002115310519F48170826005C02B32310533
:1019100024F08170846580931703089588E090E037
:101920000C946A33CF92DF92EF92FF926B017C01AD
:101930000E947B0CB701A60188E090E0FF90EF9039
:10194000DF90CF900C948833E7E1F3E083E080836D
:1019500011828FEF828383831482ABE5B2E012960B
:101960008C911297836012968C9360817181828131
:1019700093810C94920C8091F20280FF08C085EF55
:1019800095E09F938F930E9412060F900F90809185
:10199000F20280FF0FC08091170381701F928F9316
:1019A00088ED95E09F938F930E9412060F900F9001
:1019B0000F900F908091F20280FF0FC0809117036B
:1019C00086951F928F938DEB95E09F938F930E9446
:1019D00012060F900F900F900F908091F20280FFEF
:1019E0000EC0809118031F928F9383EA95E09F9316
:1019F0008F930E9412060F900F900F900F9080917E
:101A0000F20280FF0EC0809119031F928F9389E824
:101A100095E09F938F930E9412060F900F900F9066
:101A20000F908091F20280FF0EC080911A031F92E6
:101A30008F938FE695E09F938F930E9412060F90ED
:101A40000F900F900F908091F20280FF0EC0809156
:101A50001B031F928F9383E595E09F938F930E94C2
:101A600012060F900F900F900F900895809117031A
:101A700080FF02C08695089580E0089590911B0331
:101A8000933018F49F5F90931B03882351F060916B
:101A90001703709118038091190390911A030C9405
:101AA000920C089581E00C943E0D90911B039923B4
:101AB00019F0915090931B03882351F06091170304
:101AC000709118038091190390911A030C94920C51
:101AD000089581E00C94550D70E00C94D717609137
:101AE00029018091170380FF0AC08091280123E01B
:101AF000829FC0011124845E9C4F0C946C0D8091D8
:101B00002A0190912B01891780F7E82FF0E09F01BF
:101B1000220F331FE20FF31FE45EFC4F118210828D
:101B200012828F5FF0CF9091170390FF16C09091B3
:101B30002A0120912B01921770F4E92FF0E0DF01C8
:101B4000AA0FBB1FEA0FFB1FE45EFC4F818360837B
:101B500042839F5FF0CF0C946F0D0895CF93DF9376
:101B600000D01F92CDB7DEB79091170390FF0AC047
:101B70009E012F5F3F4F0E946D0C4B8169818A81CE
:101B80000E94930D0F900F900F90DF91CF910895C9
:101B9000CF93DF93EC01EC81F0E0ED5DF94F4491E0
:101BA000E7E1F3E0628181810E94AE0D8C818F5F5D
:101BB0008C83DF91CF910895CF93DF93EC01E7E120
:101BC000F3E0438162818C810E94AE0D8C818F5F36
:101BD0008C83DF91CF9108950F931F93CF93DF9361
:101BE00000D01F92CDB7DEB78C0180911202811117
:101BF0000AC09E012F5F3F4F4FEF6FEF0E946D0CA9
:101C00008A8180931202F8018481813051F028F09A
:101C1000823061F4409112020AC08091120240E0C9
:101C200007C06091120240E080E003C040E080E025
:101C300060E00E94930DF801848190E0019663E0DA
:101C400070E00E948C3284830F900F900F90DF9190
:101C5000CF911F910F9108954F925F926F927F9253
:101C60008F929F92AF92BF92CF92DF92EF92FF92AC
:101C70000F931F93CF93DF9300D01F92CDB7DEB7A2
:101C8000F82ED62EE42E622E9091170390FFC5C039
:101C9000E92FE695AE2FB0E0A258BE4F8C9180930D
:101CA0005B029E7F923061F49E012F5F3F4F8F2D2C
:101CB0000E946D0C4B8169818A810E94930D62C0E4
:101CC000823019F4E0901A035DC0863019F4F09068
:101CD000180358C08930D9F3893109F053C0E9514C
:101CE0008E2F8170782E81E0C72CC826E695F0E013
:101CF000ED5DF84FA590B490412CBB2494E7892E5C
:101D000093E0992E60912C014616D0F5042D10E039
:101D10000A9DC0010B9D900D1A9D900D112470E03D
:101D20000E9478325F2C711002C0560E01C0561A04
:101D30008091F20280FF11C0BF92AF921F92CF92AA
:101D40001F925F921F924F929F928F920E94120653
:101D50000FB6F894DEBF0FBECDBF80912A01080FE9
:101D6000111D9801220F331F020F131F9801245ECB
:101D70003C4F4E2D6D2D852D0E946D0C4394C2CF8E
:101D80000E946F0D80911803F81208C0809119030A
:101D9000D81204C080911A03E81629F080915D02E0
:101DA000826080935D02F0921803D0921903E09252
:101DB0001A036620E9F0609117037091180380916F
:101DC000190390911A030E94920C8091F20280FFF5
:101DD00024C080911A031F928F93809119031F9240
:101DE0008F93809118031F928F938FE493E00CC020
:101DF0008091F20280FF11C01F92EF921F92DF923A
:101E00001F92FF9288E293E09F938F930E941206A5
:101E10000FB6F894DEBF0FBECDBF0F900F900F909E
:101E2000DF91CF911F910F91FF90EF90DF90CF90B6
:101E3000BF90AF909F908F907F906F905F904F90EA
:101E40000895E7E1F3E09181282F4381628188E0E2
:101E5000890F0C942C0E81E00C94210FE7E1F3E044
:101E60009181282F4381628188EF890F0C942C0E79
:101E700081E00C942E0FE7E1F3E0628121E1620F33
:101E800008F46FEF282F438181810C942C0E81E0A0
:101E90000C943B0FE7E1F3E0628121E1621B08F45F
:101EA00060E0282F438181810C942C0E81E00C94FA
:101EB0004A0FE7E1F3E0438121E1420F08F44FEFDD
:101EC000282F628181810C942C0E81E00C94590F93
:101ED000E7E1F3E0438121E1421B08F440E0282FD1
:101EE000628181810C942C0E81E00C94680F21E0BA
:101EF0000C942C0E20E00C942C0EFF920F931F9349
:101F0000CF93DF93EC01F12C0FEF10E060912C01E7
:101F1000F616F0F480912A012F2D30E0280F311DA4
:101F2000C901880F991F280F391F245E3C4F70E0AC
:101F3000C8010E948C32962F8C8140911A036091C7
:101F40001903F99E800D11240E946D0CF394DECFCD
:101F50000E946F0D9A818C8190FF02C08F5F01C03B
:101F600081508C83DF91CF911F910F91FF90089545
:101F70008F929F92AF92BF92CF92DF92EF92FF9299
:101F80000F931F93CF93DF93EC018A8180FF03C0EF
:101F9000BB24BA9402C0BB24B3948C8181110DC0C0
:101FA00081E0B81206C080912C0181508093140208
:101FB00002C01092140281E08C83A12C4CE0942E7C
:101FC00080912C01A81608F044C080912A01CA2CE7
:101FD000D12C8601080F111DC801880F991F080F09
:101FE000191F045E1C4FF80111821082128234E026
:101FF000E32EF12C812C80911402880D8D302CF071
:10200000692D0E946A32892F05C087FF03C0909115
:102010002C01890F082E000C990BC816D90691F4D3
:1020200080911A038E9DA0018F9D500D112455950E
:10203000479555954795980160911903809118032C
:102040000E946D0C8B0CF1E0EF1AF108A1F6A3943D
:10205000B7CF0E946F0D8091140291E0B9120EC0AB
:10206000811107C080912C018150809314021C8241
:102070000FC0815080931402BC820AC090E0019688
:1020800060912C0170E00E948C32809314028C834A
:10209000DF91CF911F910F91FF90EF90DF90CF9044
:1020A000BF90AF909F908F9008951F93CF93DF9331
:1020B000EC018C81811109C081E08C8310921302A4
:1020C00092E0909327018093260180912A019091BC
:1020D0002B01891770F4E82FF0E09F01220F331FC6
:1020E000E20FF31FE45EFC4F1182108212828F5FB9
:1020F000F0CF10E060912C011617C0F5E12FF0E051
:1021000070E0CF010E948C3220912A01820F209131
:102110001302022E000C330B90E0E217F307CCF011
:1021200020912701022E000C330B2E173F078CF055
:102130009C01220F331F820F931F9C01245E3C4F92
:1021400040911A0360911903809118030E946D0C4D
:102150000BC0FC01EE0FFF1F8E0F9F1FFC01E45E02
:10216000FC4F1182108212821F5FC4CF0E946F0D3C
:102170008091260120911302280F20931302909141
:102180002701980F9093270119165CF4022E000C7A
:10219000330B40912C0150E0415051092417350771
:1021A00034F0819580932601813009F41C82DF91FF
:1021B000CF911F9108958F929F92AF92BF92CF922D
:1021C000DF92EF92FF920F931F93CF93DF938C01D7
:1021D000FC014481C42FD0E09E01DE010E94D03278
:1021E0009B01AC010E94E6326B017C01E0E2F0E071
:1021F000EC1BFD0BA5E5B0E09B01AC010E94E632B3
:102200004B015C019F01DF010E94C8329B01AC01C0
:102210000E94F1329B01AC012C0D3D1D4E1D5F1D36
:10222000C501B4010E94A032C22FD22F2A3228F455
:10223000F3E02F9F900111240DC025E530E02C1B09
:102240003109C901880F991F280F391F37FF02C0B4
:102250002F5F3F4F35952795C22FC095F12C85E50F
:10226000E82EED1A80912C01F816C8F4F1FC02C09A
:102270008E2D01C08D2F90912A012F2D30E0290F36
:10228000311DA901440F551F240F351F245E3C4FFB
:102290004C2F609119030E946D0CF394E3CF0E94C0
:1022A0006F0DF8018481811102C091E003C080327A
:1022B00019F49FEF9093250190912501890FF80162
:1022C0008483DF91CF911F910F91FF90EF90DF906A
:1022D000CF90BF90AF909F908F9008950F931F93D2
:1022E000CF93DF93EC0100E010E080912C01282FC8
:1022F00030E00217130724F590912A019801290F65
:10230000311DA901440F551F240F351F245E3C4F7A
:10231000869590E04C81081719071CF4442331F08E
:1023200002C0411103C040911A0301C040E0609116
:102330001903809118030E946D0C0F5F1F4FD5CFBA
:102340000E946F0D8C8190E00196817099278C839B
:10235000DF91CF911F910F9108958F929F92AF922D
:10236000BF92CF92DF92EF92FF920F931F93CF9382
:10237000DF93FC01B280948081E0848300E015E06B
:102380005BE4A52E88248394EE24EA94F12C7BE46C
:10239000C72ED12C80912C01081708F08FC0C02FB8
:1023A000D0E01C9FF0011D9FF00D1124E85EFD4F51
:1023B000911003C01382128267C02381222389F106
:1023C000215023833481332319F09A2D921B01C0AD
:1023D000922F80911A031C9FF0011D9FF00D112474
:1023E000E85EFD4F899FC0011124B6010E9478323A
:1023F0006283211104C0332311F01482A38222E0EE
:102400002B1508F441C01C9FF0011D9FF00D1124F5
:10241000E85EFD4F809118038083809119038183CA
:1024200033C00E9445338230914074F582E08B15B1
:1024300030F40E944533B7010E948C3202C0809173
:1024400018031C9FF0011D9FF00D1124E85EFD4F45
:10245000808322E02B1558F40E9445332091190304
:102460002695622F70E00E948C32820F02C080910C
:1024700019031C9FF0011D9FF00D1124E85EFD4F14
:1024800081831282A382848280912A019E01280F77
:10249000311DC901880F991F280F391F245E3C4F39
:1024A0001C9FF0011D9FF00D1124E85EFD4F42813D
:1024B000618180810E946D0C0F5F6CCFDF91CF91A5
:1024C0001F910F91FF90EF90DF90CF90BF90AF9052
:1024D0009F908F900C946F0D80915D0208951092E3
:1024E0005D02089525E0E7E1F3E0DC0101900D9243
:1024F0002A95E1F720915B0230915C0240915D02E8
:10250000FC012583368347830895EBE5F2E01182D1
:10251000828184608283089560911703669570E0DC
:102520004BE050E08DE291E00E945533892B19F485
:1025300081E080935C020E94692A90935502809307
:10254000540280915D02846080935D028091F2026A
:1025500080FF08C08FE093E09F938F930E94120644
:102560000F900F90089510925C0280915D0284603C
:1025700080935D028091F20280FF08C086EF92E0B6
:102580009F938F930E9412060F900F900895909141
:10259000170390FF59C09170811102C0926006C06C
:1025A0008B3210F0946502C0880F982B909317031C
:1025B00080915D02816080935D026623B1F060913D
:1025C0001703709118038091190390911A030E94C8
:1025D000920C8091F20280FF1BC0809117038695B8
:1025E0001F928F9389E994E00BC08091F20280FFE3
:1025F0000FC08091170386951F928F938BE794E00D
:102600009F938F930E9412060F900F900F900F9040
:1026100060911703669570E04BE050E08DE291E029
:102620000E945533892B19F00E94B31202C00E94F8
:102630008C1281E08093570240911A036091190334
:10264000809118030C947A0F0895682F90911703C6
:10265000969581E0890F8B3208F081E00C94C712C7
:1026600081E00C942513682F9091170396958FEFB6
:10267000890F09F48AE20C94C71281E00C94331399
:1026800061E00C94C7128091170381608093170357
:102690008091F20280FF0DC01F9281E08F938DE048
:1026A00094E09F938F930E9412060F900F900F90CB
:1026B0000F908091170386950C94401360E00C9462
:1026C000C71280915A02811165C08091F20280FF89
:1026D00008C08CE395E09F938F930E9412060F90A1
:1026E0000F908091F20280FF08C086E295E09F93F0
:1026F0008F930E9412060F900F900E94E52881117F
:1027000010C08091F20280FF08C08EEF94E09F938A
:102710008F930E9412060F900F900E9487290E94AB
:10272000A40C0E948E0C609317037093180380937F
:10273000190390931A0380915D02836080935D0278
:102740006E7FC1F48091F20280FF08C085EB94E0B7
:102750009F938F930E9412060F900F900E94A40CDB
:102760000E948E0C609317037093180380931903D3
:1027700090931A030E947B0C0E94BB0C0E9485124E
:102780008091170380FF03C086950E945E1381E04D
:1027900080935A020895809117038E7F80931703C8
:1027A00060911703709118038091190390911A0397
:1027B0000E94920C8091F20280FF0FC0809117035B
:1027C00081701F928F9385ED93E09F938F930E946A
:1027D00012060F900F900F900F900E94B3128091ED
:1027E0005D02816080935D022FEF80E792E02150CF
:1027F00080409040E1F700C000000C946F0D809184
:10280000F20280FF10C080911703809581701F92A3
:102810008F9384E494E09F938F930E9412060F900D
:102820000F900F900F908091170380FD0C94CB13A5
:102830000C944313809117038E7F8093170380912C
:10284000F20280FF0CC01F921F928BE993E09F93CE
:102850008F930E9412060F900F900F900F900E947E
:10286000B31280915D02816080935D022FEF80E75B
:1028700092E0215080409040E1F700C000000C94AD
:102880006F0D1F93CF93DF93EC01162F8F8180FF85
:102890000FC0888180FF0AC08091170381608093F8
:1028A0001703888186950E94C71202C00E941A14DD
:1028B0008F8181FF06C0212F4B816A8189810E940F
:1028C0002C0E8F8182FF08C08E81882319F00E9410
:1028D0008C1202C00E94B3128F8183FF03C081E07B
:1028E00080935702DF91CF911F910895EF92FF924D
:1028F0000F931F93CF93DF9380915C02882309F499
:10290000CEC080915B02E0911703E695E81BE0934F
:102910005602823049F4F0E0E15EF94FE491CE2FA7
:10292000D0E008EC1DE059C0863049F4F0E0E45EE8
:10293000F94FE491CE2FD0E00CED1DE04EC0893070
:1029400051F4E695F0E0E75EF94FE491CE2FD0E048
:102950000DE71FE042C08F3051F4E695F0E0EA5EEB
:10296000F94FE491CE2FD0E008EB1FE036C085315F
:1029700049F4F0E0ED5EF94FE491CE2FD0E005E5AB
:1029800010E12BC08831D9F0833239F4E1E1F6E06F
:10299000C591D4910CEE1DE020C08432A9F085329F
:1029A000C1F48E2F63E00E945E32E92FF0E0E25F17
:1029B000F94FE491CE2FD0E00DEA11E10EC0C8E24C
:1029C000D0E00BED10E109C0C4EFD1E00EE611E15B
:1029D00004C0C0EDD7E007E61CE0809157028823D1
:1029E00089F0109257020E94692A9E012095309525
:1029F000820F931F909355028093540210925902B4
:102A00001092580280915402909155020E94752AAA
:102A10008C179D0708F443C080911702882311F199
:102A20001092170280911502909116020E94752A49
:102A300080339547B8F00E94692A909316028093DC
:102A400015028091F20280FF08C08DEC92E09F9306
:102A50008F930E9412060F900F9080915D02886004
:102A600080935D02E0905802F0905902E091540288
:102A7000F0915502CE0FDF1FD0935502C093540240
:102A800084E592E0F80109958091580290915902ED
:102A9000892B29F4EF2819F081E080931702DF9148
:102AA000CF911F910F91FF90EF900895882311F01F
:102AB000FA0101C0FB010994CF93DF93C82FD62FF1
:102AC0000E94360D8C1740F00E94360D8D1720F4B1
:102AD000DF91CF910C9430138C2FDF91CF910C9418
:102AE00040131F93CF93DF93FB011281111163C039
:102AF000EC010E941D288272FE01E25CFC45E4317B
:102B0000F10508F057C0EA5AFF4F0C94C2320E94F8
:102B1000FF1351C04DE353E160E373E104C040E3B0
:102B200053E16DE373E10E94561545C048E35FE051
:102B30006BE27FE0F8CF4BE25FE068E37FE0F3CF4A
:102B400046E55FE067E47FE0EECF47E45FE066E5FF
:102B50007FE0E9CF44E75FE065E67FE0E4CF45E66C
:102B60005FE064E77FE0DFCF49E65DE062E57DE0BE
:102B7000DACF42E55DE069E67DE0D5CF81E017C0C0
:102B800065E082E010C068E086E00DC06EE089E09C
:102B90000AC064E18FE007C067E185E104C088E115
:102BA00006C062E289E10E945C1505C083E20E94D2
:102BB000401301C011E0812FDF91CF911F91089543
:102BC0008091400381700895809140038695869599
:102BD000869508950E94E528811102C00E948729E8
:102BE0000E94162980934003282F26952695269526
:102BF00030E02630310524F08770886280934003EE
:102C00008091400380FF04C086958695869501C01B
:102C100080E00C94651720914003822F869586955D
:102C20008695482F50E04530510554F48F5F982F1A
:102C3000990F990F990F822F8770892B80934003EA
:102C4000809140038160809340030E941A29809103
:102C5000F20280FF11C0809140038695869586958B
:102C60001F928F938FE897E09F938F930E94120695
:102C70000F900F900F900F9080914003869586954E
:102C800086950C94651780914003982F969596959C
:102C90009695A1F0915E990F990F990F8770892BE6
:102CA00080934003887F91E009F490E08091400395
:102CB00090FB80F9809340030E941A298091F202D0
:102CC00080FF11C0809140038695869586951F925E
:102CD0008F9387E797E09F938F930E9412060F9040
:102CE0000F900F900F908091400386958695869562
:102CF0000C9465178091400380FD1FC08160809314
:102D00004003813019F489E08093400380914003AF
:102D10000E941A298091F20280FF08C08FE497E098
:102D20009F938F930E9412060F900F908091400303
:102D30008695869586950C94651708958091400335
:102D400080FF14C08E7F809340030E941A298091D7
:102D5000F20280FF08C08CE397E09F938F930E945C
:102D600012060F900F9080E00C9465170895CF9392
:102D7000C0914003C1708091F20280FF0CC01F928D
:102D8000CF9381E697E09F938F930E9412060F9056
:102D90000F900F900F90CC2319F0CF910C949E16AA
:102DA000CF910C947A1690914003892F8695869541
:102DB00086958F5F8F719770863038F4880F880FF3
:102DC000880F892B8093400302C090934003809129
:102DD0004003887F91E009F490E08091400390FBEC
:102DE00080F9809340030E941A298091F20280FFAB
:102DF00011C0809140038695869586951F928F938A
:102E000088E297E09F938F930E9412060F900F9095
:102E10000F900F90809140038695869586950C942F
:102E20006517863008F085E0909140039770282F51
:102E3000220F220F220F922B90934003987F21E0C4
:102E400009F420E09091400320FB90F99093400317
:102E50000C9465170E941117809140030C941A2955
:102E60009C01FB018281882349F12D3BFCE53F0752
:102E7000C9F040F42B3BECE53E0769F02C3B3C45A8
:102E800061F008952F3B9CE5390791F070F0203CEC
:102E90003C4589F0089585E001C080E00E942A1732
:102EA00080E008950E944316FBCF0E940B16F8CFD6
:102EB0000E94B716F5CF0E94D316F2CF81E0089595
:102EC000259A2D9808952D980895CF92DF92EF922C
:102ED000FF92CF93C82F863050F4811109C08091A2
:102EE00080008F77809380000E94631706C0C5E042
:102EF000809180008068809380002C2F30E0AFEFBD
:102F0000BFEF0E94D03225E030E040E050E00E9468
:102F1000A032C9012C3764E1360728F469E070E07B
:102F20000E94783229C0DA01C9018A50974DAF4F0B
:102F3000BF4F6627782F892F9A2F25EF38E241E07F
:102F400050E00E94A03269017A01CA01B9010E94D1
:102F50004E329B01AC01C701B6010E944E32BB2725
:102F6000A92F982F872F009721E0A207B10511F014
:102F7000BC0102C06FEF7FEF7093890060938800FF
:102F8000CF91FF90EF90DF90CF90089508950E9429
:102F9000601782E88093800089E1809381008FEF41
:102FA0009FEF90938700809386000C94EA15569AC1
:102FB0002BB12F7B3BB130644FB7F894FC01CB01B0
:102FC000880F991F680F791F6E0F7F1FE617F7078D
:102FD00089F0819198E03BB9000000C087FF2BB9D0
:102FE000880F000000C000C000C02BB900C09A9537
:102FF00091F7ECCF4FBF8FE594E00197F1F700C058
:103000000000089508950C940218809114018823FB
:1030100009F447C020913901A22FA295AF70B0E00A
:1030200091963C9191972F7081E090E0AC01022E37
:1030300001C0440F0A94EAF7542F50953523919616
:103040003C93919792963C919297432B92964C93F6
:10305000929740913801E42FE295EF70F0E031A1B2
:103060004F70042E01C0880F0A94EAF7982F9095AC
:10307000932391A392A1892B82A390968C9190E0A7
:1030800002C0959587952A95E2F7817020A130E0DE
:1030900002C0359527954A95E2F720FD09C090E0DA
:1030A00008C087EF8093390186EF80933801B2CF53
:1030B00092E0892B809363029091140181E098271C
:1030C00090935F02891B80935E020895CF93E091F5
:1030D00063025E2F550F550F20913901E22FE295C3
:1030E000EF70F0E080A190E02F7002C09595879579
:1030F0002A95E2F78170992740913801E42FE295F3
:10310000EF70F0E020A130E04F7002C035952795B8
:103110004A95E2F7F901E170FF2720FF02C0E2E0E3
:10312000F0E0E82BF92BE52BE0936302C0915F02FE
:10313000EF70F0E0E755FE4F908180916202890FB9
:103140008093620284306CF0EC2F0C2E000CFF0B8D
:10315000E05AFD4F80818F5F808360E08C2F0E945A
:103160000318809162028D3F6CF4EC2F0C2E000C42
:10317000FF0BE05AFD4F80818150808361E08C2FEE
:103180000E94031880916202837887FF03C08150F8
:103190008C6F8F5F80936202CF910895E0915F0200
:1031A000F0E0E05AFD4F2081FC0120830895FF925A
:1031B0000F931F93CF93DF93D0915E020D2F10E0FA
:1031C000005A1D4FFC01C081F8018081C81BFC2EF4
:1031D0001F1454F4FA94F80180818F5F808360E0BB
:1031E0008D2F0E940318F4CF8C2FC7FD80E0C81BE1
:1031F000CC2351F0CF5FF80180818150808361E062
:103200008D2F0E940318F4CFDF91CF911F910F9162
:10321000FF900895AF92BF92CF92DF92EF92FF920C
:103220000F931F93CF93DF937C015B01C42FD22FA9
:10323000FC0182818823F9F0409366020E94692A8A
:10324000909365028093640280E28C0F883008F0CE
:103250006EC0C77081E001C0880FCA95EAF7DF91A0
:10326000CF911F910F91FF90EF90DF90CF90BF9083
:10327000AF900C94CB1F80916602481335C08091AB
:103280006402909165020E94752A6C01B701C50124
:103290000E940525C816D90638F510E21D0FCD1776
:1032A000B9F080E28C0F883040F4C77081E001C033
:1032B000880FCA95EAF70E94D21F183058F581E0AE
:1032C0009D2F977001C0880F9A95EAF70E94CB1F37
:1032D000802F0E94B81F183050F5D77081E001C0D0
:1032E000880FDA95EAF70AC080E28C0F8830F8F48C
:1032F000C77081E001C0880FCA95EAF7DF91CF91CE
:103300001F910F91FF90EF90DF90CF90BF90AF9003
:103310000C94D21F802FDF91CF911F910F91FF90BE
:10332000EF90DF90CF90BF90AF900C94B81FDF91DB
:10333000CF911F910F91FF90EF90DF90CF90BF90B2
:10334000AF9008950F939C01CB01233F4CE53407C8
:1033500031F188F4283DFCE53F07D9F0293D4CE5E3
:10336000340779F1273D3C45A9F506E221EE41EE0F
:1033700067ED7CE52BC0253FFCE53F07E1F0A8F0B9
:10338000263F3C4539F507E225EE46EE66EF7CE543
:103390001DC007E225EE45EE68ED7CE517C006E2AC
:1033A00021EE40EE63EF7CE511C007E225EE44EE2E
:1033B00064EF7CE50BC006E221EE42EE65EF7CE5B2
:1033C00005C008E221E045EE69ED7CE50E940A199E
:1033D00080E008C0FC018281882319F01092660207
:1033E00001C081E00F910895CF93DF93EC01FB01C1
:1033F0008281882309F41FC1C230FCE5DF0708F48D
:103400001BC1C6319CE5D90738F09E012A5F3C45B7
:103410002930310508F010C10E94F8289093460326
:1034200080934503C031ECE5DE0709F4C3C008F022
:1034300041C0C8308CE5D80709F49AC0F0F4C43014
:10344000ECE5DE0709F487C068F4C2308CE5D807E4
:1034500009F477C0C330DC4509F0E3C0809145032F
:10346000826076C0C630ECE5DE0709F46EC008F075
:103470007BC08091450388606BC0CC308CE5D80759
:1034800009F485C068F4CA30ECE5DE0709F474C0BD
:1034900008F079C00E944C2280914503806858C092
:1034A000CE308CE5D80709F476C008F07FC0809153
:1034B00045038BC0CB3FECE5DE0709F44FC018F5A0
:1034C000C3318CE5D80709F47DC078F4C131ECE54F
:1034D000DE0709F473C0C231DC4509F0A2C00E94C6
:1034E0004C22809145038F7733C0C5318CE5D807D6
:1034F00009F472C008F486C0CA3FDC4509F091C0E7
:10350000809146033EC0CF3FFCE5DF0709F45FC072
:1035100058F4CD3F9CE5D90709F444C008F43FC0F6
:103520008091460382602DC0C130FDE5DF0709F4BC
:1035300075C008F45DC0C230DD4509F072C080E09E
:103540006EC080914503816003C080914503806116
:103550008093450366C08091450311C08091460366
:103560008260809346035DC0809145038062F0CF06
:10357000809145038064ECCF80914503886084602E
:10358000E7CF8160EECF809145038E7FE1CF8091C0
:1035900045038D7FDDCF80914503877FD9CF809113
:1035A000460318C0809146038D7FDBCF8091450391
:1035B0008F7ECECF809145038F7DCACF809145030A
:1035C0008F7BC6CF80914503877F8B7FC1CF809152
:1035D00046038D7F8E7FC5CF8091450382FB2227D6
:1035E00020F991E0922790FB82F990FB83F9B0CF0C
:1035F00080914603982F909591708E7F892B90FB38
:1036000081F9AFCF0E944C228091450387FB22278E
:1036100020F991E0922790FB87F99ACF81E00E94F0
:10362000892980914503909146030E9409290E94AF
:103630004C2280E001C081E0DF91CF910895CF93CB
:10364000DF9386319C4541F5EB010E941D28982FA0
:103650008A8120913A0130913B01882379F09A7A4E
:1036600081E009F480E080936702911102C069E271
:1036700001C065E3C9010E94D0290AC08091670298
:10368000811102C069E201C065E3C9010E94D2292B
:103690000E946B2880E001C081E0DF91CF91089506
:1036A0008EE1489B02C08150E1F7489BFECF089510
:1036B000589880E28A95F1F7589A0895FC012AE01B
:1036C0002A95F1F790E020E080E031E0261779F0CC
:1036D00040E14A95F1F7880F489B02C0816093272B
:1036E00000C0000040E14A95F1F72F5FEFCF20E1E5
:1036F0002A95F1F729B100C0000030E13A95F1F7C1
:10370000217092272081920F90830895EF92FF926B
:103710000F931F93CF93DF931F92CDB7DEB719821C
:103720008C017C01E60EF11C0E151F0559F00E945C
:10373000501B68E0CE0101960E945E1BF801819348
:103740008F01F2CF81E09981911180E00F90DF919C
:10375000CF911F910F91FF90EF90089590936A027F
:103760008093690260936802509A589A08959093E2
:103770006A0280936902609368025098589AE89AA6
:10378000E9E6F0E080818C7F80830895615091E0CC
:1037900001C0990F6A95EAF720E031E0992361F0C2
:1037A000492F482319F0589A232701C0589840E21E
:1037B0004A95F1F79695F2CF222311F0589A01C05D
:1037C000589880E28A95F1F758980895FF920F93E0
:1037D0001F93CF93DF93EC018C01060F111DC017CF
:1037E000D10741F0F9900E94581B68E08F2D0E948C
:1037F000C61BF5CFDF91CF911F910F91FF900895D8
:103800001F920F920FB60F9211240F931F932F93B5
:103810003F934F935F936F937F938F939F93AF9358
:10382000BF93EF93FF93CF93DF931F92CDB7DEB794
:1038300019820E94501B67E0CE0101960E945E1B18
:10384000382F369536953695932F96959570232F6C
:103850002570920F292F2370969596958770920F59
:10386000891348C08981811145C0809168028317FE
:1038700008F440C080E18A95F1F7589A509AA2E086
:10388000AA95F1F700C00091690210916A02B8E0B0
:103890003B9F000D111D11245898F8016581662386
:1038A00021F0868197810E94E61B0E94581BF0E15F
:1038B000FA95F1F758985098589A80E18A95F1F75F
:1038C000D80112966C911297662369F013968D9128
:1038D0009C9114970E94861BD801ED91FC91811157
:1038E00005C082E004C0D801ED91FC9188E080839E
:1038F0000E94501B0F90DF91CF91FF91EF91BF91EC
:10390000AF919F918F917F916F915F914F913F9177
:103910002F911F910F910F900FBE0F901F90189530
:103920000F931F93CF93DF932091680230E0281705
:1039300039070CF471C09C0193E0220F331F9A9554
:10394000E1F7C0916902D0916A02C20FD31FF894C7
:10395000509A589845E04A95F1F70000982F9695AF
:1039600095708570890F982F937086958695890F2D
:103970008901082B0E94581B84E08A95F1F700C04A
:1039800067E0802F0E94C61B40E14A95F1F75098EE
:10399000589A489902C000C0FCCF87E090E0489B4D
:1039A0000EC0019751F4509A589AE881F98181E04C
:1039B0008083789481E090E031C000C0F0CF6D81C9
:1039C000662381F08E819F810E94861B81110AC02F
:1039D000509A589AE881F98182E08083789482E055
:1039E00090E01CC00E94501B80E28A95F1F7589825
:1039F000509A40E14A95F1F76A81662321F08B8164
:103A00009C810E94E61B0E94581BE881F98110826C
:103A1000789480E090E002C084E090E0DF91CF9164
:103A20001F910F9108959093700280936F020895F3
:103A3000E0916F02F0917002309721F00190F081D7
:103A4000E02D099480E00895EF92FF920F931F9369
:103A5000CF93DF93E0916F02F09170023097B1F154
:103A60008C010280F381E02D09958091F20282FFA2
:103A70002DC080FF04C08FEA98E00E947905E8011C
:103A800018E089EAE82E88E0F82E8091F20280FFA3
:103A90000BC088811F928F93FF92EF920E941206B3
:103AA0000F900F900F900F90115021961111EDCFA4
:103AB0008091F20280FF0AC087EA98E0DF91CF91FF
:103AC0001F910F91FF90EF900C947905DF91CF91AA
:103AD0001F910F91FF90EF90089520916D0230910A
:103AE0006E022817390771F090936E0280936D0271
:103AF000E0916F02F0917002309721F00680F7811B
:103B0000E02D0994089520916B0230916C022817E2
:103B1000390771F090936C0280936B02E0916F0211
:103B2000F0917002309721F00084F185E02D099426
:103B3000089585B7806885BF85B7806885BF08957B
:103B400008950C94A01D0C94A11D0C94A01D0C9420
:103B5000A01D0E94991D0E94A51D0C94A31D0C94EC
:103B6000280B0E94602A0E9475090E94CE2A0E949A
:103B7000EA150E9461130E9405180C94A71DCF93AB
:103B8000C82F8091F20282FF1EC080FF04C088EC23
:103B900098E00E9479058091F20280FF0CC01F928C
:103BA000CF9383EC98E09F938F930E9412060F901F
:103BB0000F900F900F908091F20280FF04C081EC73
:103BC00098E00E9479058C2FCF910C949406AF92C7
:103BD000BF92CF92DF92EF92FF920F931F93CF93FA
:103BE000DF93CDB7DEB72A970FB6F894DEBF0FBECE
:103BF000CDBF0E94470A0E94AF1D811111C08FEFF7
:103C000089838A831B820E94692A8160782F9D8321
:103C10008C8349815A816B818D810E94831E40C0B3
:103C200082E7A82E82E0B82E00E010E0C02E802FA0
:103C30000E941B09E82EF501D1905F01D82631F4CE
:103C40000F5F1F4F0A30110589F7D9CF8091F2021B
:103C500081FD0E94210980E0FF24F3949D2D9F2186
:103C6000D1F08E83CF82EF2081E009F480E0888755
:103C70000E94692A8160782F9A8789874E815F81A7
:103C800068858A850E94831EF801EE58FD4F808169
:103C9000F826F08205C08F5FFF0C8630F9F6D0CF92
:103CA0000E9476140E94C6170E9466180E94181D72
:103CB000909171028917B1F00E94181D80937102D2
:103CC0002A960FB6F894DEBF0FBECDBFDF91CF911D
:103CD0001F910F91FF90EF90DF90CF90BF90AF902A
:103CE0000C94BF1D2A960FB6F894DEBF0FBECDBF51
:103CF000DF91CF911F910F91FF90EF90DF90CF90C8
:103D0000BF90AF900895CF93DF93CDB7DEB72B97D9
:103D10000FB6F894DEBF0FBECDBF4F8358876987BB
:103D20007A878B87DE01119686E0FD0111928A95D4
:103D3000E9F785E0FE01379601900D928A95E1F74B
:103D400049815A816B817C818D819E810E940825E9
:103D50002B960FB6F894DEBF0FBECDBFDF91CF918B
:103D60000895FC01808191810E94DE270895CF9300
:103D7000882309F49CC0C82F8238C1F40E94181D02
:103D800081FD95C069E380913A0190913B010E94C9
:103D9000D0290E946B282FEF81EE94E021508040C3
:103DA0009040E1F700C0000069E319C0833801F5D5
:103DB0000E94181D80FD7BC063E580913A019091BF
:103DC0003B010E94D0290E946B282FEF81EE94E0E6
:103DD000215080409040E1F700C0000063E58091F1
:103DE0003A0190913B010E94D229CF910C946B280B
:103DF0008438C1F40E94181D82FD59C067E4809187
:103E00003A0190913B010E94D0290E946B282FEF2C
:103E100081EE94E0215080409040E1F700C0000026
:103E200067E4DDCF8CEF8C0F813AD0F46C2F80915A
:103E30003A0190913B010E949A29882349F06C2F06
:103E400080913A0190913B010E94D2290E946B28F7
:103E50006C2F80913A0190913B010E94D029C5CFEF
:103E600080E28C0F883048F4C77081E001C0880F71
:103E7000CA95EAF70E942028B8CFEBE5EC0FE330B3
:103E800040F4F0E0E951FE4F808190E0CF910C9436
:103E90006D1DC85AC73158F4EC2FF0E0EE0FFF1F2C
:103EA000E754FE4F80819181CF910C94831DCF9177
:103EB0000895882309F45BC0682F823879F40E9442
:103EC000181D81FF54C069E380913A0190913B0134
:103ED0000E94D0290E946B2869E310C08338B1F496
:103EE0000E94181D80FF43C063E580913A019091C4
:103EF0003B010E94D0290E946B2863E580913A0122
:103F000090913B010E94D2290C946B28843879F45B
:103F10000E94181D82FF2BC067E480913A019091A6
:103F20003B010E94D0290E946B2867E4E7CF8CEF09
:103F3000860F813A18F380E2860F883048F4677064
:103F400081E001C0880F6A95EAF70E942628DCCF3D
:103F50008BE5860F833020F480E090E00C946D1D9B
:103F6000685A673120F480E090E00C94831D089536
:103F7000CF93C82F0E94B71EC93349F42FEF87EEA5
:103F800093E0215080409040E1F700C000008C2F6A
:103F9000CF910C94591F882321F00E9420280C9463
:103FA0006B280895882321F00E9426280C946B2802
:103FB0000895CF92DF92EF92FF920F931F93CF93CA
:103FC000DF937C01062FC72FFC01158112951F700E
:103FD000D281D1110E943D280E941628882399F091
:103FE000DD2389F08C2F807F803421F080E2800FE8
:103FF000883048F082E00E94B5280E94162891E09F
:10400000D82ED92601C0D12CCC2EC2948FE0C82244
:104010008C2D90E0FC01E659FF4F0C94C2328C2F9E
:10402000807FCF70882311F0C295C07FDD2399F087
:10403000CC2309F482C180E2800F883010F0011196
:1040400004C08C2F0E94202803C08C2F0E9430288F
:104050000E946B2872C1802F0E94591FCC2309F443
:1040600091C180E2800F883010F0011104C08C2FC4
:104070000E94262803C08C2F0E9436280E946B289D
:1040800081C18C2F807FCF70803211F0C295C07FAC
:10409000002319F00130C9F022C0DD2371F0112393
:1040A00041F0113031F40E9450288C2B0E94582886
:1040B00069C10E9450288C2B1DC0112319F01130AA
:1040C00009F460C10E94612825C0DD2321F016306B
:1040D00008F058C10EC0153008F054C11BC0DD23D4
:1040E00061F0112331F0F701858180FF26C18F70C7
:1040F00085838C2F0E94CB1F45C1112359F00933B2
:1041000009F02CC1FFEF27EE83E0F1502040804002
:10411000E1F722C18C2F0E94D21F34C18C2F8695CB
:104120008695837019F0813061F02CC1DD2321F078
:10413000802F9C2F937002C080E090E00E946D1D44
:1041400029C1DD2321F0802F9C2F937002C080E0D5
:1041500090E00E94831D1EC18C2F837009F045C022
:10416000D11114C1402F429546954770440F440F1A
:10417000602F6F70862F90E0A0E0B0E0042E04C0A6
:10418000880F991FAA1FBB1F0A94D2F704FF10C003
:104190000FE010E020E030E004C0000F111F221FEC
:1041A000331F4A95D2F7009510952095309503C09E
:1041B00000E010E09801C695C695C370BC01CD0122
:1041C000602B712B822B932BC23049F058F4C130F5
:1041D00019F00E945926DAC00E944726D7C00E94D3
:1041E0006B26D4C00E944526D1C0DD2319F08C2F48
:1041F000817001C08695882309F4C8C0402F42957C
:1042000046954770440F440F602F6F70862F90E0E3
:10421000A0E0B0E0042E04C0880F991FAA1FBB1FA6
:104220000A94D2F704FF10C00FE010E020E030E065
:1042300004C0000F111F221F331F4A95D2F70095AB
:1042400010952095309503C000E010E09801C695C8
:10425000C695C370BC01CD01602B712B822B932BB3
:10426000C23049F058F4C13019F00E941E278EC0A8
:104270000E940C278BC00E94302788C00E947F2696
:1042800085C0CF70DD2339F08C2F0E94A526802FAA
:104290000E94CB1F7BC0802F0E94D21F8C2F0E94B8
:1042A000C62674C0023F01F128F4003F41F0013FEF
:1042B000A1F03FC0033FF9F0043F39F13AC0DD23DC
:1042C00041F0153008F05EC08C2F8F710E94EB26F4
:1042D00059C0163008F056C0F7CFDD2339F08C2FC7
:1042E0008F710E94A5264EC0DD23C9F38C2F8F71DC
:1042F0000E94C62647C0DD2329F08C2F8F710E94B3
:10430000902640C00E948B263DC0DD2349F0CF712E
:104310008C2F0E94A52663E08C2F0E94A02832C01B
:1043200081E00E94B528123068F182E00E94B52831
:1043300029C0DD2331F0112391F2802F0E94B71E96
:1043400021C0112399F2093349F49FEFE7EEF3E01E
:104350009150E040F040E1F700C00000802F0E9443
:10436000591F10C04C2F4F70602FC7010E941307B8
:104370000E94B6250FC04C2F4F70602FC7010E94BE
:10438000160708C088EF8C0D843020F40E94181D99
:104390000E949406DD20C9F00E94122880FD15C0FD
:1043A000F70112820E940C280E94A526C7010E94D4
:1043B00006220E940C28DF91CF911F910F91FF9050
:1043C000EF90DF90CF900C94C626DF91CF911F9194
:1043D0000F91FF90EF90DF90CF9008950F931F9370
:1043E000CF93DF93EC01688179818A810E94E9276C
:1043F0008C010E9442270E943326B801CE010E9400
:10440000D91FDF91CF911F910F910895CF93DF9323
:10441000EC01988189812B813C81232B31F08F3FE6
:1044200031F481E09F3F19F403C081E001C080E0D6
:1044300080FD19C0CE010E94AD0681110CC00E9402
:104440001628882381F08A81882369F082E0DF9131
:10445000CF910C94B528CE010E94EE21CE01DF91C0
:10446000CF910C947606DF91CF9108950E943D285C
:104470000E944D280E946B2880E090E00E946D1DF4
:1044800080E090E00C94831D80913A0190913B0173
:104490000E94D4290C9436220E942D280C94442288
:1044A000E92FE295EF704E2F50E0FA013297EE308F
:1044B000F105B0F4E658FF4F0C94C232803F91F002
:1044C00018F4883E68F40EC0843F51F40BC0883E57
:1044D00048F0813F29F406C093FB882780F90895AE
:1044E00080E0089581E008950E94DE270E94502216
:1044F0000895CF93DF9300D000D01F92CDB7DEB7E1
:104500000F900F900F900F900F90DF91CF91089523
:10451000CF93DF9300D000D000D0CDB7DEB7269682
:104520000FB6F894DEBF0FBECDBFDF91CF910895D7
:104530001F93CF93DF93C0917D0216E080917E029E
:10454000C81799F0D0E01C9FF0011D9FF00D1124B9
:10455000E158FD4F40815181628173818481958151
:104560000E9488222196C770E9CFDF91CF911F91D9
:1045700008954091AF025091B0026091B1027091E4
:10458000B2028091B3029091B4020C9488220F93EE
:104590001F93CF93DF938091B40282958F7009F0BF
:1045A0005DC08091B102882309F458C080917D02DA
:1045B00010917E026091AF027091B002C091B20280
:1045C000D091B30291E06F3F09F090E0292F06E00F
:1045D000811709F443C0209721F07F3F21F030E09C
:1045E00003C031E001C0322F90E030FD34C0089F9D
:1045F000F001099FF00D1124DF01A158BD4F119664
:104600003C911197371327C03C91361324C0129662
:104610003C91129731111FC013964D915C911497E4
:104620004C1B5D0B483C5105B0F48091B4028F7077
:1046300080618093B402EC57FD4F80818F70806160
:1046400080838FEA92E00E940622DF91CF911F9132
:104650000F910C94982201968770BACFDF91CF9179
:104660001F910F9108959F92AF92BF92CF92DF92C8
:10467000EF92FF920F931F93CF93DF93CDB7DEB7E7
:1046800061970FB6F894DEBF0FBECDBF8C0185E0F9
:10469000F801DE011D9601900D928A95E1F7F8016F
:1046A00040815181E2809091AF026091B0022091EF
:1046B000B2023091B3022115310531F06F3F31F470
:1046C00081E09F3F19F403C081E001C080E0F82F32
:1046D000F1709F2E80FD46C1F801A380B4808FEA5F
:1046E000C82E82E0D82EF090B102F501E21BF30B48
:1046F000FF2009F4DFC08091B402E83CF10508F026
:104700009BC0282F207F09F052C0561313C04913B5
:1047100011C0FE2CE1100EC08F7080618093B40236
:104720000E94B922C6010E9406228091B402F801BB
:10473000858358C1AB2831F05F3F31F481E04F3FB2
:1047400019F403C081E001C080E080FD03C081E076
:104750008E2502C080E090E0F82FF170FF2E80FFE0
:104760001CC080917D0220917E0236E0821709F400
:1047700017C190E0389FF001399FF00D1124E158E6
:10478000FD4F6181561306C06081461303C06281EC
:10479000E61203C001968770E9CFFE2CEE2009F4E3
:1047A00021C18091B40281608093B4025AC0561333
:1047B00006C0491304C0E11002C0F8019FC04D8734
:1047C0005E878D859E850E947422882379F1EE2074
:1047D00069F12091B402822F82958F7090E0029748
:1047E00074F08091AF029091B00298878F83198600
:1047F000BB86AA862C87CE0107960E94062286E0F9
:10480000F801AFEAB2E001900D928A95E1F70E94BB
:10481000C7220E94B9220DC0561729F14D875E8725
:104820008D859E850E94742281112CC0C8010E9432
:104830000622FF24F394D6C0282F207F69F77A2D13
:10484000B98AA88A6E2D89890E9479228FEA92E01E
:104850000E94062286E0F60111928A95E9F70E94ED
:10486000B922F12CBFC04913D9CFE110D7CFF8013D
:104870008583C8010E94062286E0F60111928A957E
:10488000E9F7B0C0EE2091F22091B402822F829518
:104890008F7090E002970CF4B2CF8091AF029091AC
:1048A000B0029A8389831B82BD82AC822E83CE01A3
:1048B0000196A3CFE83CF10508F047C0FE2CEE209E
:1048C00009F4B4CF561330C049132EC02091B4025E
:1048D00020FD21C0822F82958F70482F50E0411516
:1048E0005105C9F0F80125834F30510541F08F5F24
:1048F000982F9295907F822F8F70892B8583C80186
:104900000E94062286E0F801AFEAB2E001900D9223
:104910008A95E1F742C086E0F801AFEAB2E0019083
:104920000D928A95E1F75EC04D875E878D859E85E5
:104930000E947422811163CF8091B40281608093C0
:10494000B402C8010E9406224DC07A2DB98AA88AF5
:104950006E2D89890E94792286E0F60111928A954E
:10496000E9F71BC0EE2009F461CF4D875E878D8586
:104970009E850E947422F82E882309F457CF86E082
:10498000F801AFEAB2E001900D928A95E1F78FEA63
:1049900092E00E94B11E0E94C7220E94B92222C04A
:1049A0004D875E878D859E850E94DE27292F229563
:1049B0002F70223028F49F7039F0811105C00BC090
:1049C000243028F49F7049F4805E883020F0C801BC
:1049D0000E9406229F2CF92C05C0F8019581907F3A
:1049E00099F7F9CF8F2D61960FB6F894DEBF0FBE01
:1049F000CDBFDF91CF911F910F91FF90EF90DF908E
:104A0000CF90BF90AF909F90089588EC90E008956C
:104A10001F93CF93DF93CDB7DEB72C970FB6F894E3
:104A2000DEBF0FBECDBF4F83588769877A878B87DC
:104A30009C87CE0107960E9433238823D1F09F8163
:104A400088852A853B85232B31F08F3F31F481E027
:104A50009F3F19F403C081E001C080E080FD47C0A2
:104A60004F81588569857A858B859C850E9488222F
:104A70003EC086E0FE013796DE01119601900D9250
:104A80008A95E1F7FF81E8856A857B856115710567
:104A900031F0EF3F31F481E0FF3F19F403C081E0D2
:104AA00001C080E080FD23C020917E0230E0C9017A
:104AB00001968770992740917D0250E084179507F1
:104AC000F1F1F983EA837D836C8396E0929FD001B4
:104AD000939FB00D1124A158BD4FFE013196019056
:104AE0000D929A95E1F780937E020E94982216E03B
:104AF00080917D0290917E02891771F1189FC0010B
:104B0000112481589D4F0E943323882329F1E0917D
:104B10007D021E9FF0011124E158FD4F408151811B
:104B200062817381848195810E94882280917D02B7
:104B300090E001968770992780937D02D9CF0E94DB
:104B40004C2210927E0210927D02EFEAF2E086E0A3
:104B5000DF011D928A95E9F72C960FB6F894DEBF17
:104B60000FBECDBFDF91CF911F910895EF92FF92BD
:104B70000F931F93CF93DF938C01892B09F46CC0A3
:104B8000F12CEE24E394E8012196F8018491843716
:104B900040F4843008F051C0813081F0823019F146
:104BA0005BC0853709F444C0A8F19CE7980F9037A3
:104BB00008F052C08F770E94591F41C00E5F1F4FEF
:104BC000FE01849190E2980F983050F48770FE2D8A
:104BD00001C0FF0F8A95EAF78F2F0E94402814C06A
:104BE0000E94B71E2DC00E5F1F4FFE01849190E200
:104BF000980F983060F48770FE2D01C0FF0F8A95E2
:104C0000EAF78F2F0E9446280E946B2819C00E9445
:104C1000591F16C00E5F1F4FFE01C491CC2381F0B7
:104C20008FE99FE00197F1F700C00000C150F6CF77
:104C30000E5F1F4FFE01F49003C00E94B71E8E014D
:104C40008F2D882309F49FCFEFE9FFE03197F1F72B
:104C500000C000008150F5CFDF91CF911F910F91DF
:104C6000FF90EF900895089508950C9434260C94C5
:104C700035260E9437266093E1027093E20280930A
:104C8000E3029093E4020C9436220C9439260F939D
:104C90001F930091E1021091E2022091E302309112
:104CA000E402602B712B822B932B1F910F910C949C
:104CB00039260F931F930091E1021091E202209197
:104CC000E3023091E40260237123822393231F9136
:104CD0000F910C9439260F931F930091E1021091CC
:104CE000E2022091E3023091E402602771278227DB
:104CF00093271F910F910C9439260C9434260E940F
:104D00007D266093DD027093DE028093DF02909334
:104D1000E0020C94362260E070E0CB010C947F2618
:104D20000F931F9341E050E060E070E08A019B0127
:104D300004C0000F111F221F331F8A95D2F7C9012B
:104D4000B8011F910F910C947F260F931F9341E0A0
:104D500050E060E070E004C0440F551F661F771FED
:104D60008A95D2F78091DD029091DE02A091DF0258
:104D7000B091E0028A019B01082B192B2A2B3B2BB7
:104D8000C901B8011F910F910C947F260F931F93B7
:104D900041E050E060E070E004C0440F551F661F22
:104DA000771F8A95D2F740955095609570958091C0
:104DB000DD029091DE02A091DF02B091E0028A0153
:104DC0009B01082319232A233B23C901B8011F9102
:104DD0000F910C947F260F931F9341E050E060E009
:104DE00070E004C0440F551F661F771F8A95D2F7E5
:104DF0008091DD029091DE02A091DF02B091E0028D
:104E00008A019B01082719272A273B27C901B801D6
:104E10001F910F910C947F260F931F930091DD0239
:104E20001091DE022091DF023091E002602B712BA5
:104E3000822B932B1F910F910C947F260F931F931E
:104E40000091DD021091DE022091DF023091E0023C
:104E500060237123822393231F910F910C947F264B
:104E60000F931F930091DD021091DE022091DF026B
:104E70003091E00260277127822793271F910F91BD
:104E80000C947F260895292F220F920F990F890FD6
:104E9000E82FE695E695E695877051E001C0550F3D
:104EA0008A95EAF785E0E89FF0011124EB54FD4F65
:104EB00020E030E070E04081CB01022E02C09695E8
:104EC00087950A94E2F7817081958427852384274A
:104ED00081932F5F3F4F2530310569F70895292FC2
:104EE000220F920F990F890F682F66956695669528
:104EF000982F977085E0689FB001112440E050E042
:104F000080E0FB01E40FF51FEB54FD4F208130E002
:104F1000092E02C0369527950A94E2F721703327AF
:104F2000042E01C0220F0A94EAF7822B4F5F5F4FD5
:104F30004530510531F70895BF92CF92DF92EF923D
:104F4000FF920F931F93CF93DF938C01C090DD02EC
:104F5000D090DE02E090DF02F090E0028091E1026A
:104F60009091E202A091E302B091E402C82AD92A0A
:104F7000EA2AFB2ACFE1D0E0D701C6010C2E04C0FB
:104F8000B695A795979587950A94D2F780FD04C0AA
:104F9000219790F7B12C07C0BC2EB8018C2F0E942E
:104FA00032070197A9F38B2DDF91CF911F910F91BC
:104FB000FF90EF90DF90CF90BF900895CF93DF9355
:104FC000EC010E949C27BE010E943207DF91CF9125
:104FD00008951F93CF93DF93EB0190917C02992367
:104FE00021F0CB010E94DE2713C0882349F0CB01BA
:104FF0000E949C27182F682FCE010E94432704C0CF
:10500000CB010E946F27182FBE01812F0E9432070B
:10501000DF91CF911F9108958091E5028595859547
:10502000859508958091E502877008959091E50235
:10503000977081E009F480E008958091F10208956D
:105040009091F102892B8093F102089580959091BF
:10505000F10289238093F10208951092F1020895DC
:105060009091F002892B8093F002089580959091A1
:10507000F00289238093F00208951092F0020895BF
:105080009091EF02892B8093EF0208958095909183
:10509000EF0289238093EF0208951092EF020895A2
:1050A0008091E602089508950C9453280C94542896
:1050B0009091E602981721F08093E6020C9456280E
:1050C00008958091E602882329F01092E60280E09C
:1050D0000C9456280895E0913A01F0913B0180919B
:1050E000F1028083E0913A01F0913B01908180913F
:1050F000F002892B8083E0913A01F0913B0190818D
:105100008091EF02892B80838091E602882381F0D1
:10511000E0913A01F0913B019081892B808380914D
:105120003A0190913B010E948E2981110E946128D1
:1051300080913A0190913B010C94241D0C945328CA
:1051400098E0899F90011124262B2093E5020E946C
:10515000A5268091E5028595859585950C949E28D8
:105160001092E50280E00C949E282091E502809543
:1051700082238093E502982F977079F430E0482FCE
:10518000082E000C550B2417350739F085958595A9
:1051900085950E94C6260C94B02808959093FB0133
:1051A0008093FA0108958295982F937344E0949F19
:1051B000900111248C7C86958695282B822F8575ED
:1051C000880F2A7A2695822B089580E090E00E942D
:1051D000703321E08C3E9E4F09F020E0822F08952D
:1051E00082E090E00C94623383E090E00C946233B0
:1051F000CF9384E090E00E946233C82F81E290E078
:105200000E9462332C2F30E0A901582BCA01CF91A4
:105210000895CF93C92F682F84E090E00E947633E1
:105220006C2F81E290E0CF910C94763386E090E091
:105230000C946233682F86E090E00C947633AB01D7
:10524000BC018FE090E00C948833AB01BC0183E19A
:1052500090E00C94883360E070E0CB010C94252939
:105260006CEE7EEF80E090E00E94943360E082E09C
:1052700090E00E94763360E083E090E00E94763315
:105280001092E1021092E2021092E3021092E40204
:1052900060E084E090E00E94763360E081E290E09C
:1052A0000E94763360E085E090E00E94763360E013
:1052B00086E090E00E9476336FEF87E090E00E94F6
:1052C000763340E050E0BA0188E090E00E948833F5
:1052D00060E08DE090E00E94763340E050E0BA015B
:1052E00088E190E00E94883360E087E190E00E94CE
:1052F000763340E050E0BA018CE190E00E948833C0
:1053000060E080E290E00E9476330C941B060C94DF
:105310003029682F8EE090E00C947633FC013296B1
:1053200097E080E0915029F021912223D9F38F5FFB
:10533000F9CF0895662349F0FC0132960896219131
:10534000621729F0E817F907D1F780E0089581E0A6
:1053500008959C01FC0132969FEF80E04191461731
:1053600089F09F3F19F4411101C0982F8F5F86305B
:10537000A9F79F3F39F0F901E90FF11D97FDFA9563
:105380006283089508959C012A5F3F4FFC0142818A
:10539000461301C01282019682179307B9F7089548
:1053A0000C94A9290C94C329029626E0FC011192C1
:1053B0002A95E9F7089508950C94DB290C94DB29CC
:1053C000CF930E94DE290E94470A0E94DC29C0E098
:1053D0008C2F0E941B09811104C0CF5FCA30C1F716
:1053E00001C081E0CF9108950C94DB290C94F4293D
:1053F0000E94F62980914B03843061F11092F302F0
:1054000020E488E190E00FB6F894A89580936000BE
:105410000FBE2093600080E00E94651780E00E942C
:1054200094060E94F62983B7817F846083BF83B787
:10543000816083BF7894889583B78E7F83BF0FB6D2
:10544000F894A89580916000886180936000109224
:1054500060000FBE08950C94DB290E944C220E942C
:10546000EA150E94181D0E9494060C942B2A1F9284
:105470000F920FB60F9211248F939F93AF93BF9308
:105480008091F302811113C08091410390914203F6
:10549000A0914303B09144034196A11DB11D809397
:1054A000410390934203A0934303B0934403BF91FD
:1054B000AF919F918F910F900FBE0F901F901895F5
:1054C00082E084BD93E095BD9AEF97BD80936E0016
:1054D00008952FB7F8948091410390914203A091D1
:1054E0004303B09144032FBF08959C014FB7F89434
:1054F0008091410390914203A0914303B0914403F2
:105500004FBF821B930B089578941F920F920FB692
:105510000F9211248F939F93AF93BF938091410378
:1055200090914203A0914303B09144030196A11DC1
:10553000B11D8093410390934203A0934303B09322
:105540004403BF91AF919F918F910F900FBE0F9029
:105550001F90189581E08093E00080E28093D8004E
:105560001092C9008FE19EE40197F1F700C000009E
:1055700087E090EBDC018093540390935503A09354
:105580005603B09357039CE088E10FB6F894A895B2
:10559000809360000FBE90936000FFCF0E94E528CB
:1055A000811102C00E9487290E94F0288093F20294
:1055B0000E94F82890934603809345030E94F428A4
:1055C000682F70E080E090E00E9445266091DD0247
:1055D0007091DE028091DF029091E0020C947D26B2
:1055E0008091FF02089508959FB7F8941092F602F3
:1055F0009FBF90914B03943009F057C09091E90000
:105600009F703091EC00232F217030FD20E8922B09
:1056100023E02093E9002091EB0020FF43C020917C
:10562000EE0027FF3FC02091F402222321F02091B9
:10563000E80025FF37C01092F40226E03091E80020
:1056400035FD15C030914B03343061F53091EB00DE
:1056500035FD28C0215021F481E08093F40222C05E
:10566000EFE9FFE03197F1F700C00000E7CF80934A
:10567000F1008091E80085FD0AC08091E80080FF7C
:10568000FCCF8091E8008E778093E80006C08FB74A
:10569000F89421E02093F6028FBF9F709093E90069
:1056A00080E008959F709093E9008FEF0895CF9365
:1056B000DF9300D01F92CDB7DEB790914B039430AB
:1056C00019F589837B836A8382E08093E9008FEFF9
:1056D0009091E800815095FD06C095ED9A95F1F7FF
:1056E00000008111F5CF8091E80085FF0DC040E0FA
:1056F00050E063E070E0CE0101960E94B12D8091F0
:10570000E8008E778093E8000F900F900F90DF9164
:10571000CF910895BC0184E00C94572BBC0183E029
:105720000C94572BCF93DF9321E02093E9002FEFC8
:105730003091E800215035FD06C035ED3A95F1F77E
:1057400000002111F5CF2091E80025FF14C0EC01E5
:1057500040E050E068E070E00E94B12D8091E800E8
:105760008E778093E80088E0FE01A7EFB2E0019019
:105770000D928A95E1F7DF91CF91089580E099E04D
:105780000E94790580914A03811109C00E94422F2D
:105790000E949F2F8091E20084608093E200089530
:1057A0008CEF98E00E94790510924A03089588EFE3
:1057B00098E00C94790584EF98E00C94790580EFDB
:1057C00098E00E9479050C942D2A2091F5022F5F14
:1057D000822F62E30E945E32992319F02093F50232
:1057E00008951092F5028091F602882371F180915C
:1057F0004B03843041F58091E9008F702091EC00DB
:10580000922F917020FD90E8892B93E09093E9000E
:105810009091EB0090FF14C09091EE0097FF10C0A4
:105820009091E80095FF03C01092F100F9CF90919C
:10583000E80090FF05C09091E8009E779093E80003
:105840008F708093E9001092F602089542E061ECB7
:1058500081E00E94BB2E42E261EC82E00E94BB2EFE
:1058600042E261EC83E00C94BB2E80914D038330C7
:1058700009F460C030F4813071F0823009F499C0CD
:1058800008958A3009F485C08B3009F46BC08930E3
:1058900009F0A7C020C080914C03813A09F0A1C053
:1058A0008091E800877F8093E80080915003909179
:1058B0005103892B21F468E087EF92E003C060E098
:1058C00080E090E070E00E94FC2D8091E8008B77F2
:1058D0008093E800089580914C03813209F081C0E3
:1058E0008091500390915103029708F07AC0809103
:1058F000E800877F8093E8008091E80082FD05C082
:1059000080914B038111F8CF6CC02091F3008091FE
:10591000F20090E0922B029729F48091F1008B7FA6
:10592000813021F48091F1008093FF028091E800A2
:105930008B7753C080914C03813A09F052C080911B
:10594000500390915103892B09F04BC08091E800DE
:10595000877F8093E8008091E80080FFFCCF8091F2
:10596000460136C080914C038132D9F580915003B5
:1059700090915103892BA9F58091E800877F80934E
:10598000E8000E94F02E80914E03809346010C9413
:105990004C2280914C03813221F58091E800877F71
:1059A0008093E8000E94F02E80914F0380930003C3
:1059B000089580914C03813AA1F48091E800877F9B
:1059C0008093E8008091E80080FFFCCF8091000385
:1059D0008093F1008091E8008E778093E8000C942A
:1059E000F02E089584B7877F84BF0FB6F894A895EA
:1059F00080916000886180936000109260000FBE0B
:105A000090E080E80FB6F894809361009093610075
:105A10000FBE0E94A91D0E94422F0E949F2F8091BD
:105A2000E20084608093E20084EF9AE20E94CE2834
:105A300078940E9433320E94B11D8CE391E00E9461
:105A4000131D8FED98E00E94790580914B038530FE
:105A500089F48BED98E00E9479050E94F8298091E5
:105A60004903882391F30E94E029882371F30E945F
:105A70009B2DEBCF0E94E71DE8CF0C943F2D292FE3
:105A8000332723303105C9F060F42130310581F02E
:105A90002230310509F047C08BE590E026E439E07B
:105AA00046C02132310511F12232310561F13BC08E
:105AB00082E190E021EA39E03AC0992781309105EE
:105AC00061F040F08230910559F0039761F5E4E010
:105AD000F9E008C0E2E4F9E005C0E2E3F9E002C061
