:100000000C942F040C9476040C9476040C94061033
:100010000C9476040C9476040C9476040C94760478
:100020000C9476040C9476040C94CB200C949F21B1
:100030000C941D1C0C9476040C9476040C94760499
:100040000C9476040C9476040C9476040C94760448
:100050000C9476040C94741C0C9476040C94760422
:100060000C9476040C9476040C9476040C94760428
:100070000C9476040C9476040C9476040C94760418
:100080000C9476040C9476040C9476040C94760408
:100090000C9476040C9476040C9476040C947604F8
:1000A0000C9476040C9476040C94760429001E00BB
:1000B0001F002000210022002B0014001A0008005D
:1000C00015001700E10004001600070009000A00EF
:1000D000E0001D001B0006001900050000002F02B3
:1000E000E200E300015135002A0027002600250028
:1000F000240023003100130012000C0018001C0023
:10010000340033000F000E000D000B00E500380036
:10011000370036001000110000003002E7000251E5
:100120002C0028000100000000000000000000007A
:100130002B002B0029002800E0003900E100E1003D
:10014000E300E2002D022602E000E0004A004B003E
:100150004E004D0000000100E200E30001002F000E
:100160002A002E002D00A900AA0031000100300055
:100170002F0052002B00350028002E004F005100A8
:1001800050002702E5001D001B00060019000500B5
:1001900000000100E7004C002C0030003A003B005A
:1001A0003C003D003E003F002B002B000000BE0045
:1001B000BD000000E100E1002A004C0026022702F9
:1001C000E000E000BC00AE00BB00AD00000000009D
:1001D000E200E3002A0029004500440043004200F9
:1001E00041004000310030002F005200A900A8005B
:1001F0002800E5004F0051005000AA00E500E5008E
:100200004A004B004E004D000000000001000100BC
:100210000100000000AE00AF00DA0281FFD9F1DB7F
:1002200020A4A62EAF00A0C000A1C800AED580A813
:100230001FD300408D1420000000000000003E5B32
:100240004F5B3E003E6B4F6B3E001C3E7C3E1C00F5
:10025000183C7E3C18001C577D571C001C5E7F5EBE
:100260001C0000183C180000FFE7C3E7FF0000185F
:1002700024180000FFE7DBE7FF0030483A060E00D5
:10028000262979292600407F05050700407F05259E
:100290003F005A3CE73C5A007F3E1C1C0800081CEB
:1002A0001C3E7F0014227F2214005F5F005F5F000E
:1002B00006097F017F00006689956A0060606060C2
:1002C000600094A2FFA2940008047E04080010209D
:1002D0007E20100008082A1C0800081C2A080800B4
:1002E0001E10101010000C1E0C1E0C0030383E3872
:1002F0003000060E3E0E0600000000000000000068
:100300005F000000000700070000147F147F140046
:10031000242A7F2A120023130864620036495620DB
:100320005000000807030000001C224100000041AB
:10033000221C00002A1C7F1C2A0008083E08080016
:1003400000807030000008080808080000006060A5
:1003500000002010080402003E5149453E000042C2
:100360007F4000007249494946002141494D330010
:100370001814127F10002745454539003C4A494969
:1003800031004121110907003649494936004649E3
:1003900049291E0000001400000000403400000045
:1003A00000081422410014141414140000412214F3
:1003B00008000201590906003E415D594E007C12B9
:1003C00011127C007F49494936003E4141412200DB
:1003D0007F4141413E007F49494941007F09090968
:1003E00001003E41415173007F0808087F00004131
:1003F0007F4100002040413F01007F08142241005E
:100400007F40404040007F021C027F007F040810B4
:100410007F003E4141413E007F09090906003E41FF
:1004200051215E007F0919294600264949493200B9
:1004300003017F0103003F4040403F001F20402058
:100440001F003F4038403F0063140814630003045A
:10045000780403006159494D4300007F4141410048
:10046000020408102000004141417F000402010203
:1004700004004040404040000003070800002054B2
:10048000547840007F2844443800384444442800CD
:10049000384444287F0038545454180000087E091A
:1004A00002001824241C78007F080404780000440B
:1004B0007D4000002040403D00007F1028440000A7
:1004C00000417F4000007C04780478007C0804042C
:1004D00078003844444438007C1824241800182438
:1004E00024187C007C080404080048545454240058
:1004F00004043F4424003C4040207C001C20402059
:100500001C003C4030403C004428102844004C90E3
:1005100090907C004464544C440000083641000034
:1005200000007700000000413608000002010204CC
:1005300002003C2623263C00000000000080808052
:1005400080000000000080E070180C1830E080008F
:100550000010F8901030783010B8FC38100000000F
:10056000000000F8FCF8000000000000000000009F
:100570000000001C9C1C00000000F8FCF8000000BB
:100580000000001CFCF8C000000000000080E0F843
:100590007C1C000000F0FCFCFC1C1C1C1C1C1C1C1B
:1005A0001C000000000000C0F0F8381C1C1C1C1CC3
:1005B0001C3CF8F0E000E0F0F0F0E0ECEEF7F37057
:1005C00020007C7C7C7E007E7E7E7F7F7F000080A2
:1005D000C0E07E5B4F5BFEC00000C000DCD7DEDE0B
:1005E000DED7DC00C00000000000000000000000BA
:1005F000000000000000000000000000000FBCE050
:10060000818181838382870C183060C000001FFEC7
:1006100090B9FFBB91983C1811133F1100000000E6
:10062000000000FFFFFF00000000000000000000CD
:10063000000000FFFFFF00000000FFFFFF000000C0
:100640000000000000030F7FF8E080F0FC3F0F0186
:1006500000000000003F3F3F1C1C1C1C1C3C78F8A5
:10066000F0E08000000000C3E7FF7E3C387878703F
:1006700070F8FFDF87000F1F3F7F7F7F7F7F3F1E68
:100680000C001F1F1F3F003F3F3F7F7F7F00307BDD
:100690007F7830202030787F3B0003000F7F0F0FE2
:1006A0000F7F0F00030000000000000000000000AA
:1006B0000000000000000000183C24666341C18176
:1006C00080808080808081C14162386C4CC681818D
:1006D000808080808081C14362361C180000000049
:1006E000000000FFFFFFC0C0C0C0C0C0C0C0C080CD
:1006F0000000007FFF7F000000007FFFFFC0800040
:100700000000E0E0C0C0C0E0F97F1F07000000006B
:10071000000000000070F0E0E0C0C0C0C0E0F0F8F1
:100720007F3F0F0000000F3F7FF9E0E0C0C0C0C076
:10073000C0E0F97F3F1F0000000000000000000043
:1007400000000000000000000000000000000000A9
:100750000000000000000000000000000000000099
:100760000000000000000000000000000000000089
:1007700000000000000000000E034C0069006C0047
:10078000790035003800000010036C0069006C002F
:10079000690075006D00730000000403090409027C
:1007A0003B00020100A0FA0904000001030101005E
:1007B0000921110100012240000705810308000AF8
:1007C00009040100010300000009211101000122B8
:1007D00032000705820320000A1201100100000008
:1007E00008D8042DEB00010102000105010980A1D8
:1007F00001850319012AB700150126B70095017577
:10080000108100C0050C0901A101850419012AA06D
:1008100002150126A002950175108100C00501098D
:1008200006A101050719E029E715002501950875BE
:100830000181029501750881010507190029FF153D
:100840000026FF0095067508810005081901290595
:10085000950575019102950175039101C000112460
:100860001FBECFEFDAE0DEBFCDBF04B603FE27C068
:100870008091A6059091A705A091A805B091A90522
:100880008730904BA740B04BD1F41092A605109240
:10089000A7051092A8051092A90514BE84B7877FFA
:1008A00084BF0FB6F894A89580916000886180930A
:1008B0006000109260000FBEE0E0F8E3099512E0DE
:1008C000A0E0B1E0E4EAFDE402C005900D92AE358F
:1008D000B107D9F725E0AEE5B2E001C01D92A63A16
:1008E000B207E1F70E940D1E0C94AC260C94000098
:1008F00080913E0390913F03A0914003B09141034A
:1009000082309105A105B10571F184309105A105F1
:10091000B10501F16DE571E00097A105B105E1F0C8
:10092000BF93AF939F938F9386E891E09F938F93AC
:100930001F9288E18F938FE593E09F938F930E949E
:1009400094238DB79EB70A960FB6F8949EBF0FBE3C
:100950008DBF06C06CE671E08FE593E00E948D23A9
:100960008FE593E0089569E771E0F6CF80E091E0CC
:100970000895CF93C0E28C33910520F4FC01E85533
:10098000FE4FC0811F92CF939F938F93FB01808175
:100990001F928F9381811F928F9387E991E09F939C
:1009A0008F931F9288E18F9385E792E09F938F93B7
:1009B0000E9494238DB79EB70E960FB6F8949EBFF3
:1009C0000FBE8DBF80915E0290915F02449761F4EB
:1009D00010925F0210925E02E0E6F2E080E2819304
:1009E00092E0E437F907D9F780915E0290915F02B7
:1009F000FC01E05AFD4FC083019690935F02809303
:100A00005E02CF91089585E792E0089580E692E036
:100A100008950C942D05CF93C82F0E9405098111CC
:100A200001C0C2E08C2FCF9108950E940509882350
:100A300079F00E94780460E00E94F40A0E940305A5
:100A400060E00E94F40A0E94060560E00C94F40A3B
:100A50000E94B60460E00C94D80AFB0122812111A7
:100A60000E94B90481E0089581E0089508950C94EE
:100A700036051F93CF93DF9300D000D00F92CDB7F0
:100A8000DEB749835A836B833091DD0289819A8175
:100A900031111DC06623B9F02223A9F00E949419D8
:100AA000182F682F89819A810E943D1969817A8166
:100AB000812F0F900F900F900F900F90DF91CF919B
:100AC0001F910C94E5050E946B19182FEFCF0E941F
:100AD000941969817A81EDCFFC01262F40815181E3
:100AE0006281738184810C943905CF93DF93EC018B
:100AF00060E00E946C05BE01DF91CF910C94370538
:100B00000E94CB1A811102C00E946F1B0C94C00777
:100B10000C94C30708950E9431150E948A052FEF97
:100B200084E39CE0215080409040E1F700C0000049
:100B30000C94981C0F931F93CF93DF93EC0161E00B
:100B40000E946C058C01BE010E940905882329F1D1
:100B5000BE01C8010E94C80C8823F9F0BE01C8017B
:100B60000E941A0D8823C9F0BE01C8010E943D0EE3
:100B7000882399F08A81882339F001158CE51807BC
:100B800051F00F3D1C4579F0CE01DF91CF911F91BF
:100B90000F910C9434050E948B0580E0DF91CF917A
:100BA0001F910F9108950E946F1BF7CF08950C9429
:100BB000D60581E008950C94D905CF93C82F0E94E3
:100BC000D7058C2FCF910C94DB05972F70E026E092
:100BD000929F600D711D1124FB019CE3899FE00D24
:100BE000F11D1124EE0FFF1FE455FF4F85919491E5
:100BF0000895CF93DF930E94E5050E94E506EC017E
:100C0000811522E59207E8F5811531E5930708F093
:100C1000ACC0883E910510F5803E910570F5883A8C
:100C2000910570F4853A910508F078C081309105FE
:100C300021F1009711F1049700F5D0E0C0E01DC04C
:100C40008F3B9105D0F7C85AD0E0CC0FDD1FCC51B7
:100C5000DE4F0990D881C02DD4640FC0811540E5C6
:100C6000940708F066C0C11580E4D80708F05EC09C
:100C7000CE019A9581159F4100F7CE01DF91CF916A
:100C80000895811536E5930718F5811545E5940714
:100C900008F083C0C11584E5D80708F079C09C2FFF
:100CA000969596959E0123703327C115D34508F478
:100CB00061C0C1E0D0E002C0CC0FDD1F2A95E2F791
:100CC00030E2939FC0011124C82BD92BDA68D5CF0D
:100CD000C1158AE5D80778F4C11599E5D90708F058
:100CE00066C0C11528E5D20708F4A7CFDC2FCC27B2
:100CF000C06FD06AC2CFCE0190568115904208F0E5
:100D00009CCF8D2F8F710E947C0790E0982F8827B1
:100D100088279F719C012C2BE90147C0C55AD0E060
:100D2000CE5EDD4FC881D0E0D064A7CFDF70D06A3F
:100D3000A4CFE4E096958795EA95E1F783702C2F90
:100D400026952695237040E2249F90011124382B8C
:100D50008C2F8370C1E0D0E002C0CC0FDD1F8A95DC
:100D6000E2F7C22BD32BDC6888CFD82FCC27C16FFA
:100D7000D06A83CFC1E0D0E002C0CC0FDD1F2A953E
:100D8000E2F720E2929FC0011124C82BD92BEBCFB0
:100D9000DC2FCC27C46FD06A70CF0E947C07C82F8D
:100DA000D0E0DC2FCC27CC27DF71D06266CF8C2F30
:100DB0008F700E947C0734E0D695C7953A95E1F78D
:100DC000CF709C2FEC01D06958CF82389105B1F1DA
:100DD000B0F48133910509F475C048F48932910566
:100DE00009F469C08A32910509F473C00895853306
:100DF000910509F459C08933910501F10895833EA5
:100E00009105A9F138F4803E9105F9F0823E9105F3
:100E100049F10895863E9105A9F1873E9105C9F1F2
:100E2000843E910519F52091980521FF1FC08091FE
:100E3000970584FD14C087EE90E0089520919705F2
:100E40002370A1F080EE90E008952091970520FD99
:100E500047C03091980530FF09C024FF44C090E09E
:100E600080E004C02091970522FDF7CF08952091DE
:100E7000970522FD3BC03091980530FDE3CF24FF5C
:100E8000F5CFEDCF2091970523FFF0CF24FDE7CFDD
:100E9000D2CF2091970523FD2CC03091980531FFCA
:100EA000EECF84EE90E008952091970525FFDECFE8
:100EB00089E290E008952091970525FFD7CF85E33B
:100EC00090E008952091970526FFD0CF8AE290E028
:100ED00008952091970526FFC9CF81E390E00895FA
:100EE00089E390E0089583EE90E0089582EE90E02B
:100EF000089586EE90E008959091970592FF06C0C0
:100F0000282F28712830F9F4877F846093FF06C06A
:100F1000282F28712831F1F4877E8461209198056B
:100F200020FF06C0382F38713830D9F4877F8160B0
:100F300021FF06C0282F28712831D1F4877E8161D6
:100F400094FD877E0895282F24712430F9F68B7F35
:100F50008860DCCF282F2471243101F78B7E8861D3
:100F6000DDCF382F3171313019F78E7F8860E0CFB7
:100F7000282F2171213121F78E7E8861E1CF0895DC
:100F80000C94BF0708950C94C207E82FF0E0EF57C8
:100F9000FC4F80810895089580EA8A95F1F70895BD
:100FA000F894E82FE295EF70F0E031A1282F2F7030
:100FB00081E090E001C0880F2A95EAF7982F90957C
:100FC000932391A392A1892B82A3789408950895E5
:100FD0000E942309809140018091400195E0811198
:100FE00090E090938C0385E0891B80938B0386E6C9
:100FF0000E94D00787E90E94D00786EC0E94D007A4
:1010000084E30E94D00785E30E94D00786EF0E9408
:10101000D00787EF0E94D00781E30E94D00783E3C7
:101020000E94D00782E30E94D00786E30E94D00787
:10103000E7E7F3E0A1E8B3E081E893E011921D92C5
:101040008E179F07D9F785E00E94CE080E94800581
:101050000C942D090E9405098823F9F080918B03D7
:1010600090E08F579C4F0E944009811113C08091DE
:101070008D028F5F80938D02863050F0E0918B035C
:10108000F0E0EF57FC4F108211821282138214821B
:101090000C94880510928D02FBCF80918C0390E018
:1010A0008F579C4F0E945B090C94E707CF92DF9209
:1010B000EF92FF920F931F93CF93DF93CBE1D2E098
:1010C00007E713E0D12CEE24E394F12C8991F894F6
:1010D000E82FE295EF70F0E021A18F70A70102C028
:1010E000440F551F8A95E2F7CA01922F982B91A3BE
:1010F00092A18095892382A378940E94CC07E5E190
:10110000F2E030E020E0C12C4191A42FA295AF7015
:10111000B0E090968C9190E04F7002C095958795C5
:101120004A95E2F780FD36C08E2D022E01C0880F51
:101130000A94EAF7C82A2F5F3F4F2630310521F77E
:10114000FE01319780810E94D007F8018081C81686
:1011500019F1C08281E0D82A0F5F1F4FF2E0C03240
:10116000DF0709F0B3CF60918C0370E06F577C4FBD
:101170002D2D45E087E793E00E94CF080E942A08C2
:101180008D2DDF91CF911F910F91FF90EF90DF9008
:10119000CF90089580E0CECF80E0DDCF0895FF921C
:1011A0000F931F93CF93DF93F82E092F162FD72F6E
:1011B000C42F222349F081E0809390020E944D1CAD
:1011C00090938F0280938E02809190028823A1F0E9
:1011D00080918E0290918F020E94651C069760F0AC
:1011E000EF2DF02FA12FBD2FCE0FDF2FD11DEC172C
:1011F000FD0741F410929002DF91CF911F910F9162
:10120000FF90089581918D93F2CF80919102811189
:1012100011C08091D80080618093D8008AE18A95BE
:10122000F1F700C09091D900892F817090FF82E082
:101230008093910281E090919102913009F080E0D9
:1012400008950C9405090E942109809340010E9491
:10125000050981110C94340908950E940509811132
:1012600002C00C943A09089561E070E081E491E0D5
:101270000C94B30F61E070E081E491E00C94BC0F3A
:10128000CF93DF93D82FC92F90E080E00E94951074
:10129000009779F4ED2FFC2FDC01AD56BD4F2C915A
:1012A0002193019685309105B9F781E0DF91CF91C7
:1012B000089580E0FBCF30E020E0FC014191CF01B8
:1012C000F901ED56FD4F40832F5F3F4F253031052B
:1012D000A1F70895CF92DF92EF92FF920F931F93A1
:1012E000CF93DF936C017B0164E670E088E70E9496
:1012F0006D0EEC0197FD12C010E000E0F601E00F6A
:10130000F11F849164E670E00E94C90EEC01892B04
:1013100029F40F5F1F4F0E151F0581F70E944C0F18
:10132000CE01DF91CF911F910F91FF90EF90DF9051
:10133000CF900895EDE8F3E080E092E0DF019C01BA
:101340001D9221503040E1F7F0939205E093910512
:101350008FEF9FEF9093C4028093C30208950E9481
:101360000B058093BF0280FD0FC080E88093BE0212
:101370000E94670E6DE070E08BE292E00E946A09C5
:10138000892B21F080E0089580E2F0CF8091BF02A8
:1013900063E070E081FD26C088E292E00E946A0965
:1013A000892B81F76DE070E088E192E00E946A0984
:1013B000892B41F70E94591C605A75418F4F9F4FEE
:1013C00060938D0570938E0580938F0590939005A3
:1013D0000E949A0981E08093C2028093C102109218
:1013E000C002089585E292E0D9CF2091BE0236E096
:1013F000839FC0011124629F800D911D11248115CE
:1014000022E0920714F090E080E083579C4F909385
:101410009205809391050895209191053091920550
:10142000275833404091BE02642F70E0C9010E94EA
:101430005D23481B463010F4240F311D211582E036
:10144000380710F030E020E023573C4F30939205EE
:101450002093910508951F93CF93DF93162F8A3021
:1014600031F481E0DF91CF911F910C94A50A8D306A
:1014700011F480E0F7CFC0919105D091920596E0EC
:10148000FE01A8E9B2E001900D929A95E1F7803E45
:10149000C8F086E0FE0111928A95E9F711111EC08D
:1014A000C0919105D091920546E050E0BE0188E9D7
:1014B00092E00E948023892BF9F4DF91CF911F9154
:1014C0000C940C0AF6E08F9FB0011124685C7D4FEC
:1014D00046E050E0CE010E947723E0CFE0919105F5
:1014E000F09192059F012A5F3F4F2E173F07C1F2EF
:1014F000808180958193F9CFCD58D340CE0125E0EE
:10150000969587952A95E1F721E030E0A90102C080
:10151000440F551F8A95E2F7CA014091C3025091CA
:10152000C402842B952B259645E0D695C7954A9500
:10153000E1F702C0220F331FCA95E2F7822B932BEB
:101540009093C4028093C302B8CFCF93382FE09119
:101550009105F0919205ED58F3402091BE02622F63
:1015600070E0CF010E945D23281B822F332369F096
:1015700066E00E945123C82FC15010F4CF91089506
:1015800060E080E20E942B0AF7CF9F01280F311DF7
:101590002115324018F080E0F0E0E0E08E0F9F2F40
:1015A000911D83579C4F9093920580939105E6CFB0
:1015B000FF920F931F93CF93DF93EC01F62EFC0164
:1015C00001900020E9F78F0101501109C017D107E0
:1015D00030F0DF91CF911F910F91FF9008956F2D03
:1015E00089910E942B0AF2CF0E94D80A81E00C94C4
:1015F000A50A8091C202811103C08091C1020895A1
:101600000E94591C605A75418F4F9F4F60938D0502
:1016100070938E0580938F05909390058091C10201
:101620008111EBCF62E070E086E192E00E946A09EE
:10163000892B19F781E08093C102DFCF2F923F926F
:101640005F926F927F928F929F92AF92BF92CF9252
:10165000DF92EF92FF920F931F93CF93DF938091CE
:10166000C202882369F02091C3023091C40221157F
:10167000310531F08091C00261E070E0882399F07B
:10168000DF91CF911F910F91FF90EF90DF90CF905E
:10169000BF90AF909F908F907F906F905F903F90A2
:1016A0002F9008958F5F082F10E01B01082E02C0B5
:1016B000220C331C0A94E2F7A90142215321452B45
:1016C00089F39091BF0290FD44C08295880F807687
:1016D00080934B0198013695279536952795209351
:1016E0004E01815E80934C0110924F0124E630E060
:1016F00047E050E069E471E088E70E94F80E892B2A
:1017000009F0BECFA80125E0440F551F2A95E1F747
:101710008091BF0280FD2BC043575C4F04E610E070
:1017200020E230E060E488E70E941F0F892B09F077
:10173000A7CF0E94F90AE101C095D0958091C3021C
:101740009091C402C823D923D093C402C093C3028A
:1017500097CF880F880F880F80934B0110924E010E
:10176000895F80934C0183E080934F01BFCFEEE906
:10177000F2E080E2DF011D928A95E9F7A9E2B2E08A
:1017800005E212E08DE2C82E82E0D82E97E0592EB5
:10179000772473948D91E80129918E01240F352FC0
:1017A000311D23573C4FE82FF0E0E256FD4F90E00B
:1017B00080E0652C681A872C082E01C0880C0A94DA
:1017C000EAF77901A12CE701B9907E01B820662DD6
:1017D0006A196770962E062E000C770BDB2D01C060
:1017E000DD0F9A94EAF77195619571096770772713
:1017F00001C0B6946A95EAF7BD2A6081962E9B28AF
:101800009082A39468E0A612DECF019631968830CC
:10181000910579F6CA16DB0609F0BCCF04E610E0A4
:1018200020E230E04EE952E07DCF8091C1029091FC
:10183000C202911103C091E089270895882369F0BD
:1018400062E070E084E192E00E946A09892B19F05D
:101850008091C10208951092C1028091C102EBCF24
:101860000F931F938091C202882319F160E080E0FA
:101870000E94F5090E9415050E941E0B8091C1026D
:101880008823B9F00E94591C00918D0510918E0596
:1018900020918F0530919005601B710B820B930B8B
:1018A0006F3F7F4F8F4F9F4720F41F910F910C94F4
:1018B000150C1F910F9108950F931F93CF93DF93F2
:1018C000C42FD22FFC0182818823C9F04093C70224
:1018D0000E944D1C9093C6028093C50280E28C0F3B
:1018E000883008F050C0C77081E001C0880FCA95E9
:1018F000EAF7DF91CF911F910F910C94D1121091C3
:10190000C702141335C08091C5029091C6020E948F
:10191000651C8436910560F5C0E2CD0F1D17B9F046
:1019200080E2810F883040F4177081E001C0880F99
:101930001A95EAF70E94D812C83048F481E09D2F2A
:10194000977001C0880F9A95EAF70E94D112802FF4
:101950000E94BE12C830B8F4D77081E001C0880F71
:10196000DA95EAF7DF91CF911F910F910C94D8127D
:1019700080E28C0F883038F4C77081E001C0880F96
:10198000CA95EAF7EFCFDF91CF911F910F9108959C
:101990000F939C01CB01243F4CE5340759F1A8F487
:1019A000293DFCE53F0701F12A3D4CE53407D1F123
:1019B000283D3C4591F406E221EE41EE68ED7CE5E0
:1019C0000E945C0C80E00F910895263FFCE53F07E4
:1019D000E9F0B0F0273F3C45F9F0FC018281882313
:1019E00039F11092C702EFCF07E225EE45EE69ED1F
:1019F0007CE5E6CF06E221EE40EE64EF7CE5E0CF49
:101A000007E225EE44EE65EF7CE5DACF06E221EE53
:101A100042EE66EF7CE5D4CF07E225EE46EE67EFB7
:101A20007CE5CECF08E221E045EE6AED7CE5C8CF4B
:101A300081E0C9CFCF93DF93EC01FB018281882342
:101A400009F419C1C230FCE5DF07C0F1C6319CE5DD
:101A5000D90730F09E012B5F3C452930310570F5E8
:101A60000E94DE1A9093980580939705C031ECE5AB
:101A7000DE0709F4CFC008F05BC0C8308CE5D8079A
:101A800009F4B6C088F5C430ECE5DE0709F4A8C057
:101A9000C0F4C2308CE5D80709F49CC0809197054A
:101AA0008260C330DC4509F498C08091970590911D
:101AB00098050E94EC1A0E94311580E0DF91CF91C9
:101AC0000895809197058061C630ECE5DE0709F442
:101AD00084C0809197058860C730DC4508F47DC0DC
:101AE00080919705806279C0CC308CE5D80709F4E5
:101AF00089C070F4809197058C60CA30ECE5DE07F0
:101B000009F46BC008F478C0809197058E7F65C09A
:101B1000CE308CE5D80709F479C0809197058B7F8A
:101B2000CF30DC4508F459C0809197058F7E55C0B1
:101B3000CC3FECE5DE0709F457C030F5C3318CE546
:101B4000D80709F46FC078F4C131ECE5DE0709F479
:101B500065C0C231DC4509F0A8CF0E9431158091E3
:101B600097058F773AC0C5318CE5D80709F462C074
:101B700008F476C0809198058160CB3FDC4509F080
:101B800094CF8093980591CFC115FDE5DF0709F447
:101B90004DC088F4809198058D7FCE3F9CE5D90794
:101BA00081F3809198058E7FCF3FDC4550F3809183
:101BB00098058360E6CFC230FDE5DF0709F459C020
:101BC00008F444C080E0C330DD4509F06ECF0E94C8
:101BD000711B6BCF8091970581608093970565CFCE
:101BE000809197058460F9CF809198058260C9CF74
:101BF000809197058064F1CF0E94311580919705FF
:101C00008068EBCF809197058D7FE7CF8091970516
:101C1000877FE3CF809197058F7DDFCF80919705F8
:101C20008F7BDBCF80919705837FD7CF80919805FD
:101C30008C7FA7CF8091970582FB992790F921E0AF
:101C4000922790FB82F990FB83F9C7CF809198058A
:101C5000982F909591708E7F892B90FB81F991CF71
:101C60000E94311590919705892F97FB87F980582D
:101C7000B4CF81E0ACCF81E021CFCF93DF93EB01F4
:101C800086319C4511F50E94291A9A81992399F071
:101C90008A7A91E009F490E09093C802811109C01A
:101CA00089E20E94041A0E94681A80E0DF91CF91B5
:101CB000089585E3F6CF8091C802811104C089E2BE
:101CC0000E940B1AF0CF85E3FBCF81E0EFCF10929B
:101CD000B9008CE08093B8000895EF92FF920F93C3
:101CE0001F93CF93DF93182FEB011092BC0084EA6F
:101CF0008093BC000E944D1C7C018091BC0087FF3A
:101D000027C08091B900887F883029F08091B90080
:101D1000887F8031D9F51093BB0084E88093BC00A4
:101D20000E944D1C8C018091BC0087FF24C0209133
:101D3000B900287F90E080E02831B1F081E090E0A8
:101D4000203411F490E080E09195819591090CC0C8
:101D5000CF3FDC0791F20E944D1C8E199F098C1712
:101D60009D0758F28EEF9FEFDF91CF911F910F915A
:101D7000FF90EF900895CF3FDC07A9F20E944D1C21
:101D8000801B910B8C179D0770F2ECCF8FEF9FEFAC
:101D9000EBCF0F931F93CF93DF93EB018093BB00A7
:101DA00084E88093BC000E944D1C8C018091BC0093
:101DB00087FF11C02091B900287F81E090E0283290
:101DC00011F490E080E0919581959109DF91CF9198
:101DD0001F910F910895CF3FDC0741F30E944D1CE6
:101DE000801B910B8C179D0708F38EEF9FEFEECFB2
:101DF000CF92DF92EF92FF920F931F93CF93DF93D7
:101E00006B018A017901B9010E946D0EE6010C0D8A
:101E10001D1DC017D10761F424E92093BC00DF9198
:101E2000CF911F910F91FF90EF90DF90CF90089589
:101E300097FDF2CFB70189910E94C90EEACFCF92E8
:101E4000DF92EF92FF920F931F93CF93DF93C62FF2
:101E50006A017901B8010E946D0E97FD0CC0B801AE
:101E60008C2F0E94C90EE601EC0CFD1CCE15DF057F
:101E700011F097FF0CC024E92093BC00DF91CF91B3
:101E80001F910F91FF90EF90DF90CF900895B801D0
:101E900089910E94C90EEACF84E98093BC0008951D
:101EA0008EE14A9B02C08150E1F74A9BFECF089524
:101EB0005A9880E28A95F1F75A9A0895FC013BE01E
:101EC0003A95F1F720E090E080E031E040E14A957A
:101ED000F1F7880F4A9B02C08160232742E04A95B0
:101EE000F1F7000040E14A95F1F79F5F6913EECFEB
:101EF00090E19A95F1F799B132E03A95F1F7000047
:101F000040E14A95F1F792FB992790F992272081B9
:101F1000920F90830895EF92FF920F931F93CF93A8
:101F2000DF930F92CDB7DEB719828C017C01E60EEC
:101F3000F11C0E151F0561F481E09981911180E07B
:101F40000F90DF91CF911F910F91FF90EF90089527
:101F50000E94500F68E0CE0101960E945E0FF801CA
:101F600081938F01E6CF9093CB028093CA02609356
:101F7000C902529A5A9A08959093CB028093CA024A
:101F80006093C90252985A9AEA9AE9E6F0E0808191
:101F90008F7C808308956150770B91E001C0990F89
:101FA0006A95EAF720E031E0911108C0222391F010
:101FB0005A9A80E28A95F1F75A980895492F482352
:101FC00039F05A9A232740E24A95F1F79695ECCFDB
:101FD0005A98F9CF5A98EDCFFF920F931F93CF9352
:101FE000DF93EC018C01060F111DC017D10731F4EE
:101FF000DF91CF911F910F91FF900895F9900E946A
:10200000580F68E08F2D0E94CB0FEFCF1F920F92D9
:102010000FB60F9211240F931F932F933F934F935B
:102020005F936F937F938F939F93AF93BF93EF9340
:10203000FF93CF93DF930F92CDB7DEB719820E9443
:10204000500F67E0CE0101960E945E0F082F0695A3
:1020500006950695982F92959570202F2570920FD2
:10206000292F2370969596958770920F891344C0F7
:102070008981811141C08091C9028017E8F120E176
:102080002A95F1F75A9A529A82E08A95F1F700C0A0
:10209000A8E00A9FC00111240091CA021091CB024E
:1020A000080F191F5A98F8016581662321F086816F
:1020B00097810E94EC0F0E94580FF0E1FA95F1F71A
:1020C0005A9852985A9A20E12A95F1F7D801129617
:1020D0006C911297662331F113968D919C910E9419
:1020E0008B0FD801ED91FC91882311F088E001C09D
:1020F00082E080830E94500F0F90DF91CF91FF917B
:10210000EF91BF91AF919F918F917F916F915F916F
:102110004F913F912F911F910F910F900FBE0F90F4
:102120001F901895ED91FC91E1CF0F931F93CF93E2
:10213000DF932091C902281719060CF471C08C0195
:1021400093E0000F111F9A95E1F7C091CA02D09158
:10215000CB02C00FD11FF894529A5A9825E02A95C5
:10216000F1F70000982F969595708570980F892F3C
:10217000837096959695980F092B0E94580F00C072
:1021800067E0802F0E94CB0F80E18A95F1F752988B
:102190005A9A4A9B17C087E090E04A9915C06D8112
:1021A000662321F18E819F810E948B0F81111EC0B9
:1021B000529A5A9AE881F98182E08083789482E089
:1021C00090E00DC000C0E5CF019771F4529A5A9A81
:1021D000E881F98181E08083789481E090E0DF916B
:1021E000CF911F910F91089500C0D7CF0E94500F3B
:1021F00020E22A95F1F75A98529A80E18A95F1F7F0
:102200006A81662321F08B819C810E94EC0F0E94E1
:10221000580FE881F9811082789490E080E0DFCF58
:1022200084E090E0DCCF9093D1028093D0020895B7
:10223000E091D002F091D102309721F00190F0812D
:10224000E02D099480E00895E091D002F091D10250
:10225000309721F00280F381E02D099408952091B8
:10226000CE023091CF022817390771F09093CF0238
:102270008093CE02E091D002F091D102309721F00C
:102280000680F781E02D099408952091CC023091C9
:10229000CD022817390771F09093CD028093CC02BC
:1022A000E091D002F091D102309721F00084F185C5
:1022B000E02D0994089585B7806885BF85B780684B
:1022C00085BF0895089508950C94621108950C94A3
:1022D00066110E945B110E9463110C9464110C94AE
:1022E0000509089508950E94441C0E94E80780E0B3
:1022F0000E94AF090E94A91C0C946711AF92BF9273
:10230000CF92DF92EF92FF920F931F93CF93DF93C1
:10231000CDB7DEB72A970FB6F894DEBF0FBECDBF9C
:102320000E9471110E9472110E945608B82E0E94DC
:102330006F11882309F463C083EDC82E82E0D82E84
:1023400010E000E0A02E802F0E94C507E82EF601C5
:10235000F1906F01F81609F44CC08091530381FD90
:102360000E94CB079F2D9E2580E0FF24F394292F08
:102370002F21D1F18E83AF82EF2081E009F480E03C
:1023800088870E944D1C8160782F9A8789874E81AB
:102390005F8168858A850E942112F801ED52FD4F08
:1023A0008081F826F0820E94300CB1100E94F90A58
:1023B0000E9418119091D202891791F10E94181170
:1023C0008093D2022A960FB6F894DEBF0FBECDBF1F
:1023D000DF91CF911F910F91FF90EF90DF90CF9001
:1023E000BF90AF900C94DD058F5FFF0C863009F035
:1023F000BECF0F5F1F4F0A30110509F0A3CF8FEF3B
:1024000089838A831B820E944D1C8160782F9D8363
:102410008C8349815A816B818D810E942112C3CFA7
:102420002A960FB6F894DEBF0FBECDBFDF91CF91D5
:102430001F910F91FF90EF90DF90CF90BF90AF90E2
:102440000895CF93DF93CDB7DEB72B970FB6F894EF
:10245000DEBF0FBECDBF4F83588769877A878B87D2
:102460001E821D8285E0FE013796DE0111960190E5
:102470000D928A95E1F749815A816B817C818D812A
:102480009E812B960FB6F894DEBF0FBECDBFDF91B5
:10249000CF910C949517FC01808191810C94D619F1
:1024A000CF93C82F882309F43FC08CEF8C0F813A5B
:1024B000A0F46C2F80915001909151010E94881BD3
:1024C000882329F08C2F0E940B1A0E94681A8C2FE7
:1024D0000E94041ACF910C94681A80E28C0F883005
:1024E00048F4C77081E001C0880FCA95EAF70E94DE
:1024F0002C1AF0CFEBE5EC0FE33040F4F0E0E55AB6
:10250000FD4F808190E0CF910C942F11C85AC731B4
:1025100058F4EC2FF0E0EE0FFF1FE35DFD4F8081DC
:102520009181CF910C944511CF910895882329F181
:102530009CEF980F913A20F40E940B1A0C94681AA1
:1025400090E2980F983050F4877091E001C0990F95
:102550008A95EAF7892F0E94321AF0CF9BE5980FEF
:10256000933020F490E080E00C942F11885A87314A
:1025700020F490E080E00C9445110895CF93C82F8B
:102580000E945012C93349F42FEF87EE93E0215097
:1025900080409040E1F700C000008C2FCF910C9458
:1025A0009612882321F00E942C1A0C94681A089520
:1025B000882321F00E94321A0C94681A0895BF9261
:1025C000CF92DF92EF92FF920F931F93CF93DF93FF
:1025D0006C01D62FC72FFC01058102950F70128167
:1025E00011110E94491A0E94221AE82E882391F0A4
:1025F0001123E9F08C2F807F803421F080E28D0F51
:102600008830A8F082E00E94B31A0E94221A91E05A
:10261000E82EE926BC2EB2949FE0B922FBE0FB1520
:10262000A8F1EB2DF0E0E255F94D0C947123E12C6B
:10263000F1CF0C2F0F70C07F11F00295007F112396
:10264000A9F0002359F080E28D0F883010F0D111ED
:1026500009C0802F0E942C1A0E94681A8D2F0E9498
:10266000501214C0802F0E943C1AF6CF8D2F0E946A
:102670009612002359F080E28D0F883010F0D111AE
:102680002CC0802F0E94321A0E94681A2B2D2850CD
:10269000330B2430310520F40E9418110E94DD050F
:1026A000EE2009F483C10E941E1A80FD7FC1F6014D
:1026B00012820E94181A0E94A118C6010E94F714E3
:1026C0000E94181ADF91CF911F910F91FF90EF9008
:1026D000DF90CF90BF900C94C218802F0E94421AB6
:1026E000D3CF2C2F2F70F22EC07FC03219F0F2946E
:1026F00080EFF822DD2369F0D13049F1112391F107
:10270000002351F1F601858180FFA8CF8F7085836A
:1027100023C0112381F0011106C00E944F1A8F2996
:102720000E94D112B3CF0130C1F70E944F1A8F29F6
:102730000E94551AABCF011106C00E945E1A8F2D60
:102740000E94D812A3CF013009F4A0CFF6CF1123F5
:1027500029F0063008F09ACF8F2DE2CF053008F02F
:1027600095CFEDCF002359F3D93349F4FFEF27EE8E
:1027700033E0F15020403040E1F700C000008D2FE1
:102780000E94961283CF8C2F86958695837069F070
:10279000813009F07BCF8D2F9C2F9370111102C0D7
:1027A00090E080E00E94451171CF8D2F9C2F937097
:1027B000111102C090E080E00E942F1167CF8C2F92
:1027C000837009F041C0111161CF4D2F429546959C
:1027D0004770440F440F0D2F0F7010E030E020E0E1
:1027E000042E04C0000F111F221F331F0A94D2F7BA
:1027F00060E070E0CB01D4FF0FC06FE070E080E0DC
:1028000090E004C0660F771F881F991F4A95D2F782
:102810006095709580959095C695C695C370602B10
:10282000712B822B932BC23049F058F4C13019F030
:102830000E9453182BCF0E94411828CF0E94651880
:1028400025CF0E943F1822CF8695112311F08C2F9F
:102850008170882309F41ACF4D2F42954695477011
:10286000440F440F0D2F0F7010E030E020E0042ED5
:1028700004C0000F111F221F331F0A94D2F760E01B
:1028800070E0CB01D4FF0FC06FE070E080E090E01B
:1028900004C0660F771F881F991F4A95D2F760956D
:1028A000709580959095C695C695C370602B712BD9
:1028B000822B932BC23049F058F4C13019F00E949A
:1028C0001819E4CE0E940619E1CE0E942A19DECE24
:1028D0000E947B18DBCECF70112329F08C2F0E9431
:1028E000A1188D2F1DCF8D2F0E94D8128C2F0E94E2
:1028F000C218CCCED23F89F160F4D03FC9F0D13FAD
:1029000029F1112309F442C00111A8CE8C2F8F7137
:1029100021C0D33F39F1D43FA1F7112369F1CF7121
:102920008C2F0E94A11863E08C2F0E949E1AAECEBD
:10293000112341F0053008F0A9CE8C2F8F710E9431
:10294000E518A4CE063008F0A1CEF7CF8C2F8F71FA
:10295000112369F20E94A11899CE8C2F8F71112337
:10296000C9F3C5CF112329F08C2F8F710E948C18C9
:102970008DCE0E9487188ACE81E00E94B31A023061
:1029800008F484CE82E00E94B31A80CE002359F06E
:10299000D93309F0F4CE8FEF97EEE3E08150904009
:1029A000E040E1F7EACE8C2F8F71A1CFDF91CF917C
:1029B0001F910F91FF90EF90DF90CF90BF900895FF
:1029C0000F931F93CF93DF93EC01688179818A8104
:1029D0000E94E0198C010E943C190E943E18B80127
:1029E000CE01DF91CF911F910F910C94DF12CF9305
:1029F000DF93EC018B819C81892B29F0888199815F
:102A000089238F3F59F4DF91CF910895CE010E9421
:102A1000E014CE01DF91CF910C947505CE010E9498
:102A20009A058111F3CF0E94221A882361F38A81CB
:102A3000882349F382E0DF91CF910C94B31A0E946E
:102A4000491A0E944C1A0E94681A90E080E00E9485
:102A50002F1190E080E00C9445110E94121A0C9402
:102A60001F150E94391A0C942D15E92FE295EF706D
:102A7000E250EE3070F4F0E0E654F94D0C9471231E
:102A8000803F19F020F4883E20F481E00895843FCF
:102A9000E1F380E00895883EC0F3813FD1F7F5CFA0
:102AA00093FB882780F908950E94D6190C94351558
:102AB000CF93DF9300D000D00F92CDB7DEB70F9049
:102AC0000F900F900F900F90DF91CF910895CF93BB
:102AD000DF9300D000D000D0CDB7DEB726960FB67A
:102AE000F894DEBF0FBECDBFDF91CF9108951F9345
:102AF000CF93DF93C091DE0216E08091DF028C134A
:102B000004C0DF91CF911F910895D0E01C9FF00188
:102B10001D9FF00D1124E052FD4F408151816281D3
:102B20007381848195810E9467152196C770E5CFD6
:102B3000409110035091110360911203709113039F
:102B400080911403909115030C9467151F93CF93F4
:102B5000DF9380911503807FA9F48091120388236D
:102B600089F08091DE02C091DF02609110037091C4
:102B70001103A0911303B0911403D62FD72316E0AD
:102B8000C81304C0DF91CF911F91089590E0109772
:102B900011F0DF3F19F401968770F2CF189F900172
:102BA000199F300D1124F901E052FD4F4181471367
:102BB000F2CF40814613EFCF42814111ECCF4381E8
:102BC00054814A1B5B0B4436510528F7809115034D
:102BD0008F70806180931503F901EB51FD4F808167
:102BE0008F708061808380E193E00E94F714DF9111
:102BF000CF911F910C947715AF92BF92CF92DF9235
:102C0000EF92FF920F931F93CF93DF93CDB7DEB771
:102C100061970FB6F894DEBF0FBECDBF8C0185E083
:102C2000F801DE011D9601900D928A95E1F7F801F9
:102C300040815181E28080E1C82E83E0D82E6091EE
:102C40001303709114036115710509F44FC190913C
:102C5000100320911103892F82238F3F09F446C16D
:102C6000A380B480F0901203F501E61BF70BFF2060
:102C700009F40AC180911503382F307FE436F1053D
:102C800008F0C0C0311179C0FE2C251323C0941365
:102C900021C0E1101FC08F708061809315030E94D6
:102CA0009815C6010E94F71480911503F8018583D9
:102CB0008F2D61960FB6F894DEBF0FBECDBFDF91AA
:102CC000CF911F910F91FF90EF90DF90CF90BF9029
:102CD000AF900895AB2829F0842F85238F3F09F00A
:102CE00021C180E0F82FF170DF2E80FF3CC0809181
:102CF000DE022091DF0236E0821315C04D875E8729
:102D00008D859E850E94D619292F22952F702230FD
:102D1000F0F0243018F59F70F1F0F8019581907F64
:102D2000D1F4D12C1EC090E0389FF001399FF00DF6
:102D30001124E052FD4F6181651306C06081641368
:102D400003C062816E110FC001968770D5CF9F704E
:102D500011F0882331F3805E883018F3C8010E9497
:102D6000F714FD2CA5CFEE2009F4A2CF8091150316
:102D7000816080931503F12C9BCF251314C094130D
:102D800012C0E11010C0F8018583C8010E94F71439
:102D900086E0F801A0E1B3E001900D928A95E1F799
:102DA0000E94981585CF4D875E878D859E850E94F0
:102DB0005415882319F1EE2009F180911503803212
:102DC00070F0209110033091110338872F831986FA
:102DD000BB86AA868C87CE0107960E94F71486E0F0
:102DE000F801A0E1B3E001900D928A95E1F70E940D
:102DF000A6150E949815FF24F3945ACFC8010E948B
:102E0000F714F9CF311113C07A2DB98AA88A6E2D23
:102E100089890E94581580E193E00E94F71486E0AA
:102E2000F60111928A95E9F70E949815A4CF25130F
:102E30000FC094130DC0E1100BC0F8018583C801C9
:102E40000E94F71486E0F60111928A95E9F730CFD7
:102E50004D875E878D859E850E945415882371F26B
:102E6000EE2061F280911503803208F4B8CF2091F2
:102E70001003309111033A8329831B82BD82AC82F7
:102E80008E83CE010196A9CFE436F10510F5FE2C14
:102E9000EE2009F4B3CF25130BC0941309C086E0CC
:102EA000F801A0E1B3E001900D928A95E1F700CF1F
:102EB0004D875E878D859E850E94541581118FCF29
:102EC00080911503816080931503C8010E94F71457
:102ED000EFCE7A2DB98AA88A6E2D89890E9458155D
:102EE00086E0F60111928A95E9F75ACFEE2009F4AF
:102EF00085CF4D875E878D859E850E945415F82E5F
:102F0000882309F47BCF86E0F801A0E1B3E00190CB
:102F10000D928A95E1F780E193E00E944B120E94A6
:102F2000A6153ECF81E08E25DDCE1F93CF93DF9394
:102F3000CDB7DEB72C970FB6F894DEBF0FBECDBF6E
:102F40004F83588769877A878B879C87CE0107963E
:102F50000E94FC15882369F08A859B85892B39F0AE
:102F60004F815885842F85238F3F09F071C016E06B
:102F70005FC086E0FE013796DE01119601900D924A
:102F80008A95E1F78A859B85892B89F38F819885BE
:102F900089238F3F61F32091DF0230E0C901019660
:102FA000877099274091DE024817190671F40E9434
:102FB00031151092DF021092DE0286E0E0E1F3E0CC
:102FC000DF011D928A95E9F7D2CF96E0929FD0015A
:102FD000939FB00D1124A052BD4FFE013196019078
:102FE0000D929A95E1F78093DF020E947715BFCF8B
:102FF000819FC001112480529D4F0E94FC1588239F
:10300000E9F0E091DE021E9FF0011124E052FD4F35
:103010004081518162817381848195810E9467150D
:103020008091DE0290E00196877099278093DE02FE
:103030008091DE029091DF028913DACF2C960FB6D1
:10304000F894DEBF0FBECDBFDF91CF911F910895E1
:1030500069857A858B859C850E94671588CF089540
:103060000C942F180E94301860934203709343030E
:1030700080934403909345030C941F1508950C947A
:1030800032180F931F930091420310914303209134
:10309000440330914503602B712B822B932B1F919E
:1030A0000F910C9432180F931F93009142031091CB
:1030B000430320914403309145036023712382230D
:1030C00093231F910F910C9432180F931F9300912B
:1030D000420310914303209144033091450360273C
:1030E0007127822793271F910F910C9432180C940B
:1030F0002F180C9477180E94791860933E037093F0
:103100003F0380934003909341030C941F1560E0AC
:1031100070E0CB010C947B180F931F9341E050E0BB
:1031200060E070E08A019B0104C0000F111F221FA4
:10313000331F8A95D2F7C901B8011F910F910C94E2
:103140007B180F931F9341E050E060E070E004C0F3
:10315000440F551F661F771F8A95D2F780913E0353
:1031600090913F03A0914003B09141038A019B01DC
:10317000082B192B2A2B3B2BC901B8011F910F914A
:103180000C947B180F931F9341E050E060E070E0D7
:1031900004C0440F551F661F771F8A95D2F7CB01D5
:1031A000BA01609570958095909500913E031091BD
:1031B0003F03209140033091410360237123822318
:1031C00093231F910F910C947B180F931F9341E051
:1031D00050E060E070E004C0440F551F661F771F89
:1031E0008A95D2F780913E0390913F03A0914003CE
:1031F000B09141038A019B01082719272A273B2701
:10320000C901B8011F910F910C947B180F931F9364
:1032100000913E0310913F03209140033091410300
:10322000602B712B822B932B1F910F910C947B1889
:103230000F931F9300913E0310913F032091400391
:103240003091410360237123822393231F910F91B7
:103250000C947B180F931F9300913E0310913F0332
:1032600020914003309141036027712782279327E3
:103270001F910F910C947B180895E92FEE0FE90F21
:10328000EE0F8E0F982F977041E001C0440F9A9572
:10329000EAF786958695869595E0899FF001112439
:1032A000EA5EFC4F30E020E070E05191DF011197C1
:1032B000CB01022E02C0969587950A94E2F78170A1
:1032C00081958527842385278C932F5F3F4F253059
:1032D000310559F70895E92FEE0FE90FEE0F8E0F24
:1032E000982F977086958695869525E0829FF001A8
:1032F0001124EA5EFC4F50E040E080E0219130E094
:10330000092E02C0369527950A94E2F721703327DB
:10331000042E01C0220F0A94EAF7822B4F5F5F4F01
:103320004530510559F70895BF92CF92DF92EF9241
:10333000FF920F931F93CF93DF938C01C0903E03B6
:10334000D0903F03E0904003F0904103809142030E
:1033500090914303A0914403B0914503C82AD92A10
:10336000EA2AFB2ACFE1D0E0BC2ED701C6010C2E01
:1033700004C0B695A795979587950A94D2F780FDD6
:103380000EC0219788F7B12C8B2DDF91CF911F9123
:103390000F91FF90EF90DF90CF90BF900895B8010C
:1033A0008C2F0E94F905019761F3EECFCF93DF9345
:1033B000EC010E949419BE01DF91CF910C94F905A4
:1033C0001F93CF93DF93EB019091DD02992331F0AE
:1033D000CB01DF91CF911F910C94D619882379F0FE
:1033E000CB010E949419182F682FCE010E943D191D
:1033F000BE01812FDF91CF911F910C94F905CB0174
:103400000E946B19182FF4CF682F80915001909172
:1034100051010C94BE1B682F809150019091510175
:103420000C94C01B80915001909151010C94C21BCF
:1034300080914603859585958595089580914603ED
:103440008770089590914603977081E009F480E0B9
:10345000089580915203089590915203892B80938F
:1034600052030895809590915203982390935203AC
:10347000089510925203089590915103892B8093DF
:10348000510308958095909151039823909351038F
:103490000895109251030895109250030895809159
:1034A0004703089508950C94521A90914703981772
:1034B00021F0809347030C94531A08958091470399
:1034C000882329F01092470380E00C94531A089542
:1034D000E0915001F0915101809152038083E0917D
:1034E0005001F0915101808190915103892B80838B
:1034F000E0915001F0915101808190915003892B0E
:10350000808390914703992381F0E0915001F091DD
:1035100051018081892B80838091500190915101CC
:103520000E94761B81110E945E1A80915001909139
:1035300051010C94241108950C949B1A98E0899FD2
:1035400090011124622B609346030E94A118809180
:1035500046038595859585950C949C1A1092460393
:1035600080E00C949C1A9091460380958923809367
:103570004603282F277071F4282F082E000C330BD8
:103580009217130639F08595859585950E94C21886
:103590000C94AE1A089590E080E00E943B2621E052
:1035A0008C3E9E4F09F020E0822F089582E090E04B
:1035B0000C94332683E090E00C943326CF9384E080
:1035C00090E00E943326C82F81E290E00E943326CB
:1035D000982F8C2FCF910895CF93C92F682F84E017
:1035E00090E00E9441266C2F81E290E0CF910C94F4
:1035F0004126AB01BC018FE090E00C945326AB0157
:10360000BC0183E190E00C94532660E070E0CB01B4
:103610000C94FF1A60E070E0CB010E94F91A0C9440
:10362000051B6CEE7EEF90E080E00E945F2660E07C
:1036300082E090E00E94412660E083E090E00E94FA
:1036400041261092420310924303109244031092B9
:10365000450360E084E090E00E94412660E081E262
:1036600090E00E94412660E085E090E00E944126C3
:1036700060E086E090E00E9441266FEF87E090E0F6
:103680000E94412640E050E0BA0188E090E00E94AC
:10369000532660E08DE090E00E94412640E050E03B
:1036A000BA0188E190E00E94532660E087E190E053
:1036B0000E94412640E050E0BA018CE190E00E9477
:1036C000532660E080E290E00E94412640E050E016
:1036D000BA0188E190E00E9453260C940A1B0C94D6
:1036E000111B682F8EE090E00C9441269C012E5F08
:1036F0003F4FAC01485F5F4F80E02417350709F466
:103700000895F90191919F019923B9F38F5FF5CF46
:10371000662349F0FC01329608962191261729F07C
:10372000E817F907D1F780E0089581E008959C013A
:10373000FC0132969FEF80E04191461751F09F3F88
:1037400019F4411101C0982F8F5F8630A9F79F3F70
:1037500009F40895290F311D97FD3A95F901628307
:103760000895FC01329608962191261303C0DF01CB
:1037700011971C92E817F907B9F708950C94971B55
:103780000C94B11B029626E0FC0111922A95E9F7F0
:103790000895089508950C94CA1B0E94CB1B809134
:1037A0009D05843049F11092540388E190E020E4B3
:1037B0000FB6F894A895809360000FBE2093600028
:1037C00080E00E94DD050E94CB1B83B7817F84606F
:1037D00083BF83B7816083BF7894889583B78E7FDA
:1037E00083BF0FB6F894A89580916000886180939C
:1037F0006000109260000FBE08950895CF930E945C
:10380000C91B0E9456080E94FD1BC0E08C2F0E941D
:10381000C507811105C0CF5FCA30C1F7CF910895A8
:1038200081E0FCCF08950C94121C0E9431150E9477
:1038300018110E94DD050C94131C1F921FB61F92D5
:1038400011248F939F93AF93BF9380915403811161
:1038500013C08091930590919405A0919505B09126
:1038600096054196A11DB11D8093930590939405F3
:10387000A0939505B0939605BF91AF919F918F91BD
:103880001F901FBE1F90189582E084BD93E095BDE8
:103890009AEF97BD80936E0008952FB7F8948091AA
:1038A000930590919405A0919505B09196052FBF31
:1038B00008952FB7F89460919305709194058091C5
:1038C0009505909196052FBF08959C014FB7F894E8
:1038D0008091930590919405A0919505B0919605DE
:1038E0004FBF821B930B089578941F921FB61F92AF
:1038F00011248F939F93AF93BF93809193059091E1
:103900009405A0919505B09196050196A11DB11D54
:103910008093930590939405A0939505B093960595
:10392000BF91AF919F918F911F901FBE1F901895CF
:1039300087E797E7909301088093000888E19AE071
:103940000FB6F894A895809360000FBE9093600026
:10395000FFCF0E94CB1A811102C00E946F1B0E94F0
:10396000D61A809353030E94DE1A90939805809391
:1039700097050E94DA1A682F70E090E080E00E94BC
:103980003F1860913E0370913F03809140039091F6
:1039900041030C94791880915D0308950895CF93A5
:1039A000DF9300D00F92CDB7DEB790919D05943094
:1039B00019F589837B836A8382E08093E9008FEF26
:1039C0009091E800815095FD06C095ED9A95F1F72C
:1039D00000008111F5CF8091E80085FF0DC050E017
:1039E00040E063E070E0CE0101960E94C01E80912D
:1039F000E8008E778093E8000F900F900F90DF9192
:103A0000CF910895BC0184E00C94CF1CBC0183E0ED
:103A10000C94CF1CCF93DF93EC0181E08093E900FD
:103A20008FEF9091E800815095FD06C095ED9A9535
:103A3000F1F700008111F5CF8091E80085FF14C0F7
:103A400050E040E068E070E0CE010E94C01E80912E
:103A5000E8008E778093E80088E0FE01A5E5B3E0FA
:103A600001900D928A95E1F7DF91CF9108958091B1
:103A70009C05811109C00E9450200E94AD208091B8
:103A8000E20084608093E200089510929C050895FE
:103A9000089508950C94151C42E061EC81E00E94A9
:103AA000CC1F42E261EC82E00C94CC1F80919F0518
:103AB000833009F45FC030F48130C1F1823009F401
:103AC0009BC008958A3009F487C08B3009F46DC01B
:103AD000893009F04EC080919E05813209F049C0BD
:103AE0008091A2059091A305029708F042C08091B1
:103AF000E800877F8093E8008091E80082FF35C06E
:103B00009091F3008091F200029729F48091F100E6
:103B10008B7F813021F48091F10080935D0380914F
:103B2000E8008B778093E8000C94002080919E053C
:103B3000813AF9F48091E800877F8093E8008091D2
:103B4000A2059091A305892B61F468E085E593E0D7
:103B500070E00E940F1F8091E8008B778093E8004F
:103B6000089560E090E080E0F3CF80919D058111A1
:103B7000C3CF089580919E05813AD9F78091A2051F
:103B80009091A305892BA9F78091E800877F809306
:103B9000E8008091E80080FFFCCF80915C01809379
:103BA000F1008091E8008E77BDCF80919E05813233
:103BB00001F78091A2059091A305892BD1F6809100
:103BC000E800877F8093E8000E9400208091A00594
:103BD00080935C010C94311580919E05813249F6E9
:103BE0008091E800877F8093E8000E940020809108
:103BF000A10580935E03089580919E05813A09F0A6
:103C0000B8CF8091E800877F8093E8008091E8003A
:103C100080FFFCCF80915E03C2CF84B7877F84BFD3
:103C20000FB6F894A8958091600088618093600039
:103C3000109260000FBE80E890E00FB6F894809379
:103C40006100909361000FBE0E9469110E94502094
:103C50000E94AD208091E20084608093E20078941D
:103C60000E9436230E94731182E591E00E94131195
:103C700080919D05853039F00E947E110E9471115E
:103C80000E947211F5CF0E94CD1B80919B05882365
:103C900079F30E94FE1B882359F30E94AA1EE8CFE5
:103CA0000C94521E292F33272330310519F168F463
:103CB0002130310509F444C02230310509F445C0F2
:103CC00090E080E030E020E025C02132310549F16C
:103CD00022323105A9F780E490E02DE138E061154A
:103CE0007105C1F082E390E02BEE37E061307105A1
:103CF00089F0E6CF99278130910581F0009729F06E
:103D00000297F1F6E8E7F7E002C0EAE9F7E084910C
:103D100090E09F01FA01318320830895E8E8F7E0FD
:103D2000F6CF89E090E020EB37E06115710591F363
:103D300089E090E029EC37E06130710559F3C0CF9C
:103D400082E190E029ED37E0E5CF8BE390E02EE9CA
:103D500037E0E0CF80E189BD82E189BD09B400FE92
:103D6000FDCF8091D8008F7D8093D8008091E000B6
:103D700082608093E0008091E00081FDFCCF089597
:103D8000AF92BF92CF92DF92FF920F931F93CF9388
:103D9000DF936C01EB018A010E941F20F82E811134
:103DA00023C00115110539F0F80180819181C81BEC
:103DB000D90BC80ED91EB12CA12C2097A9F0809147
:103DC000E80085FD22C08091E8008E778093E800AE
:103DD00001151105A1F0F80180819181A80EB91E8D
:103DE000B182A08285E0F82E8F2DDF91CF911F91B7
:103DF0000F91FF90DF90CF90BF90AF9008950E94F9
:103E00001F208823D1F2F82EEFCFF60181916F01A8
:103E10008093F1002197FFEFAF1ABF0ACECFFC01CC
:103E20008091A4059091A50586179707A0F06115CC
:103E3000710529F49091E8009E779093E80090E056
:103E40006115710551F4911108C08091E80082FF5D
:103E500034C080E00895BC01F2CF80919D05882395
:103E6000C1F18530C1F18091E80083FD30C08091BF
:103E7000E80082FDEACF8091E80080FFE1CF8091E9
:103E8000F3002091F200382F6115710519F02830E8
:103E9000310558F091E02830310509F090E020918B
:103EA000E8002E772093E800CBCF81918093F1003A
:103EB000615071092F5F3F4FE7CF80919D058823A7
:103EC00041F0853041F08091E80083FFBECF81E072
:103ED000089582E0089583E00895FC018091A4058F
:103EE0009091A50586179707A0F06115710529F433
:103EF0008091E8008E778093E80090E0611571056D
:103F000051F4911108C08091E80082FF35C080E033
:103F10000895BC01F2CF80919D058823C9F18530B9
:103F2000C9F18091E80083FD31C08091E80082FDF5
:103F3000EACF8091E80080FFE1CF8091F3002091EB
:103F4000F200382F6115710519F02830310558F04D
:103F500091E02830310509F090E08091E8008E77FB
:103F60008093E800CBCF84918093F100319661502B
:103F700071092F5F3F4FE6CF80919D05882341F067
:103F8000853041F08091E80083FFBDCF81E0089546
:103F900082E0089583E00895982F973028F08F707D
:103FA0008093E90081E008959093E900242F762F13
:103FB00050E0981731F07091EC002091ED00509195
:103FC000F00021FD02C09F5FE8CF3091EB003E7F03
:103FD0003093EB003091ED003D7F3093ED00309158
:103FE000EB0031603093EB007093EC002093ED0018
:103FF0005093F0002091EE0027FDE5CF80E008957A
:1040000080919E0587FF13C08091E80082FF06C063
:104010008091E8008B778093E80004C080919D0533
:104020008111F2CF089580919D058823D9F3809165
:10403000E80080FFF8CF8091E8008E77ECCF2091E8
:10404000E4003091E50095E6A9012091EC00822F73
:10405000817020FF06C08091E80080FF06C080E0EC
:1040600008952091E80022FD1AC080919D058823C3
:1040700089F0853089F08091EB0085FD0FC020919B
:10408000E4003091E50042175307F9F29150E1F650
:1040900084E0089582E0089583E0089581E0089522
:1040A0000E94BE200E94C620E0EEF0E08081816088
:1040B0008083E8EDF0E080818F77808319BCA7EDE5
:1040C000B0E08C918E7F8C9380818F7E8083109264
:1040D0009C0508950F931F93CF93DF930E94BE20FA
:1040E0000E94C620C8EDD0E088818F7788838881C0
:1040F0008068888388818F7D888319BC10929D0594
:104100001092990510929B0510929A0500EE10E00E
:10411000F80180818B7F808388818160888342E081
:1041200060E080E00E94CC1FE1EEF0E080818E7FB5
:104130008083E2EEF0E0808181608083808188600E
:104140008083F80180818E7F80838881806188836D
:10415000DF91CF911F910F910895E8EDF0E08081FC
:104160008F7E8083E7EDF0E080818160808384E052
:1041700082BF81E080939C050C946A20E8EDF0E01A
:1041800080818E7F80831092E20008951092DA0081
:104190001092E10008951F920F920FB60F92112412
:1041A0002F933F934F935F936F937F938F939F933F
:1041B000AF93BF93EF93FF938091E10082FF0BC019
:1041C0008091E20082FF07C08091E1008B7F8093A5
:1041D000E1000E9435238091DA0080FF19C08091B0
:1041E000D80080FF15C08091DA008E7F8093DA00BE
:1041F0008091D90080FF96C080E189BD82E189BDB0
:1042000009B400FEFDCF81E080939D050E94371D1B
:104210008091E10080FF19C08091E20080FF15C00D
:104220008091E2008E7F8093E2008091E2008061C5
:104230008093E2008091D80080628093D80019BCFE
:1042400085E080939D050E94491D8091E10084FFD7
:104250002BC08091E20084FF27C080E189BD82E10C
:1042600089BD89B5982F917080FFFBCF8091D800D0
:104270008F7D8093D8008091E1008F7E8093E10054
:104280008091E2008F7E8093E2008091E200816065
:104290008093E20080919905882309F449C084E065
:1042A00080939D050E944A1D8091E10083FF29C0F3
:1042B0008091E20083FF25C08091E100877F809399
:1042C000E10082E080939D05109299058091E100C4
:1042D0008E7F8093E1008091E2008E7F8093E200E8
:1042E0008091E20080618093E20042E060E080E043
:1042F0000E94CC1F8091F00088608093F0000E94A3
:10430000481DFF91EF91BF91AF919F918F917F9148
:104310006F915F914F913F912F910F900FBE0F9032
:104320001F90189519BC10929D050E94451D70CFD5
:104330008091E30087FD93E090939D05B3CF1F929A
:104340000F920FB60F9211242F933F934F935F93C9
:104350006F937F938F939F93AF93BF93CF93DF938D
:10436000EF93FF93D091E900DF708091EC00C82FAC
:10437000C17080FDC0E81092E9008091F000877F55
:104380008093F00078940E94E3211092E9008091DC
:10439000F00088608093F000CD2BCF70C093E900CF
:1043A000FF91EF91DF91CF91BF91AF919F918F914D
:1043B0007F916F915F914F913F912F910F900FBE21
:1043C0000F901F9018951F93CF93DF93CDB7DEB753
:1043D000AA970FB6F894DEBF0FBECDBF8EE995E069
:1043E0002091F100FC012193CF01F5E0863A9F076F
:1043F000B9F70E94561D8091E80083FF1EC180918D
:104400009E0590919F059A3008F017C1E92FF0E0C2
:10441000E853F94D0C947123803899F0823809F0F3
:104420000CC18091A2058F70873008F006C180937F
:10443000E9008091EB0085FB882780F91092E90064
:1044400006C080919A0590919B0591118260909190
:10445000E800977F9093E8008093F1001092F100BC
:104460008091E8008E77E5C0882309F4D3C08230BC
:1044700009F0E3C08091A0058111D6C08091A2050A
:104480008F702FEF280F263008F0D7C08093E900F7
:104490002091EB0020FFC8C0933031F48091EB00F5
:1044A00080628093EB00C0C09091EB00906190938C
:1044B000EB0021E030E001C0220F8A95EAF720935B
:1044C000EA001092EA008091EB008860EACF811147
:1044D000B4C01091A0051F778091E3008078812BF4
:1044E0008093E3008091E800877F8093E8000E943A
:1044F00000208091E80080FFFCCF8091E30080687D
:104500008093E30082E0111183E080939D0595C0C4
:104510008058823008F091C08091A0059091A1054B
:104520008C3D23E09207A1F583E08A838AE28983A8
:104530004FB7F894DE01139620E03EE051E2E32FFE
:10454000F0E050935700E49120FF03C0E295EF7034
:104550003F5FEF708E2F90E0EA30C0F0C7968D93EA
:104560009D932F5F243159F74FBF8091E800877FDB
:104570008093E8006AE270E0CE0101960E940F1F6E
:104580008091E8008B778093E80057C0C096E7CF12
:104590006091A2057091A305AE014F5F5F4F0E942D
:1045A000501EBC01892B09F448C09091E800977F08
:1045B0009093E80089819A810E946D1FE1CF803835
:1045C000E1F58091E800877F8093E800809199056C
:1045D0008093F10045CF811130C09091A0059230B9
:1045E00060F58091E800877F8093E80090939905BB
:1045F0000E94002080919905882311F084E005C075
:104600008091E30087FDFACF81E080939D050E94B1
:104610004C1D13C08091A005813079F481E0933066
:1046200009F080E080939B051092E9008091E800FA
:10463000877F8093E8000E9400208091E80083FF3C
:104640000AC08091E800877F8093E8008091EB00AA
:1046500080628093EB00AA960FB6F894DEBF0FBE7F
:10466000CDBFDF91CF911F9108950895CF93809191
:104670009D058823A1F0C091E900CF709091EC00D6
:10468000892F817090FD80E8C82B1092E9008091FD
:10469000E80083FD0E94E321CF70C093E900CF9131
:1046A0000895991B79E004C0991F961708F0961B8E
:1046B000881F7A95C9F780950895AA1BBB1B51E105
:1046C00007C0AA1FBB1FA617B70710F0A61BB70B82
:1046D000881F991F5A95A9F780959095BC01CD0127
:1046E0000895EE0FFF1F0590F491E02D0994FB0152
:1046F000DC0102C005900D9241505040D8F708955A
:10470000FB01DC0104C08D910190801921F441501E
:104710005040C8F7881B990B0895FB01DC010190FC
:104720000D920020E1F70895AEE0B0E0EAE9F3E28F
:104730000C9483260D891E898F89988D26E02C8301
:104740001A83098397FF02C080E090E801979E8357
:104750008D83AE01455E5F4F698D7A8DCE010196E6
:104760000E94C4234D815E8157FD0AC02F81388588
:10477000421753070CF49A01020F131FF80110821D
:104780002E96E4E00C949F26ABE0B0E0EAECF3E276
:104790000C9475267C013B018A01FC01178216826C
:1047A000838181FFB9C19AE0292ECE0101965C0177
:1047B000F7019381F30193FD859193FF81913F016F
:1047C000882309F446C1853239F493FD859193FF1E
:1047D00081913F01853229F4B70190E00E94A5251F
:1047E000E7CF912C412C512CFFE1F51538F08B329D
:1047F00009F188F4803201F1833221F157FC3AC08B
:1048000020ED280F2A3040F556FE1FC0929C200D47
:104810001124922E06C08D3291F0803379F768947E
:1048200050F8F30193FD859193FF81913F01811130
:10483000DBCF20C0689451F8689452F8F2CF6894A6
:1048400053F8EFCF689454F8ECCF429C200D11241C
:10485000422E689455F8E5CF8E3229F456FCF9C003
:10486000689456F8DECF8C3619F4689457F8D9CF8F
:104870008836B9F2982F9F7D95549330C0F08336D7
:10488000A1F18337C1F1833509F05BC0F801C19014
:10489000D1908F01692D70E056FC02C06FEF7FEF61
:1048A000C6010E948F254C01689457F80AC00C5F1E
:1048B0001F4F2FE3298388248394912C6501E8946A
:1048C00057F853FC04C04814190409F018F5342CA7
:1048D0008114910431F5332009F46ACFB70180E2E5
:1048E00090E00E94A5253A94F6CFF8018081898353
:1048F0000E5F1F4FE0CFF801C190D1908F01692D5D
:1049000070E056FC02C06FEF7FEFC6010E949A254F
:104910004C01D5CFB70180E290E00E94A5254A94D2
:10492000D2CFF60157FC859157FE81916F01B701F7
:1049300090E00E94A52531103A94F1E08F1A910879
:10494000C7CF843619F0893609F074C0F80157FED4
:104950006AC061917191819191918F01252D2F767E
:10496000D22E97FF09C090958095709561957F4FE5
:104970008F4F9F4F6894D7F82AE030E0A5010E943E
:10498000D525C82ECA188C2C5D2CD6FE0CC0E894F8
:1049900050F8C91440F4D4FE05C0D2FC03C0FD2D6C
:1049A000FE7E5F2E892C54FE8FC0FE01EC0DF11DA2
:1049B0008081803309F081C0252D297E522E852DDE
:1049C0008870382E53FC8FC050FE89C09C2C8414F4
:1049D00018F44C0C942C981854FE8BC0B70180E34B
:1049E00090E00E94A52552FE09C088E790E051FEA4
:1049F00002C088E590E0B7010E94A525C91408F41B
:104A000084C0CA94D12C9FEFC91AD90ACA0CDB1CE6
:104A1000F60182916F01B70190E00E94A525AC14C8
:104A2000BD04B1F758CF61917191072E000C880B2E
:104A3000990B93CFD52CE894D4F82AE030E0853751
:104A400039F1952D997FD92E8F3601F148F48835AB
:104A5000A9F0F701868197812B96E2E10C949126CB
:104A6000803749F08837A9F7D4FE02C06894D2F89D
:104A700020E130E00DC06894D4F8F6CF54FE03C0B6
:104A8000E92FE660DE2E20E132E002C028E030E0CF
:104A9000F801D7FE0DC061917191819191918F01C3
:104AA000A5010E94D525C82ECA18E894D7F86BCF67
:104AB0006191719190E080E0F2CF52FC02C083944A
:104AC0007ECF839483947BCF852D867809F477CF2E
:104AD000F6CFB70180E290E00E94A525839484146C
:104AE000C0F3312C79CF342C3818841408F474CFE7
:104AF000F8CF852D867809F481CF8BE251FE80E2D4
:104B000057FC8DE2B70190E077CFB70180E390E0EA
:104B10000E94A5259A9472CF8FEF9FEF9DCFFC0145
:104B20000590615070400110D8F7809590958E0FD8
:104B30009F1F0895FC016150704001900110D8F74B
:104B4000809590958E0F9F1F08950F931F93CF937D
:104B5000DF93182F092FEB018B8181FD09C01FEF17
:104B60000FEF812F902FDF91CF911F910F9108951B
:104B700082FF14C02E813F818C819D8128173907C7
:104B80003CF4E881F981CF010196998388831083F1
:104B90008E819F8101969F838E83E3CFE885F9857F
:104BA000812F0995892BA1F3DACFFA01AA272830A2
:104BB00051F1203181F1E8946F936E7F6E5F7F4FEA
:104BC0008F4F9F4FAF4FB1E03ED0B4E03CD0670F66
:104BD000781F891F9A1FA11D680F791F8A1F911DB9
:104BE000A11D6A0F711D811D911DA11D20D009F409
:104BF00068943F912AE0269F11243019305D31934B
:104C0000DEF6CF010895462F4770405D4193B3E033
:104C10000FD0C9F7F6CF462F4F70405D4A3318F0DA
:104C2000495D31FD4052419302D0A9F7EACFB4E08B
:104C3000A6959795879577956795BA95C9F7009743
:104C40006105710508959B01AC010A2E06945795E4
:104C5000479537952795BA95C9F7620F731F841F3B
:104C6000951FA01D0895F999FECF92BD81BDF89AB8
:104C7000992780B50895A8E1B0E042E050E00C9497
:104C80006726262FF999FECF92BD81BDF89A01972C
:104C900000B4021639F01FBA20BD0FB6F894FA9A84
:104CA000F99A0FBE08950396272F0E9442260E946C
:104CB0004126252F0E944226242F0C94422601963D
:104CC000272F0E9442260C944126DC01CB01FC01D7
:104CD000F999FECF06C0F2BDE1BDF89A319600B455
:104CE0000D9241505040B8F708952F923F924F9245
:104CF0005F926F927F928F929F92AF92BF92CF926C
:104D0000DF92EF92FF920F931F93CF93DF93CDB774
:104D1000DEB7CA1BDB0B0FB6F894DEBF0FBECDBFEC
:104D200009942A88398848885F846E847D848C84BD
:104D30009B84AA84B984C884DF80EE80FD800C81C6
:104D40001B81AA81B981CE0FD11D0FB6F894DEBFA9
:104D50000FBECDBFED010895F894FFCF19131913BD
:104D600071137113C313461346134613DF136B14E9
:104D70007A147A1440154015491549154B154915F3
:104D80004915491540154015501549154915501537
:104D90000C2234221D2334221D23672288221D2346
:044DA000DF22EB2201
:104DA400808182838485868788898A8B8C8D8E8F87
:104DB4009091929394A0A1A2A3A4A5A6A7A8A9AAFE
:104DC400ABACADAEAFB0B1B2B3B4C0C1C2C3C4C575
:104DD400C6C7C8C9CACBCCCDCECFD0D1D2D3D400CC
:104DE4000192020093020593020021007F22000336
:104DF4004803CB1C0A1DCE1C061D021D014C617903
:104E040065723A2044656661756C74004C6179651D
:104E1400723A205261697365004C617965723A2077
:104E24005375706572004C617965723A20556E64F1
:104E340065662D256C640025647825642C206B251B
:104E44003264203A202563002020202061626364BC
:104E540065666768696A6B6C6D6E6F707172737486
:104E640075767778797A3132333435363738393064
:104E740052454254202020202020203B27202C2E45
:104E84002F202020E200E900EA00B500B600B700B8
:104E9400CD008301CC008A019201940121022302F6
:104EA40024022502260227022A02B300B4006F005E
:104EB4007000818283F6F7313332366697C6343513
:104EC40000000000000008101818100800E200E9B3
:104ED40000EA00B500B600B700CD008301CC008A1B
:104EE40001920194012102230224022502260227B1
:0E4EF400022A02B300B4006F007000818283B6
:00000001FF
