:100000000C948D010C94D4010C94D4010C94FF0B2E
:100010000C94D4010C94D4010C94D4010C94D4010C
:100020000C94D4010C94D4010C94CE1C0C94A01DFF
:100030000C9466180C94D4010C94D4010C94D40143
:100040000C94D4010C94D4010C94D4010C94D401DC
:100050000C94D4010C94BF180C94D4010C94D401CA
:100060000C94D4010C94D4010C94D4010C94D401BC
:100070000C94D4010C94D4010C94D4010C94D401AC
:100080000C94D4010C94D4010C94D4010C94D4019C
:100090000C94D4010C94D4010C94D4010C94D4018C
:1000A0000C94D4010C94D4010C94D401120F120FAF
:1000B000440F440F9A109A109A109A10910F2A1018
:1000C0003B103B102E112E114011401137114011E1
:1000D000401140112E112E113C11401140113C11C4
:1000E0000D1E341E2C1F341E2C1F801EA31E2C1F01
:1000F000FA1E091F29001E001F00200021002200F7
:100100002B0014001A00080015001700E10004007D
:100110001600070009000A00E0001D001B00060091
:100120001900050000002602E200E300015135003D
:100130002A00270026002500240023003100130098
:1001400012000C0018001C00340033000F000E00D9
:100150000D000B00E50038003700360010001100DC
:1001600000002702E70002512C00280001000000D7
:1001700000000000000000002B002B0029002800D8
:10018000E0003900E100E100E300E2002D022F026F
:10019000E000E0004A004B004E004D00000001006E
:1001A000E200E300010026024C002E002D000000BA
:1001B00000003100010030002F0052002B003500FC
:1001C00028002E004F00510050003002E5001D00B5
:1001D0001B0006001900050000000100E7004C00AC
:1001E0002C0027023A003B003C003D003E003F004F
:1001F0002B002B000000BE00BD000000E100E1006C
:10020000BC00AE00BB00AD00E000E00000002A0032
:100210004C00000000000000E200E3002A0029007A
:1002200045004400430042004100400031003000DE
:100230002F005200A900A8002800E5004F0051003F
:100240005000AA00E500E5004A004B004E004D00BA
:1002500000000000010001000100000000AE00AF3E
:1002600000DA0281FFD9F1DB20A4A62EAF00A0C0E6
:1002700000A1C800AED580A81FD300408D14200077
:100280000E034C0069006C00790035003800000056
:1002900010036C0069006C00690075006D0073004C
:1002A00000000403090409022200010100A0FA0968
:1002B0000400000103010100092111010001224095
:1002C000000705810308000A120110010000000860
:1002D000D8042DEB00010102000105010906A1016E
:1002E000050719E029E71500250195087501810228
:1002F0009501750881010507190029FF150026FFE2
:1003000000950675088100050819012905950575F0
:10031000019102950175039101C011241FBECFEF19
:10032000DAE0DEBFCDBF04B603FE27C08091310402
:1003300090913204A0913304B09134048730904BF3
:10034000A740B04BD1F410923104109232041092B5
:1003500033041092340414BE84B7877F84BF0FB671
:10036000F894A89580916000886180936000109255
:1003700060000FBEE0E0F8E3099511E0A0E0B1E015
:10038000E4E5FFE302C005900D92A633B107D9F76B
:1003900024E0A6E3B1E001C01D92A133B207E1F76A
:1003A0000E94211A0C94A81F0C9400000C94DA01EE
:1003B00081E0089581E0089508950C94DC011F9375
:1003C000CF93DF9300D000D01F92CDB7DEB7498323
:1003D0005A836B833091800189819A81311114C0D5
:1003E000662359F0222349F00E94EF15182F682F39
:1003F00089819A810E94961503C00E94C215182F08
:1004000069817A81812F04C00E94EF1569817A8108
:100410000F900F900F900F900F90DF91CF911F9141
:100420000C948D02FC01262F4081518162817381E1
:1004300084810C94DF01CF93DF93EC0160E00E9494
:100440001202BE01DF91CF910C94DD010E941417BE
:10045000811102C00E94BB170C9467040C946304C2
:1004600008950E941C110E9430022FEF84E39CE04B
:10047000215080409040E1F700C000000C94E51846
:100480000F931F93CF93DF93EC0161E00E94120260
:100490008C01BE010E94D601882349F1BE01C8012A
:1004A0000E94BA08882319F1BE01C8010E940C09F4
:1004B0008823E9F0BE01C8010E94370A8823B9F0F9
:1004C0008A81882369F001158CE5180731F00F3D0A
:1004D0001C4531F40E94BB170AC00E94310207C0BC
:1004E000CE01DF91CF911F910F910C94D80180E044
:1004F000DF91CF911F910F91089508950C947D0283
:1005000081E008950C948002CF93C82F0E947E0250
:100510008C2F0E948202CF9108952CE3829FC0010C
:100520001124FC0126E0729FE00DF11D1124E60F5D
:10053000F11DEE0FFF1FEC50FF4F85919491089530
:10054000CF93DF930E948D020E947E03EC01811500
:1005500023E5920798F5811542E5940708F094C0C9
:10056000C11580E2D807C0F4C11521E0D20708F018
:10057000C1C0C53AD10548F4C430D10508F0BAC0AD
:10058000C130D10509F4B6C0B3C0CE01805E910977
:10059000089708F4AFC0ACC0C11541E5D40708F016
:1005A0006EC0C11580E5D80708F04DC0C11520E424
:1005B000D20708F49DC0DF70D06A9CC0811546E563
:1005C000940700F5C11585E5D80708F077C0C11577
:1005D00024E5D20708F06DC0CE018370992721E091
:1005E00030E002C0220F331F8A95E2F78C2F8695E8
:1005F000869540E2849FC0011124E901C82BD92BC4
:10060000DA6878C081154AE5940778F4C11589E560
:10061000D80708F05DC0C11528E5D20708F468C006
:10062000DC2FCC27C06FD06A65C0905681159042F0
:1006300008F05EC08D2F8F710E941204DD27D062FA
:100640008F71D82B57C0CE0174E0969587957A9517
:10065000E1F783709C2F937021E030E002C0220FFD
:10066000331F9A95E2F73C68382BCF70C695C69534
:1006700080E2C89FE0011124C22BD32B3BC0DC2FAA
:10068000CC27C16FD06A36C08370992721E030E053
:1006900002C0220F331F8A95E2F78C2F869586952C
:1006A00040E2849FC0011124E901C82BD92BDC68EA
:1006B00021C0DC2FCC27C46FD06A1CC08C2F0E94B5
:1006C00012048F71C82FD0E0DC2FCC27D06212C06B
:1006D0008C2F8F700E94120494E0D695C7959A953E
:1006E000E1F7CF70D0E0DC2FCC27D069C82B02C057
:1006F000C0E0D0E0CE01DF91CF910895823891051E
:1007000069F1B0F48133910509F46DC048F4893280
:10071000910509F463C08A32910509F469C008950E
:100720008533910509F455C089339105B9F00895D1
:10073000833E910569F138F4803E9105B1F0823E27
:10074000910509F10895863E9105A9F1873E91052D
:10075000B9F1843E910509F064C023C020912204C0
:1007600020FD4FC021FD4DC008958091220480FDE1
:1007700044C08091230480FF44C08091220484FD02
:1007800042C083EE4DC08091220482FF38C0F5CF75
:100790008091220482FD33C08091230480FD31C00A
:1007A000ECCF8091230481FF32C08091220484FD2C
:1007B0002AC087EE35C08091220483FF26C0F5CF82
:1007C0008091220483FD21C08091230481FD1FC0FC
:1007D000ECCF8091220485FD1CC01DC080912204B5
:1007E00085FD19C016C08091220486FD16C017C071
:1007F0008091220486FD13C010C089E311C082EEEF
:100800000FC080EE0DC080E00BC086EE09C084EE04
:1008100007C089E205C085E303C08AE201C081E325
:1008200090E008959091220492FF0DC0282F287126
:10083000283019F4877F846006C0282F2471243063
:1008400011F48B7F886093FF0DC0282F2871283109
:1008500019F4877E846106C0282F2471243111F495
:100860008B7E88612091230420FF0DC0382F3871C2
:10087000383019F4877F816006C0382F31713130EC
:1008800011F48E7F886021FF0DC0282F2871283138
:1008900019F4877E816106C0282F2171213111F45E
:1008A0008E7E886194FD877E0895E82FF0E0E45FF6
:1008B000FD4F80810895089580EA8A95F1F70895A3
:1008C00008950C9460040C9461040C9460040C94DE
:1008D0006504F894E82FE295EF70F0E031A1282F3D
:1008E0002F7081E090E001C0880F2A95EAF7982FD9
:1008F0009095932391A392A1892B82A37894089534
:1009000008950F931F93CF93DF930E94CE0580919C
:10091000000180910001811102C095E001C090E0CA
:100920009093170285E0891B8093160286E60E9449
:10093000690487E90E94690486EC0E94690484E3E3
:100940000E94690485E30E946904CDE1D1E003E2DD
:1009500011E089910E9469040C171D07D1F7E2E0AC
:10096000F2E0ACE0B2E011921D9282E0EC30F807C8
:10097000D1F785E00E9478050E942602DF91CF9191
:100980001F910F910C94D8050E94AF05882309F19F
:100990008091160290E0845F9D4F0E94EB058111CB
:1009A00014C0809136018F5F80933601863078F0D5
:1009B000E0911602F0E0E45FFD4F80E090E01192DC
:1009C000019685309105D9F702C0109236010C943A
:1009D0002E028091170290E0845F9D4F0E940806CE
:1009E0000C9480048F929F92AF92BF92CF92DF922D
:1009F000EF92FF920F931F93CF93DF9383E2A82E82
:100A000081E0B82EC2E0D2E098E2E92E91E0F92E22
:100A1000912C01E010E06501F5018081F894E82F48
:100A2000E295EF70F0E021A18F70A80102C0440FA1
:100A3000551F8A95E2F7CA01922F982B91A392A194
:100A40008095892382A378940E945C04EDE1F1E013
:100A500020E030E0812C4191A42FA295AF70B0E04E
:100A600090968C9190E04F7002C0959587954A952D
:100A7000E2F780FD07C0802F022E01C0880F0A9484
:100A8000EAF701C080E0882A2F5F3F4F263031050A
:100A900011F75FEFA51AB50AF60180810E9469047B
:100AA0008881881619F0888281E001C080E0982A48
:100AB0002196EA14FB0409F0AECF6091170270E0B2
:100AC000645F7D4F292D45E082E092E00E94790528
:100AD0000E94C404892DDF91CF911F910F91FF9047
:100AE000EF90DF90CF90BF90AF909F908F90089540
:100AF0000895FF920F931F93CF93DF938C01F62EEF
:100B0000D72FC42F222349F081E0809339010E941E
:100B10009818909338018093370180913901882388
:100B2000C1F080913701909138010E94B01806976A
:100B300080F0EF2DFD2FD8014C2F50E0CD01801B10
:100B4000910B841795071CF48D918193F7CF109228
:100B50003901DF91CF911F910F91FF9008958091FE
:100B60003A01811112C08091D80080618093D80031
:100B70008AE18A95F1F700C08091D90080FD02C01A
:100B800082E001C081E080933A0181E090913A01D6
:100B9000913009F080E008950C94AF050E94CC05D7
:100BA000809300010E94AF0581110C94DF05089528
:100BB0000E94AF05811102C00C94E505089561E023
:100BC00070E081E091E00C94AD0B61E070E081E0B9
:100BD00091E00C94B60BCF93DF93D82FC92F80E010
:100BE00090E00E948F0C892B79F4ED2FFC2F80E090
:100BF00090E0DC01A45CBE4F2C91219301968530DE
:100C00009105B9F781E001C080E0DF91CF910895AF
:100C100020E030E0FC014191CF01F901E45CFE4F9E
:100C200040832F5F3F4F25303105A1F70895EF92A4
:100C3000FF920F931F93CF93DF93EC017B0164E648
:100C400070E088E70E946E0A8C01EC0EFD1ECE1546
:100C5000DF0561F017FD0AC0FE01849164E670E0D3
:100C60000E94C50A8C012196892B89F30E94490BA9
:100C7000C801DF91CF911F910F91FF90EF900895E0
:100C80000895E8E1F2E080E092E0DF019C011D922E
:100C900021503040E1F7F0931D04E0931C048FEFE6
:100CA0009FEF909367018093660108950E9440062C
:100CB0008093620180FD02C080E801C080E28093E1
:100CC00061010E94680A6DE070E083E792E00E9493
:100CD0001706892B11F080E008958091620163E08E
:100CE00070E081FD03C080E792E002C08DE692E0F3
:100CF0000E941706892B79F76DE070E080E692E09C
:100D00000E941706892B39F70E94A418DC01CB0139
:100D1000805A9541AF4FBF4F8093180490931904A8
:100D2000A0931A04B0931B040E94410681E08093B3
:100D3000650180936401109263010895209161011F
:100D400036E0839FC0011124629F800D911D112404
:100D5000811522E0920714F080E090E0885E9D4FBC
:100D600090931D0480931C0408958091650188234D
:100D7000F9F00E94A418DC01CB01805A9541AF4FD5
:100D8000BF4F8093180490931904A0931A04B09352
:100D90001B048091640181110BC062E070E08EE55C
:100DA00092E00E941706892B19F481E08093640178
:100DB0008091640108956F927F928F929F92AF927B
:100DC000BF92CF92DF92EF92FF920F931F93CF9338
:100DD000DF9380916501882309F4DCC020916601CE
:100DE000309167012115310509F4D4C08091630168
:100DF0008111D0C061E070E0082F10E03B01082EA7
:100E000002C0660C771C0A94E2F7A901462157211B
:100E1000452B11F48F5FF0CF90916201980165E04E
:100E2000220F331F6A95E1F790FD12C08295880F5B
:100E3000807680930B01220F232F221F330B3195D5
:100E400020930E01815E80930C0110920F0112C05D
:100E500045E0369527954A95E1F7220F220F220F9C
:100E600020930B0110920E01295F20930C0183E067
:100E700080930F0124E630E047E050E069E071E044
:100E800088E70E94F50A892B09F084C080916201ED
:100E900080FD23C0A80195E0440F551F9A95E1F706
:100EA000485E5D4F04E610E020E230E060E488E751
:100EB0000E941C0B892B09F06DC00E94B506E3014E
:100EC000C095D0958091660190916701C823D92380
:100ED000D0936701C09366015DC080E2E1E4F1E078
:100EE000DF011D928A95E9F785E0000F111F8A95B1
:100EF000E1F7A1E3B1E04DE251E0992493942D9103
:100F0000EA018991AE01B801680F711D685E7D4FDD
:100F100030E02F5B3E4FF90197E07F01E21AF30AC0
:100F2000A92C01C0AA0CEA94EAF77B01B12CE701D5
:100F300089917E018A21892E8B18D82DD770CD2ECC
:100F40000D2E000CDD08C82F01C0CC0FDA95EAF792
:100F5000D194C194D108D7E0CD22DD2401C086957B
:100F6000CA94EAF78C2BD0808D298083B39488E0D3
:100F7000B812DDCF915031969F3F79F6C1E0A5338D
:100F8000BC0709F0BCCF04E610E020E230E041E409
:100F900051E08CCFDF91CF911F910F91FF90EF9097
:100FA000DF90CF90BF90AF909F908F907F906F9089
:100FB00008958091650190916401882389F09923B7
:100FC00069F062E070E08CE592E00E941706892BE0
:100FD00019F0809164010895109264019091640168
:100FE00081E08927089508950F931F9380916501EB
:100FF000882329F160E080E00E949E060E94F307AA
:101000000E94DB06809164018823C9F00E94A41825
:10101000009118041091190420911A0430911B04B6
:10102000DC01CB01801B910BA20BB30B8F3F9F4FB9
:10103000AF4FBF4720F41F910F910C94D9071F9118
:101040000F910895AF92BF92CF92DF92EF92FF92ED
:101050000F931F93CF93DF937C015B01C42FD22F9B
:10106000FC0182818823F9F040936A010E9498185C
:10107000909369018093680180E28C0F883008F0BA
:101080006EC0C77081E001C0880FCA95EAF7DF9192
:10109000CF911F910F91FF90EF90DF90CF90BF9075
:1010A000AF900C94CA0E80916A01481335C08091AC
:1010B0006801909169010E94B0186C01B701C501E7
:1010C0000E94D513C816D90638F510E21D0FCD17AA
:1010D000B9F080E28C0F883040F4C77081E001C025
:1010E000880FCA95EAF70E94D10E183058F581E0B2
:1010F0009D2F977001C0880F9A95EAF70E94CA0E3B
:10110000802F0E94B70E183050F5D77081E001C0D3
:10111000880FDA95EAF70AC080E28C0F8830F8F47D
:10112000C77081E001C0880FCA95EAF7DF91CF91BF
:101130001F910F91FF90EF90DF90CF90BF90AF90F5
:101140000C94D10E802FDF91CF911F910F91FF90C2
:10115000EF90DF90CF90BF90AF900C94B70EDF91DF
:10116000CF911F910F91FF90EF90DF90CF90BF90A4
:10117000AF9008950F939C01CB01243F4CE53407B9
:1011800031F188F4293DFCE53F07D9F02A3D4CE5D3
:10119000340779F1283D3C45A9F506E221EE41EE00
:1011A00068ED7CE52BC0263FFCE53F07E1F0A8F0A9
:1011B000273F3C4539F507E225EE46EE67EF7CE533
:1011C0001DC007E225EE45EE69ED7CE517C006E29D
:1011D00021EE40EE64EF7CE511C007E225EE44EE1F
:1011E00065EF7CE50BC006E221EE42EE66EF7CE5A2
:1011F00005C008E221E045EE6AED7CE50E94220888
:1012000080E008C0FC018281882319F010926A01F5
:1012100001C081E00F910895CF93DF93EC01FB01B2
:101220008281882309F41FC1C230FCE5DF0708F47E
:101230001BC1C6319CE5D90738F09E012B5F3C45A8
:101240002930310508F010C10E942717909323041C
:1012500080932204C031ECE5DE0709F4C3C008F036
:1012600041C0C8308CE5D80709F49AC0F0F4C43006
:10127000ECE5DE0709F487C068F4C2308CE5D807D6
:1012800009F477C0C330DC4509F0E3C08091220443
:10129000826076C0C630ECE5DE0709F46EC008F067
:1012A0007BC08091220488606BC0CC308CE5D8076D
:1012B00009F485C068F4CA30ECE5DE0709F474C0AF
:1012C00008F079C00E941C1180912204806858C0E7
:1012D000CE308CE5D80709F476C008F07FC0809145
:1012E00022048BC0CC3FECE5DE0709F44FC018F5B3
:1012F000C3318CE5D80709F47DC078F4C131ECE541
:10130000DE0709F473C0C231DC4509F0A2C00E94B7
:101310001C11809122048F7733C0C5318CE5D8072A
:1013200009F472C008F486C0CB3FDC4509F091C0D7
:10133000809123043EC0C115FDE5DF0709F45FC0BD
:1013400058F4CE3F9CE5D90709F444C008F43FC0E7
:101350008091230482602DC0C230FDE5DF0709F4CF
:1013600075C008F45DC0C330DD4509F072C080E08F
:101370006EC080912204816003C08091220480614C
:101380008093220466C08091220411C080912304BE
:101390008260809323045DC0809122048062F0CF3C
:1013A000809122048064ECCF809122048860846064
:1013B000E7CF8160EECF809122048E7FE1CF8091D4
:1013C00022048D7FDDCF80912204877FD9CF809149
:1013D000230418C0809123048D7FDBCF80912204E9
:1013E0008F7ECECF809122048F7DCACF8091220440
:1013F0008F7BC6CF80912204877F8B7FC1CF809166
:1014000023048D7F8E7FC5CF8091220482FB22270B
:1014100020F991E0922790FB82F990FB83F9B0CFFD
:1014200080912304982F909591708E7F892B90FB4B
:1014300081F9AFCF0E941C118091220487FB2227E3
:1014400020F991E0922790FB87F99ACF81E00E94E2
:10145000BD1780912204909123040E9438170E94A6
:101460001C1180E001C081E0DF91CF910895CF93FE
:10147000DF9386319C4541F5EB010E947016982F51
:101480008A812091100130911101882379F09A7A94
:1014900081E009F480E080936B01911102C069E260
:1014A00001C065E3C9010E9404180AC080916B0164
:1014B000811102C069E201C065E3C9010E940618FA
:1014C0000E94B11680E001C081E0DF91CF910895C4
:1014D0001092B9008CE08093B8000895EF92FF92CB
:1014E0000F931F93CF93DF93182FEB011092BC0043
:1014F00084EA8093BC000E9498187C018091BC0013
:1015000087FD0EC0CF3F8FEFD807C1F30E94981818
:101510008E199F098C179D0788F38EEF9FEF2EC0C1
:101520008091B900887F883041F08091B900887F30
:10153000803119F08FEF9FEF21C01093BB0084E83A
:101540008093BC000E9498188C018091BC0087FD9C
:101550000CC0CF3F8FEFD807C1F30E949818801BB3
:10156000910B8C179D0788F3D8CF8091B900887FA5
:10157000883111F08034F1F680E090E0DF91CF9176
:101580001F910F91FF90EF9008950F931F93CF93AA
:10159000DF93EB018093BB0084E88093BC000E9442
:1015A00098188C018091BC0087FD0EC0CF3F8FEF53
:1015B000D807C1F30E949818801B910B8C179D07C8
:1015C00088F38EEF9FEF0CC02091B900287F81E057
:1015D00090E0283211F480E090E091958195910996
:1015E000DF91CF911F910F910895CF92DF92EF92EB
:1015F000FF920F931F93CF93DF936B018A017901C1
:10160000B9010E946E0AE6010C0D1D1DC017D1071D
:1016100061F424E92093BC00DF91CF911F910F91D9
:10162000FF90EF90DF90CF90089597FDF2CFB70134
:1016300089910E94C50AEACFCF92DF92EF92FF9282
:101640000F931F93CF93DF93C62F6A017901B801DF
:101650000E946E0A97FD11C0B8018C2F0E94C50A26
:10166000E601EC0CFD1CCE15DF0539F097FD05C039
:10167000B80189910E94C50AF6CF24E92093BC00E5
:10168000DF91CF911F910F91FF90EF90DF90CF905E
:10169000089584E98093BC0008958EE14A9B02C0BE
:1016A0008150E1F74A9BFECF08955A9880E28A95CF
:1016B000F1F75A9A0895FC012AE02A95F1F790E093
:1016C00020E080E031E0261779F040E14A95F1F71B
:1016D000880F4A9B02C08160932700C0000040E150
:1016E0004A95F1F72F5FEFCF20E12A95F1F729B165
:1016F00000C0000030E13A95F1F722FB222720F9E3
:1017000092272081920F90830895EF92FF920F937A
:101710001F93CF93DF931F92CDB7DEB719828C0151
:101720007C01E60EF11C0E151F0559F00E944D0BB1
:1017300068E0CE0101960E945B0BF80181938F0156
:10174000F2CF81E09981911180E00F90DF91CF91EC
:101750001F910F91FF90EF90089590936E018093E9
:101760006D0160936C01529A5A9A089590936E019C
:1017700080936D0160936C0152985A9AEA9AE9E657
:10178000F0E080818F7C80830895615091E001C0FA
:10179000990F6A95EAF720E031E0992361F0492F2B
:1017A000482319F05A9A232701C05A9840E24A95D3
:1017B000F1F79695F2CF222311F05A9A01C05A9868
:1017C00080E28A95F1F75A980895FF920F931F933C
:1017D000CF93DF93EC018C01060F111DC017D107C9
:1017E00041F0F9900E94550B68E08F2D0E94C50BC7
:1017F000F5CFDF91CF911F910F91FF9008951F9228
:101800000F920FB60F9211240F931F932F933F93B4
:101810004F935F936F937F938F939F93AF93BF93F8
:10182000EF93FF93CF93DF931F92CDB7DEB719826B
:101830000E944D0B67E0CE0101960E945B0B382F92
:10184000369536953695932F96959570232F25705E
:10185000920F292F2370969596958770920F891372
:1018600048C08981811145C080916C01831708F4BB
:1018700040C080E18A95F1F75A9A529AA2E0AA955F
:10188000F1F700C000916D0110916E01B8E03B9F2F
:10189000000D111D11245A98F8016581662321F06D
:1018A000868197810E94E50B0E94550BF0E1FA9525
:1018B000F1F75A9852985A9A80E18A95F1F7D8012F
:1018C00012966C911297662369F013968D919C91F4
:1018D00014970E94850BD801ED91FC91811105C0F0
:1018E00082E004C0D801ED91FC9188E080830E94E1
:1018F0004D0B0F90DF91CF91FF91EF91BF91AF9181
:101900009F918F917F916F915F914F913F912F9117
:101910001F910F910F900FBE0F901F9018950F936E
:101920001F93CF93DF9320916C0130E02817390784
:101930000CF471C09C0193E0220F331F9A95E1F7DC
:10194000C0916D01D0916E01C20FD31FF894529ACD
:101950005A9845E04A95F1F70000982F96959570B2
:101960008570890F982F937086958695890F8901C8
:10197000082B0E94550B84E08A95F1F700C067E0C0
:10198000802F0E94C50B40E14A95F1F752985A9A70
:101990004A9902C000C0FCCF87E090E04A9B0EC08D
:1019A000019751F4529A5A9AE881F98181E0808333
:1019B000789481E090E031C000C0F0CF6D81662363
:1019C00081F08E819F810E94850B81110AC0529AFD
:1019D0005A9AE881F98182E08083789482E090E0ED
:1019E0001CC00E944D0B80E28A95F1F75A98529ADA
:1019F00040E14A95F1F76A81662321F08B819C8151
:101A00000E94E50B0E94550BE881F98110827894C1
:101A100080E090E002C084E090E0DF91CF911F91E0
:101A20000F91089590937401809373010895E0914C
:101A30007301F0917401309721F00190F081E02D55
:101A4000099480E00895E0917301F091740130975A
:101A500021F00280F381E02D099408952091710115
:101A6000309172012817390771F0909372018093B9
:101A70007101E0917301F0917401309721F00680BB
:101A8000F781E02D0994089520916F013091700144
:101A90002817390771F09093700180936F01E091DE
:101AA0007301F0917401309721F00084F185E02DED
:101AB0000994089585B7806885BF85B7806885BF1C
:101AC00008950C94AF0508950C94630D0C94630D68
:101AD0000C94660D0C94630D0C946A0D0C94630DBC
:101AE0000E945A0D0E946E0D0C946C0D0E948F186E
:101AF0000E94810480E00E9456060E94F6180C9411
:101B0000680D9F92AF92BF92CF92DF92EF92FF92B9
:101B10000F931F93CF93DF93CDB7DEB72A970FB6FE
:101B2000F894DEBF0FBECDBF0E94640D0E94630D0E
:101B30000E94F204C82E0E94610D811111C08FEF26
:101B400089838A831B820E9498188160782F9D83E5
:101B50008C8349815A816B818D810E94240E40C003
:101B600086E7A82E81E0B82E00E010E0902E802FAE
:101B70000E945504E82EF501D1905F01D82631F47A
:101B80000F5F1F4F0A30110589F7D9CF8091F601F9
:101B900081FD0E945B0480E0FF24F3949D2D9F2132
:101BA000D1F08E839F82EF2081E009F480E0888766
:101BB0000E9498188160782F9A8789874E815F816B
:101BC00068858A850E94240EF801EA58FE4F8081BC
:101BD000F826F08205C08F5FFF0C8630F9F6D0CF73
:101BE0000E94F407C1100E94B5060E94170D909143
:101BF00075018917B9F00E94170D809375012A9617
:101C00000FB6F894DEBF0FBECDBFDF91CF911F910D
:101C10000F91FF90EF90DF90CF90BF90AF909F908B
:101C20000C9484022A960FB6F894DEBF0FBECDBF87
:101C3000DF91CF911F910F91FF90EF90DF90CF90A8
:101C4000BF90AF909F900895CF93DF93CDB7DEB74D
:101C50002B970FB6F894DEBF0FBECDBF4F835887CA
:101C600069877A878B87DE01119686E0FD011192E4
:101C70008A95E9F785E0FE01379601900D928A95E5
:101C8000E1F749815A816B817C818D819E810E941F
:101C9000D8132B960FB6F894DEBF0FBECDBFDF91E1
:101CA000CF910895FC01808191810E9431160895A1
:101CB000CF93882371F1C82F8CEF8C0F813AD0F429
:101CC0006C2F80911001909111010E94CE178823F2
:101CD00049F06C2F80911001909111010E9406181B
:101CE0000E94B1166C2F80911001909111010E94F9
:101CF00004180CC080E28C0F883058F4C77081E063
:101D000001C0880FCA95EAF70E947316CF910C9410
:101D1000B116CF910895882349F1682F8CEF860F73
:101D2000813A38F480911001909111010E940618B7
:101D30000CC080E2860F883050F4677081E001C0EB
:101D4000880F6A95EAF70E9479160C94B1168BE514
:101D5000860F833020F480E090E00C942E0D685ABA
:101D6000673120F480E090E00C94440D0895CF9307
:101D7000C82F0E94580EC93349F42FEF87EE93E025
:101D8000215080409040E1F700C000008C2FCF919F
:101D90000C948B0E882321F00E9473160C94B116BC
:101DA0000895882321F00E9479160C94B1160895A5
:101DB000CF92DF92EF92FF920F931F93CF93DF9317
:101DC0007C01D62FC72FFC01158112951F7002814F
:101DD00001110E9490160E946916882399F0002331
:101DE00089F08C2F807F803421F080E28D0F883045
:101DF00048F082E00E94FB160E94691691E0D82EFE
:101E0000D92601C0D12CCC2EC2948FE0C8228C2DB3
:101E100090E08C30910508F08DC1FC01EA5AFF4F2B
:101E20000C94601F8C2F807FCF70882311F0C29597
:101E3000C07F002399F0CC2309F468C180E28D0FA4
:101E4000883010F0D11104C08C2F0E94731603C08B
:101E50008C2F0E9483160E94B11658C18D2F0E94AC
:101E60008B0ECC2309F466C180E28D0F883010F010
:101E7000D11104C08C2F0E94791603C08C2F0E94B0
:101E800089160E94B11656C18C2F807FCF70803288
:101E900011F0C295C07FDD2319F0D130C9F022C006
:101EA000002371F0112341F0113031F40E94961695
:101EB0008C2B0E949E163EC10E9496168C2B1DC034
:101EC000112319F0113009F435C10E94A71625C05D
:101ED000002321F0163008F02DC10EC0153008F097
:101EE00029C11BC0002361F0112331F0F701858166
:101EF00080FF0CC18F7085838C2F0E94CA0E1AC17F
:101F0000112359F0D93309F012C1FFEF07EE13E0A6
:101F1000F15000401040E1F708C18C2F0E94D10E13
:101F200009C18C2F837009F047C0011107C12D2F03
:101F3000229526952770220F220F6D2F6F70862F06
:101F400090E0A0E0B0E0022E04C0880F991FAA1F05
:101F5000BB1F0A94D2F7D4FF10C04FE050E060E0FE
:101F600070E004C0440F551F661F771F2A95D2F7F3
:101F7000409550956095709503C040E050E0BA01DF
:101F8000C695C695C3708A019B01082B192B2A2B75
:101F90003B2BC901B801C23049F058F4C13019F0E7
:101FA0000E94AC14CBC00E949A14C8C00E94BE14F8
:101FB000C5C00E949814C2C0002319F08C2F8170F4
:101FC00001C08695882309F4B9C02D2F2295269546
:101FD0002770220F220F6D2F6F70862F90E0A0E0E8
:101FE000B0E0022E04C0880F991FAA1FBB1F0A94DD
:101FF000D2F7D4FF10C04FE050E060E070E004C0C2
:10200000440F551F661F771F2A95D2F740955095AC
:102010006095709503C040E050E0BA01C695C69542
:10202000C3708A019B01082B192B2A2B3B2BC9015A
:10203000B801C23049F058F4C13019F00E9471154E
:102040007DC00E945F157AC00E94831577C00E94F0
:10205000D21474C0CF70002339F08C2F0E94F81472
:102060008D2F0E94CA0E6AC08D2F0E94D10E8C2F18
:102070000E94191563C0D23F01F128F4D03F41F00E
:10208000D13FA1F03FC0D33FF9F0D43F39F13AC07E
:10209000002341F0153008F04DC08C2F8F710E9445
:1020A0003E1548C0163008F045C0F7CF002339F080
:1020B0008C2F8F710E94F8143DC00023C9F38C2F20
:1020C0008F710E94191536C0002329F08C2F8F7153
:1020D0000E94E3142FC00E94DE142CC0002349F09C
:1020E000CF718C2F0E94F81463E08C2F0E94E616AB
:1020F00021C081E00E94FB161230E0F082E00E94D5
:10210000FB1618C0002331F0112391F28D2F0E948D
:10211000580E10C0112399F2D93349F41FEF27EE5E
:1021200033E0115020403040E1F700C000008D2F17
:102130000E948B0E88EF8C0D843020F40E94170DC6
:102140000E948402DD20C9F00E94651680FD15C042
:10215000F70112820E945F160E94F814C7010E94C4
:10216000DE100E945F16DF91CF911F910F91FF90BB
:10217000EF90DF90CF900C941915DF91CF911F91C4
:102180000F91FF90EF90DF90CF9008950F931F93E2
:10219000CF93DF93EC01688179818A810E943C169C
:1021A0008C010E9495150E948614B801CE010E94F0
:1021B000D80EDF91CF911F910F910895CF93DF93A8
:1021C000EC01988189812B813C81232B31F08F3F59
:1021D00031F481E09F3F19F403C081E001C080E049
:1021E00080FD19C0CE010E94400281110CC00E94E6
:1021F0006916882381F08A81882369F082E0DF9163
:10220000CF910C94FB16CE010E94C610CE01DF9137
:10221000CF910C941B02DF91CF9108950E949016EC
:102220000E9493160C94B1168091100190911101A7
:102230000E9408180C940E110E9480160C94141120
:10224000E92FE295EF704E2F50E0FA013297EE3011
:10225000F105B0F4EE59FF4F0C94601F803F91F0F0
:1022600018F4883E68F40EC0843F51F40BC0883ED9
:1022700048F0813F29F406C093FB882780F9089530
:1022800080E0089581E008950E9431160E94201197
:102290000895CF93DF9300D000D01F92CDB7DEB763
:1022A0000F900F900F900F900F90DF91CF910895A6
:1022B000CF93DF9300D000D000D0CDB7DEB7269605
:1022C0000FB6F894DEBF0FBECDBFDF91CF9108955A
:1022D0001F93CF93DF93C091810116E0809182011B
:1022E000C81799F0D0E01C9FF0011D9FF00D11243C
:1022F000ED57FE4F408151816281738184819581C8
:102300000E9458112196C770E9CFDF91CF911F919C
:1023100008954091B3015091B4016091B50170915D
:10232000B6018091B7019091B8010C9458110F93A8
:102330001F93CF93DF938091B80182958F7009F03E
:102340005DC08091B501882309F458C08091810156
:10235000109182016091B3017091B401C091B601F6
:10236000D091B70191E06F3F09F090E0292F06E08E
:10237000811709F443C0209721F07F3F21F030E01E
:1023800003C031E001C0322F90E030FD34C0089F1F
:10239000F001099FF00D1124DF01AD57BE4F1196DA
:1023A0003C911197371327C03C91361324C01296E5
:1023B0003C91129731111FC013964D915C91149767
:1023C0004C1B5D0B483C5105B0F48091B8018F70F7
:1023D00080618093B801E857FE4F80818F708061E3
:1023E000808383EB91E00E94DE10DF91CF911F91FB
:1023F0000F910C94681101968770BACFDF91CF913D
:102400001F910F9108959F92AF92BF92CF92DF924A
:10241000EF92FF920F931F93CF93DF93CDB7DEB769
:1024200061970FB6F894DEBF0FBECDBF8C0185E07B
:10243000F801DE011D9601900D928A95E1F7F801F1
:1024400040815181E2809091B3016091B40120916B
:10245000B6013091B7012115310531F06F3F31F4EC
:1024600081E09F3F19F403C081E001C080E0F82FB4
:10247000F1709F2E80FD46C1F801A380B48083EBEC
:10248000C82E81E0D82EF090B501F501E21BF30BC8
:10249000FF2009F4DFC08091B801E83CF10508F0A5
:1024A0009BC0282F207F09F052C0561313C0491338
:1024B00011C0FE2CE1100EC08F7080618093B801B6
:1024C0000E948911C6010E94DE108091B801F801B6
:1024D000858358C1AB2831F05F3F31F481E04F3F35
:1024E00019F403C081E001C080E080FD03C081E0F9
:1024F0008E2502C080E090E0F82FF170FF2E80FF63
:102500001CC0809181012091820136E0821709F47C
:1025100017C190E0389FF001399FF00D1124ED575D
:10252000FE4F6181561306C06081461303C062816D
:10253000E61203C001968770E9CFFE2CEE2009F465
:1025400021C18091B80181608093B8015AC05613AF
:1025500006C0491304C0E11002C0F8019FC04D87B6
:102560005E878D859E850E944411882379F1EE2037
:1025700069F12091B801822F82958F7090E00297C7
:1025800074F08091B3019091B40198878F8319867C
:10259000BB86AA862C87CE0107960E94DE1086E0B5
:1025A000F801A3EBB1E001900D928A95E1F70E944A
:1025B00097110E9489110DC0561729F14D875E872A
:1025C0008D859E850E94441181112CC0C8010E94F6
:1025D000DE10FF24F394D6C0282F207F69F77A2DD0
:1025E000B98AA88A6E2D89890E94491183EB91E0EE
:1025F0000E94DE1086E0F60111928A95E9F70E94AA
:102600008911F12CBFC04913D9CFE110D7CFF80100
:102610008583C8010E94DE1086E0F60111928A953A
:10262000E9F7B0C0EE2091F22091B801822F829597
:102630008F7090E002970CF4B2CF8091B30190912B
:10264000B4019A8389831B82BD82AC822E83CE0122
:102650000196A3CFE83CF10508F047C0FE2CEE2020
:1026600009F4B4CF561330C049132EC02091B801DD
:1026700020FD21C0822F82958F70482F50E0411598
:102680005105C9F0F80125834F30510541F08F5FA6
:10269000982F9295907F822F8F70892B8583C80108
:1026A0000E94DE1086E0F801A3EBB1E001900D92EC
:1026B0008A95E1F742C086E0F801A3EBB1E0019012
:1026C0000D928A95E1F75EC04D875E878D859E8568
:1026D0000E944411811163CF8091B8018160809381
:1026E000B801C8010E94DE104DC07A2DB98AA88AAF
:1026F0006E2D89890E94491186E0F60111928A9512
:10270000E9F71BC0EE2009F461CF4D875E878D8508
:102710009E850E944411F82E882309F457CF86E045
:10272000F801A3EBB1E001900D928A95E1F783EBFC
:1027300091E00E94520E0E9497110E94891122C0BE
:102740004D875E878D859E850E943116292F2295A3
:102750002F70223028F49F7039F0811105C00BC012
:10276000243028F49F7049F4805E883020F0C8013E
:102770000E94DE109F2CF92C05C0F8019581907FF6
:1027800099F7F9CF8F2D61960FB6F894DEBF0FBE83
:10279000CDBFDF91CF911F910F91FF90EF90DF9010
:1027A000CF90BF90AF909F90089588EC90E00895EF
:1027B0001F93CF93DF93CDB7DEB72C970FB6F89466
:1027C000DEBF0FBECDBF4F83588769877A878B875F
:1027D0009C87CE0107960E9403128823D1F09F8127
:1027E00088852A853B85232B31F08F3F31F481E0AA
:1027F0009F3F19F403C081E001C080E080FD47C025
:102800004F81588569857A858B859C850E945811F2
:102810003EC086E0FE013796DE01119601900D92D2
:102820008A95E1F7FF81E8856A857B8561157105E9
:1028300031F0EF3F31F481E0FF3F19F403C081E054
:1028400001C080E080FD23C02091820130E0C901F9
:102850000196877099274091810150E08417950770
:10286000F1F1F983EA837D836C8396E0929FD00136
:10287000939FB00D1124AD57BE4FFE0131960190CC
:102880000D929A95E1F7809382010E94681116E0FB
:102890008091810190918201891771F1189FC00187
:1028A00011248D579E4F0E940312882329F1E09135
:1028B00081011E9FF0011124ED57FE4F408151818F
:1028C00062817381848195810E9458118091810178
:1028D00090E001968770992780938101D9CF0E945B
:1028E0001C111092820110928101E3EBF1E086E06D
:1028F000DF011D928A95E9F72C960FB6F894DEBF9A
:102900000FBECDBFDF91CF911F9108950895089517
:102910000C9487140C9488140E948A146093E50127
:102920007093E6018093E7019093E8010C940E11F7
:102930000C948C140F931F930091E5011091E60104
:102940002091E7013091E801602B712B822B932BB2
:102950001F910F910C948C140F931F930091E5011C
:102960001091E6012091E7013091E8016023712385
:10297000822393231F910F910C948C140F931F9318
:102980000091E5011091E6012091E7013091E80105
:1029900060277127822793271F910F910C948C1425
:1029A0000C9487140E94D0146093E1017093E201AB
:1029B0008093E3019093E4010C940E1160E070E0C9
:1029C000CB010C94D2140F931F9341E050E060E0D0
:1029D00070E08A019B0104C0000F111F221F331FEA
:1029E0008A95D2F7C901B8011F910F910C94D214A6
:1029F0000F931F9341E050E060E070E004C0440F8B
:102A0000551F661F771F8A95D2F78091E10190913B
:102A1000E201A091E301B091E4018A019B01082B3E
:102A2000192B2A2B3B2BC901B8011F910F910C9434
:102A3000D2140F931F9341E050E060E070E004C0B7
:102A4000440F551F661F771F8A95D2F74095509502
:102A5000609570958091E1019091E201A091E30170
:102A6000B091E4018A019B01082319232A233B2307
:102A7000C901B8011F910F910C94D2140F931F93A9
:102A800041E050E060E070E004C0440F551F661F55
:102A9000771F8A95D2F78091E1019091E201A09190
:102AA000E301B091E4018A019B01082719272A2735
:102AB0003B27C901B8011F910F910C94D2140F93B9
:102AC0001F930091E1011091E2012091E301309107
:102AD000E401602B712B822B932B1F910F910C948F
:102AE000D2140F931F930091E1011091E201209104
:102AF000E3013091E40160237123822393231F912A
:102B00000F910C94D2140F931F930091E101109137
:102B1000E2012091E3013091E401602771278227CF
:102B200093271F910F910C94D2140895292F220FEF
:102B3000920F990F890FE82FE695E695E695877035
:102B400051E001C0550F8A95EAF785E0E89FF00152
:102B50001124E754FE4F20E030E070E04081CB01CB
:102B6000022E02C0969587950A94E2F781708195AE
:102B700084278523842781932F5F3F4F253031059C
:102B800069F70895292F220F920F990F890F682F47
:102B9000669566956695982F977085E0689FB00159
:102BA000112440E050E080E0FB01E40FF51FE75402
:102BB000FE4F208130E0092E02C0369527950A94F9
:102BC000E2F721703327042E01C0220F0A94EAF79E
:102BD000822B4F5F5F4F4530510531F70895BF920B
:102BE000CF92DF92EF92FF920F931F93CF93DF93D9
:102BF0008C01C090E101D090E201E090E301F090FF
:102C0000E4018091E5019091E601A091E701B09186
:102C1000E801C82AD92AEA2AFB2ACFE1D0E0D70165
:102C2000C6010C2E04C0B695A795979587950A9472
:102C3000D2F780FD04C0219790F7B12C07C0BC2EBD
:102C4000B8018C2F0E94A0020197A9F38B2DDF9170
:102C5000CF911F910F91FF90EF90DF90CF90BF9099
:102C60000895CF93DF93EC010E94EF15BE010E94FF
:102C7000A002DF91CF9108951F93CF93DF93EB01D3
:102C800090918001992321F0CB010E94311613C04D
:102C9000882349F0CB010E94EF15182F682FCE0131
:102CA0000E94961504C0CB010E94C215182FBE01C8
:102CB000812F0E94A002DF91CF911F9108958091F2
:102CC000E90185958595859508958091E90187703D
:102CD00008959091E901977081E009F480E00895EA
:102CE0008091F50108959091F501892B8093F5016C
:102CF000089580959091F50189238093F5010895B9
:102D00001092F50108959091F401892B8093F401BC
:102D1000089580959091F40189238093F40108959A
:102D20001092F40108951092F30108958091EA0140
:102D3000089508950C9499160C949A169091EA01AE
:102D4000981721F08093EA010C949C1608958091C5
:102D5000EA01882329F01092EA0180E00C949C1685
:102D60000895E0911001F09111018091F5018083A7
:102D7000E0911001F091110190818091F401892B73
:102D80008083E0911001F091110190818091F30115
:102D9000892B80838091EA01882381F0E0911001E2
:102DA000F09111019081892B808380911001909185
:102DB00011010E94C21781110E94A7168091100173
:102DC000909111010C94230D0C94991698E0899F11
:102DD00090011124262B2093E9010E94F814809180
:102DE000E9018595859585950C94E4161092E90185
:102DF00080E00C94E4162091E90180958223809371
:102E0000E901982F977079F430E0482F082E000CD4
:102E1000550B2417350739F08595859585950E94C2
:102E200019150C94F616089580E090E00E946E1F2C
:102E300021E08C3E9E4F09F020E0822F089582E031
:102E400090E00C94661F83E090E00C94661FCF9393
:102E500084E090E00E94661FC82F81E290E00E940B
:102E6000661F2C2F30E0A901582BCA01CF9108957D
:102E7000CF93C92F682F84E090E00E94741F6C2FBD
:102E800081E290E0CF910C94741FAB01BC018FE004
:102E900090E00C94861FAB01BC0183E190E00C94A0
:102EA000861F60E070E0CB010C944B1760E070E08F
:102EB000CB010E9445170C9451176CEE7EEF80E019
:102EC00090E00E94921F60E082E090E00E94741FF8
:102ED00060E083E090E00E94741F1092E501109280
:102EE000E6011092E7011092E80160E084E090E0D2
:102EF0000E94741F60E081E290E00E94741F60E015
:102F000085E090E00E94741F60E086E090E00E94FF
:102F1000741F6FEF87E090E00E94741F40E050E064
:102F2000BA0188E090E00E94861F60E08DE090E0AA
:102F30000E94741F40E050E0BA0188E190E00E94D6
:102F4000861F60E087E190E00E94741F40E050E03F
:102F5000BA018CE190E00E94861F60E080E290E080
:102F60000E94741F40E050E0BA0188E190E00E94A6
:102F7000861F0C9456170C945D17682F8EE090E016
:102F80000C94741FFC01329697E080E0915029F078
:102F900021912223D9F38F5FF9CF0895662349F059
:102FA000FC01329608962191621729F0E817F9077B
:102FB000D1F780E0089581E008959C01FC013296EC
:102FC0009FEF80E04191461789F09F3F19F441112E
:102FD00001C0982F8F5F8630A9F79F3F39F0F90124
:102FE000E90FF11D97FDFA956283089508959C01FC
:102FF0002A5F3F4FFC014281461301C012820196B5
:1030000082179307B9F708950C94DD170C94F717FE
:10301000029626E0FC0111922A95E9F70895089599
:103020000C940F180C940F18CF930E9412180E9442
:10303000F2040E941018C0E08C2F0E9455048111E8
:1030400004C0CF5FCA30C1F701C081E0CF910895BD
:103050000C940F180C9428180E942A1880912804A8
:10306000843049F11092F70120E488E190E00FB636
:10307000F894A895809360000FBE2093600080E0D4
:103080000E9484020E942A1883B7817F846083BFD4
:1030900083B7816083BF7894889583B78E7F83BF21
:1030A0000FB6F894A89580916000886180936000C5
:1030B000109260000FBE08950C940F180E941C110E
:1030C0000E94170D0E9484020C945C181F920F92AC
:1030D0000FB60F9211248F939F93AF93BF9380915C
:1030E000F701811113C080911E0490911F04A091DB
:1030F0002004B09121044196A11DB11D80931E04AE
:1031000090931F04A0932004B0932104BF91AF912A
:103110009F918F910F900FBE0F901F90189582E096
:1031200084BD93E095BD9AEF97BD80936E0008959E
:103130002FB7F89480911E0490911F04A091200451
:10314000B09121042FBF08952FB7F89460911E0409
:1031500070911F0480912004909121042FBF089545
:103160009C014FB7F89480911E0490911F04A09188
:103170002004B09121044FBF821B930B08957894D3
:103180001F920F920FB60F9211248F939F93AF93BC
:10319000BF9380911E0490911F04A0912004B091D0
:1031A00021040196A11DB11D80931E0490931F045C
:1031B000A0932004B0932104BF91AF919F918F9170
:1031C0000F900FBE0F901F90189587E797E7909389
:1031D0000108809300089AE088E10FB6F894A8955A
:1031E000809360000FBE90936000FFCF0E94141781
:1031F000811102C00E94BB170E941F178093F60125
:103200000E94271790932304809322040E9423177F
:10321000682F70E080E090E00E9498146091E101D6
:103220007091E2018091E3019091E4010C94D0143B
:1032300080910002089508950895CF93DF9321E0CF
:103240002093E9002FEF3091E800215035FD06C0B2
:1032500035ED3A95F1F700002111F5CF2091E80006
:1032600025FF14C0EC0140E050E068E070E00E94EF
:10327000C21A8091E8008E778093E80088E0FE0112
:10328000A8EFB1E001900D928A95E1F7DF91CF911F
:103290000895089580912704811109C00E94531C4C
:1032A0000E94B01C8091E20084608093E200089547
:1032B000109227040895089508950C945E1842E032
:1032C00061EC81E00C94CC1B80912A04833009F4DA
:1032D00060C030F4813071F0823009F499C00895F3
:1032E0008A3009F485C08B3009F46BC0893009F04D
:1032F000A7C020C080912904813A09F0A1C0809123
:10330000E800877F8093E80080912D0490912E043F
:10331000892B21F468E088EF91E003C060E080E051
:1033200090E070E00E940D1B8091E8008B77809305
:10333000E800089580912904813209F081C08091CC
:103340002D0490912E04892B09F07AC08091E80019
:10335000877F8093E8008091E80082FD05C080911E
:1033600028048111F8CF6CC02091F3008091F20005
:1033700090E0922B029729F48091F1008B7F8130AD
:1033800021F48091F100809300028091E8008B7716
:1033900053C080912904813A09F052C080912D04D4
:1033A00090912E04892B09F04BC08091E800877F13
:1033B0008093E8008091E80080FFFCCF80911C01A1
:1033C00036C0809129048132D9F580912D049091E5
:1033D0002E04892BA9F58091E800877F8093E8006F
:1033E0000E94011C80912B0480931C010C941C11E1
:1033F00080912904813221F58091E800877F8093B4
:10340000E8000E94011C80912C0480930102089521
:1034100080912904813AA1F48091E800877F80930C
:10342000E8008091E80080FFFCCF8091010280934A
:10343000F1008091E8008E778093E8000C94011CE5
:10344000089584B7877F84BF0FB6F894A8958091BC
:103450006000886180936000109260000FBE90E071
:1034600080E80FB6F89480936100909361000FBEDE
:103470000E94700D0E94531C0E94B01C8091E200BB
:1034800084608093E20078940E94451F0E94760D2C
:1034900082E191E00E94120D80912804853069F448
:1034A0000E942C18809126048823B1F30E941418DE
:1034B000882391F30E94AC1AEFCF0E94810D0E94E5
:1034C000640D0E94630DE8CF0C94661A292F3327F0
:1034D00023303105C1F058F42130310579F0223024
:1034E000310591F582E290E026EA32E031C02132E6
:1034F0003105E1F02232310501F126C082E190E090
:1035000028EC32E025C099278130910549F028F058
:103510000297D1F4E0E8F2E005C0E2EAF2E002C08E
:10352000E0E9F2E0849190E09F0112C0672B61F422
:1035300089E090E028EB32E00BC0672B29F480E4AF
:1035400090E02AED32E004C080E090E020E030E03E
:10355000FA0131832083089580E189BD82E189BD2C
:1035600009B400FEFDCF8091D8008F7D8093D800F4
:103570008091E00082608093E0008091E00081FD16
:10358000FCCF0895CF92DF92EF92FF920F931F939B
:10359000CF93DF93EC018B017A010E94201C8111F3
:1035A00033C0E114F10439F0F70180819181081BE7
:1035B000190BC80FD91FC12CD12C0115110519F1F8
:1035C0008091E80085FD16C08091E8008E77809399
:1035D000E800E114F10449F0F70180819181C80EFF
:1035E000D91ED182C08285E00FC00E94201C882392
:1035F00021F30AC089918093F10001501109FFEF76
:10360000CF1ADF0ADACF80E0DF91CF911F910F91BF
:10361000FF90EF90DF90CF90089520912F0430918C
:1036200030042617370748F06115710539F42091E9
:10363000E8002E772093E80001C0B901FC0120E0EA
:103640006115710579F1809128048823F1F18530A5
:10365000F1F18091E80083FD3CC08091E80082FD9B
:103660002EC08091E80080FFEBCF2091F300809185
:10367000F20090E0922B6115710551F088309105B0
:1036800038F421912093F100615071090196F3CF34
:1036900021E0089709F020E08091E8008E77809380
:1036A000E800CECF2111CFCF0AC080912804882313
:1036B00061F0853061F08091E80083FD0AC080915F
:1036C000E80082FFF2CF80E0089582E0089583E071
:1036D000089581E0089520912F0430913004261739
:1036E000370748F06115710539F42091E8002E770D
:1036F0002093E80001C0B901FC0120E061157105CB
:1037000091F180912804882309F440C0853009F4A0
:103710003FC08091E80083FD3DC08091E80082FDBC
:103720002FC08091E80080FFE9CF2091F3008091C5
:10373000F20090E0922B6115710559F088309105E7
:1037400040F424912093F100319661507109019663
:10375000F2CF21E0089709F020E08091E8008E7711
:103760008093E800CBCF2111CCCF0AC080912804F0
:10377000882361F0853061F08091E80083FD0AC004
:103780008091E80082FFF2CF80E0089582E0089502
:1037900083E0089581E00895982F973068F590931D
:1037A000E900981739F07091EC002091ED005091EC
:1037B000F00003C0242F762F50E021FD02C09F5F50
:1037C000ECCF3091EB003E7F3093EB003091ED0079
:1037D0003D7F3093ED003091EB0031603093EB0092
:1037E0007093EC002093ED005093F0002091EE00D8
:1037F00027FDE5CF80E008958F708093E90081E098
:1038000008958091290487FF11C08091E80082FD0E
:1038100005C0809128048111F8CF11C08091E80083
:103820008B770BC080912804882349F08091E800B1
:1038300080FFF8CF8091E8008E778093E8000895AC
:103840002091E4003091E50095E64091EC00842F52
:10385000817040FF23C08091E80080FD1DC08091F1
:103860002804882399F0853099F08091EB0085FD3C
:1038700011C04091E4005091E5002417350729F369
:10388000915011F09A01E1CF84E0089582E008950B
:1038900083E0089581E0089580E008954091E80074
:1038A00042FFDDCF08950E94C11C0E94C91CE0EEBA
:1038B000F0E0808181608083E8EDF0E080818F77A7
:1038C000808319BCA7EDB0E08C918E7F8C938081B2
:1038D0008F7E80831092270408950F931F93CF93B8
:1038E000DF930E94C11C0E94C91CC8EDD0E08881F2
:1038F0008F77888388818068888388818F7D88839B
:1039000019BC1092280410922404109226041092DC
:10391000250400EE10E0F80180818B7F8083888190
:103920008160888342E060E080E00E94CC1BE1EE91
:10393000F0E080818E7F8083E2EEF0E08081816024
:103940008083808188608083F80180818E7F80837E
:10395000888180618883DF91CF911F910F910895B5
:10396000E8EDF0E080818F7E8083E7EDF0E08081FC
:103970008160808384E082BF81E0809327040C947F
:103980006D1CE8EDF0E080818E7F80831092E20074
:1039900008951092DA001092E10008951F920F929C
:1039A0000FB60F9211242F933F934F935F936F9312
:1039B0007F938F939F93AF93BF93EF93FF938091E8
:1039C000E10082FF0BC08091E20082FF07C080917E
:1039D000E1008B7F8093E1000E94441F8091DA0018
:1039E00080FF1FC08091D80080FF1BC08091DA004B
:1039F0008E7F8093DA008091D90080FF0DC080E136
:103A000089BD82E189BD09B400FEFDCF81E08093CC
:103A100028040E944A1905C019BC109228040E946B
:103A200058198091E10080FF19C08091E20080FF69
:103A300015C08091E2008E7F8093E2008091E200C9
:103A400080618093E2008091D80080628093D800EA
:103A500019BC85E0809328040E945C198091E100E4
:103A600084FF30C08091E20084FF2CC080E189BDDA
:103A700082E189BD09B400FEFDCF8091D8008F7D21
:103A80008093D8008091E1008F7E8093E100809147
:103A9000E2008F7E8093E2008091E200816080935B
:103AA000E20080912404882311F084E007C0809113
:103AB000E30087FD02C081E001C083E08093280419
:103AC0000E945D198091E10083FF29C08091E2008E
:103AD00083FF25C08091E100877F8093E10082E031
:103AE00080932804109224048091E1008E7F8093BB
:103AF000E1008091E2008E7F8093E2008091E200FD
:103B000080618093E20042E060E080E00E94CC1B94
:103B10008091F00088608093F0000E945B19FF9113
:103B2000EF91BF91AF919F918F917F916F915F9135
:103B30004F913F912F910F900FBE0F901F901895AE
:103B40001F920F920FB60F9211242F933F934F9312
:103B50005F936F937F938F939F93AF93BF93CF9315
:103B6000DF93EF93FF93C091E900CF708091EC0059
:103B7000D82FD17080FDD0E81092E9008091F0003C
:103B8000877F8093F00078940E94E41D1092E900F2
:103B90008091F00088608093F000CD2BCF70C093AF
:103BA000E900FF91EF91DF91CF91BF91AF919F918C
:103BB0008F917F916F915F914F913F912F910F90D6
:103BC0000FBE0F901F9018951F93CF93DF93CDB723
:103BD000DEB7AA970FB6F894DEBF0FBECDBFE9E2FD
:103BE000F4E08091F100819324E0E133F207C9F71A
:103BF0000E9464198091E80083FF2EC180912904FE
:103C000090912A04492F50E04A30510508F024C110
:103C1000FA01E059FF4F0C94601F803821F0823880
:103C200009F01AC108C080912504909126049923B7
:103C300089F082600FC080912D048F70873008F06A
:103C40000BC18093E9008091EB0085FB882780F908
:103C50001092E9009091E800977F9093E80080939C
:103C6000F1001092F100D1C0282F2D7F09F0F4C08F
:103C7000882319F0823061F0EFC080912B048130ED
:103C800009F0EAC0933009F080E0809326042EC04A
:103C900080912B0481112AC080912D048F702FEF09
:103CA000280F263008F0D8C08093E9002091EB005F
:103CB00020FF1CC0933021F48091EB00806214C07F
:103CC0009091EB0090619093EB0021E030E0A9012E
:103CD00002C0440F551F8A95E2F74093EA00109204
:103CE000EA008091EB0088608093EB001092E9007D
:103CF0008091E800877F8093E8000E94011CACC09F
:103D00008111AAC010912B041F778091E300807865
:103D1000812B8093E3008091E800877F8093E80007
:103D20000E94011C8091E80080FFFCCF8091E3009D
:103D300080688093E300111102C082E001C083E03B
:103D40008093280489C08058823008F085C0809113
:103D50002B0490912C048C3D53E0950779F583E07A
:103D60008A838AE289834FB7F894DE01139620E0B4
:103D70003EE051E2E32FF0E050935700E49120FF42
:103D800003C0E295EF703F5FEF708E2F90E0EA3056
:103D900010F0C79601C0C0968D939D932F5F24317C
:103DA00049F74FBF8091E800877F8093E8006AE27F
:103DB00070E0CE0101960E940D1B16C060912D048B
:103DC00070912E04AE014F5F5F4F0E94641ABC01D8
:103DD000892B09F441C09091E800977F9093E80007
:103DE00089819A810E946B1B8091E8008B77809378
:103DF000E80032C0803881F58091E800877F8093A9
:103E0000E800809124048093F1008091E8008E778F
:103E100072CF811121C080912B0490912C0499279D
:103E20000297D4F48091E800877F8093E800809126
:103E30002B04809324040E94011C8091240481118E
:103E400006C08091E30087FD02C081E001C084E0EC
:103E5000809328040E945F198091E80083FF0AC0C4
:103E60008091E800877F8093E8008091EB0080627A
:103E70008093EB00AA960FB6F894DEBF0FBECDBFBD
:103E8000DF91CF911F9108950895CF9380912804D9
:103E90008823A1F0C091E900CF709091EC00892FA8
:103EA000817090FD80E8C82B1092E9008091E800B5
:103EB00083FD0E94E41DCF70C093E900CF91089567
:103EC000EE0FFF1F0590F491E02D0994F999FECFB4
:103ED00092BD81BDF89A992780B50895A8E1B0E018
:103EE00042E050E00C949A1F262FF999FECF92BD24
:103EF00081BDF89A019700B4021639F01FBA20BDAF
:103F00000FB6F894FA9AF99A0FBE08950396272FE0
:103F10000E94751F0E94741F252F0E94751F242F59
:103F20000C94751F0196272F0E94751F0C94741F07
:103F3000DC01CB01FC01F999FECF06C0F2BDE1BD69
:103F4000F89A319600B40D9241505040B8F7089558
:043F5000F894FFCF13
:103F5400013B01003C01053C010021007F220003DC
:103F6400EB0118191D191B1949191C1901F6F73110
:103F74003332366697C6343500000000000008105E
:063F8400181810080000EF
:00000001FF
