:100000000C942F040C9476040C9476040C94A70F93
:100010000C9476040C9476040C9476040C94760478
:100020000C9476040C9476040C946C200C9440216F
:100030000C94BE1B0C9476040C9476040C947604F9
:100040000C9476040C9476040C9476040C94760448
:100050000C9476040C94151C0C9476040C94760481
:100060000C9476040C9476040C9476040C94760428
:100070000C9476040C9476040C9476040C94760418
:100080000C9476040C9476040C9476040C94760408
:100090000C9476040C9476040C9476040C947604F8
:1000A0000C9476040C9476040C94760429001E00BB
:1000B0001F002000210022002B0014001A0008005D
:1000C00015001700E10004001600070009000A00EF
:1000D000E0001D001B0006001900050000002F00B5
:1000E000E200E300015135002A0027002600250028
:1000F000240023003100130012000C0018001C0023
:10010000340033000F000E000D000B00E500380036
:10011000370036001000110000003000E7000251E7
:100120002C0028000100000000000000000000007A
:100130002B002B0029002800E0002F02E100E10045
:10014000E300E2002D022602E000E0004A004B003E
:100150004E004D0000000100E200E3000100390004
:100160002A002E002D002A00350031000100300049
:100170002F0052002B00300228002E004F005100AB
:1001800050002702E5001D001B00060019000500B5
:1001900000000100E7004C002C0031003A003B0059
:1001A0003C003D003E003F002B002B0000002F00D4
:1001B00030003900E100E1004C0026022702350042
:1001C000E000E000BC00AE00BB00AD00000000009D
:1001D000E200E3002A00BE00450044004300420064
:1001E00041004000390030002F005200A900A80053
:1001F0002800E5004F0051005000AA00E500E5008E
:100200004A004B004E004D000000000001000100BC
:100210000100BD0000AE00AF00DA0281FFD9F1DBC2
:1002200020A4A62EAF00A0C000A1C800AED580A813
:100230001FD300408D1420000000000000003E5B32
:100240004F5B3E003E6B4F6B3E001C3E7C3E1C00F5
:10025000183C7E3C18001C577D571C001C5E7F5EBE
:100260001C0000183C180000FFE7C3E7FF0000185F
:1002700024180000FFE7DBE7FF0030483A060E00D5
:10028000262979292600407F05050700407F05259E
:100290003F005A3CE73C5A007F3E1C1C0800081CEB
:1002A0001C3E7F0014227F2214005F5F005F5F000E
:1002B00006097F017F00006689956A0060606060C2
:1002C000600094A2FFA2940008047E04080010209D
:1002D0007E20100008082A1C0800081C2A080800B4
:1002E0001E10101010000C1E0C1E0C0030383E3872
:1002F0003000060E3E0E0600000000000000000068
:100300005F000000000700070000147F147F140046
:10031000242A7F2A120023130864620036495620DB
:100320005000000807030000001C224100000041AB
:10033000221C00002A1C7F1C2A0008083E08080016
:1003400000807030000008080808080000006060A5
:1003500000002010080402003E5149453E000042C2
:100360007F4000007249494946002141494D330010
:100370001814127F10002745454539003C4A494969
:1003800031004121110907003649494936004649E3
:1003900049291E0000001400000000403400000045
:1003A00000081422410014141414140000412214F3
:1003B00008000201590906003E415D594E007C12B9
:1003C00011127C007F49494936003E4141412200DB
:1003D0007F4141413E007F49494941007F09090968
:1003E00001003E41415173007F0808087F00004131
:1003F0007F4100002040413F01007F08142241005E
:100400007F40404040007F021C027F007F040810B4
:100410007F003E4141413E007F09090906003E41FF
:1004200051215E007F0919294600264949493200B9
:1004300003017F0103003F4040403F001F20402058
:100440001F003F4038403F0063140814630003045A
:10045000780403006159494D4300007F4141410048
:10046000020408102000004141417F000402010203
:1004700004004040404040000003070800002054B2
:10048000547840007F2844443800384444442800CD
:10049000384444287F0038545454180000087E091A
:1004A00002001824241C78007F080404780000440B
:1004B0007D4000002040403D00007F1028440000A7
:1004C00000417F4000007C04780478007C0804042C
:1004D00078003844444438007C1824241800182438
:1004E00024187C007C080404080048545454240058
:1004F00004043F4424003C4040207C001C20402059
:100500001C003C4030403C004428102844004C90E3
:1005100090907C004464544C440000083641000034
:1005200000007700000000413608000002010204CC
:1005300002003C2623263C00000000000080808052
:1005400080000000000080E070180C1830E080008F
:100550000010F8901030783010B8FC38100000000F
:10056000000000F8FCF8000000000000000000009F
:100570000000001C9C1C00000000F8FCF8000000BB
:100580000000001CFCF8C000000000000080E0F843
:100590007C1C000000F0FCFCFC1C1C1C1C1C1C1C1B
:1005A0001C000000000000C0F0F8381C1C1C1C1CC3
:1005B0001C3CF8F0E000E0F0F0F0E0ECEEF7F37057
:1005C00020007C7C7C7E007E7E7E7F7F7F000080A2
:1005D000C0E07E5B4F5BFEC00000C000DCD7DEDE0B
:1005E000DED7DC00C00000000000000000000000BA
:1005F000000000000000000000000000000FBCE050
:10060000818181838382870C183060C000001FFEC7
:1006100090B9FFBB91983C1811133F1100000000E6
:10062000000000FFFFFF00000000000000000000CD
:10063000000000FFFFFF00000000FFFFFF000000C0
:100640000000000000030F7FF8E080F0FC3F0F0186
:1006500000000000003F3F3F1C1C1C1C1C3C78F8A5
:10066000F0E08000000000C3E7FF7E3C387878703F
:1006700070F8FFDF87000F1F3F7F7F7F7F7F3F1E68
:100680000C001F1F1F3F003F3F3F7F7F7F00307BDD
:100690007F7830202030787F3B0003000F7F0F0FE2
:1006A0000F7F0F00030000000000000000000000AA
:1006B0000000000000000000183C24666341C18176
:1006C00080808080808081C14162386C4CC681818D
:1006D000808080808081C14362361C180000000049
:1006E000000000FFFFFFC0C0C0C0C0C0C0C0C080CD
:1006F0000000007FFF7F000000007FFFFFC0800040
:100700000000E0E0C0C0C0E0F97F1F07000000006B
:10071000000000000070F0E0E0C0C0C0C0E0F0F8F1
:100720007F3F0F0000000F3F7FF9E0E0C0C0C0C076
:10073000C0E0F97F3F1F0000000000000000000043
:1007400000000000000000000000000000000000A9
:100750000000000000000000000000000000000099
:100760000000000000000000000000000000000089
:1007700000000000000000000E034C0069006C0047
:10078000790035003800000010036C0069006C002F
:10079000690075006D00730000000403090409027C
:1007A0003B00020100A0FA0904000001030101005E
:1007B0000921110100012240000705810308000AF8
:1007C00009040100010300000009211101000122B8
:1007D00032000705820320000A1201100100000008
:1007E00008D8042DEB00010102000105010980A1D8
:1007F00001850319012AB700150126B70095017577
:10080000108100C0050C0901A101850419012AA06D
:1008100002150126A002950175108100C00501098D
:1008200006A101050719E029E715002501950875BE
:100830000181029501750881010507190029FF153D
:100840000026FF0095067508810005081901290595
:10085000950575019102950175039101C000112460
:100860001FBECFEFDAE0DEBFCDBF04B603FE27C068
:1008700080912B0590912C05A0912D05B0912E050E
:100880008730904BA740B04BD1F410922B051092BB
:100890002C0510922D0510922E0514BE84B7877F6B
:1008A00084BF0FB6F894A89580916000886180930A
:1008B0006000109260000FBEE0E0F8E3099512E0DE
:1008C000A0E0B1E0E6EEFCE402C005900D92A2319A
:1008D000B107D9F725E0A2E1B2E001C01D92AB3229
:1008E000B207E1F70E94AE1D0C944D260C94000057
:1008F0008091C3029091C402A091C502B091C6023A
:1009000082309105A105B10571F184309105A105F1
:10091000B10501F16DE571E00097A105B105E1F0C8
:10092000BF93AF939F938F9386E891E09F938F93AC
:100930001F9288E18F9384EE92E09F938F930E94A1
:1009400035238DB79EB70A960FB6F8949EBF0FBE9B
:100950008DBF06C06CE671E084EE92E00E942E230B
:1009600084EE92E0089569E771E0F6CF80E091E0CF
:1009700008950C94D304CF93C82F0E94A608811128
:1009800001C0C2E08C2FCF9108950E94A608882351
:1009900029F00E94780460E00C94950A0E94B60445
:1009A00060E00C94790A81E0089581E0089508954B
:1009B0000C94D7041F93CF93DF9300D000D00F92F5
:1009C000CDB7DEB749835A836B8330916202898148
:1009D0009A8131111DC06623B9F02223A9F00E942B
:1009E0003519182F682F89819A810E94DE18698134
:1009F0007A81812F0F900F900F900F900F90DF91C1
:100A0000CF911F910C9486050E940C19182FEFCFDF
:100A10000E94351969817A81EDCFFC01262F408132
:100A200051816281738184810C94DA04CF93DF93C6
:100A3000EC0160E00E940D05BE01DF91CF910C94A6
:100A4000D8040E946C1A811102C00E94101B0C94E1
:100A500061070C94640708950E94D2140E942B052C
:100A60002FEF84E39CE0215080409040E1F700C0EC
:100A700000000C94391C0F931F93CF93DF93EC016C
:100A800061E00E940D058C01BE010E94B90488231B
:100A900029F1BE01C8010E94690C8823F9F0BE014A
:100AA000C8010E94BB0C8823C9F0BE01C8010E9486
:100AB000DE0D882399F08A81882339F001158CE5B1
:100AC000180751F00F3D1C4579F0CE01DF91CF9111
:100AD0001F910F910C94D5040E942C0580E0DF91AA
:100AE000CF911F910F9108950E94101BF7CF089589
:100AF0000C94770581E008950C947A05CF93C82F64
:100B00000E9478058C2FCF910C947C05972F70E074
:100B100026E0929F600D711D1124FB019CE3899FCB
:100B2000E00DF11D1124EE0FFF1FE455FF4F8591DD
:100B300094910895CF93DF930E9486050E948606C4
:100B4000EC01811522E59207E8F5811531E593075F
:100B500008F0ACC0883E910510F5803E910570F517
:100B6000883A910570F4853A910508F078C0813093
:100B7000910521F1009711F1049700F5D0E0C0E054
:100B80001DC08F3B9105D0F7C85AD0E0CC0FDD1FB8
:100B9000C956DE4F0990D881C02DD4640FC081158D
:100BA00040E5940708F066C0C11580E4D80708F056
:100BB0005EC0CE019A9581159F4100F7CE01DF916D
:100BC000CF910895811536E5930718F5811545E510
:100BD000940708F083C0C11584E5D80708F079C0F0
:100BE0009C2F969596959E0123703327C115D3456A
:100BF00008F461C0C1E0D0E002C0CC0FDD1F2A952F
:100C0000E2F730E2939FC0011124C82BD92BDA6898
:100C1000D5CFC1158AE5D80778F4C11599E5D9076C
:100C200008F066C0C11528E5D20708F4A7CFDC2F6D
:100C3000CC27C06FD06AC2CFCE01905681159042AA
:100C400008F09CCF8D2F8F710E941D0790E0982F88
:100C5000882788279F719C012C2BE90147C0C55A22
:100C6000D0E0CB53DE4FC881D0E0D064A7CFDF7097
:100C7000D06AA4CFE4E096958795EA95E1F7837072
:100C80002C2F26952695237040E2249F9001112455
:100C9000382B8C2F8370C1E0D0E002C0CC0FDD1F59
:100CA0008A95E2F7C22BD32BDC6888CFD82FCC27CC
:100CB000C16FD06A83CFC1E0D0E002C0CC0FDD1F8E
:100CC0002A95E2F720E2929FC0011124C82BD92B6C
:100CD000EBCFDC2FCC27C46FD06A70CF0E941D07EA
:100CE000C82FD0E0DC2FCC27CC27DF71D06266CFB5
:100CF0008C2F8F700E941D0734E0D695C7953A95CA
:100D0000E1F7CF709C2FEC01D06958CF8238910564
:100D1000B1F1B0F48133910509F475C048F489321A
:100D2000910509F469C08A32910509F473C00895E8
:100D30008533910509F459C08933910501F108956E
:100D4000833E9105A9F138F4803E9105F9F0823E89
:100D5000910549F10895863E9105A9F1873E9105D7
:100D6000C9F1843E910519F520911D0521FF1FC091
:100D700080911C0584FD14C087EE90E008952091B9
:100D80001C052370A1F080EE90E0089520911C05D1
:100D900020FD47C030911D0530FF09C024FF44C02D
:100DA00090E080E004C020911C0522FDF7CF08955B
:100DB00020911C0522FD3BC030911D0530FDE3CF85
:100DC00024FFF5CFEDCF20911C0523FFF0CF24FDAC
:100DD000E7CFD2CF20911C0523FD2CC030911D05FB
:100DE00031FFEECF84EE90E0089520911C0525FFA1
:100DF000DECF89E290E0089520911C0525FFD7CF32
:100E000085E390E0089520911C0526FFD0CF8AE26B
:100E100090E0089520911C0526FFC9CF81E390E062
:100E2000089589E390E0089583EE90E0089582EEBE
:100E300090E0089586EE90E0089590911C0592FF51
:100E400006C0282F28712830F9F4877F846093FF2B
:100E500006C0282F28712831F1F4877E8461209103
:100E60001D0520FF06C0382F38713830D9F4877F30
:100E7000816021FF06C0282F28712831D1F4877E98
:100E8000816194FD877E0895282F24712430F9F61E
:100E90008B7F8860DCCF282F2471243101F78B7E73
:100EA0008861DDCF382F3171313019F78E7F88603E
:100EB000E0CF282F2171213121F78E7E8861E1CF8B
:100EC00008950C94600708950C946307E82FF0E0F0
:100ED000EA5FFC4F80810895089580EA8A95F1F7D2
:100EE0000895F894E82FE295EF70F0E031A1282FF3
:100EF0002F7081E090E001C0880F2A95EAF7982FC3
:100F00009095932391A392A1892B82A3789408951D
:100F100008950E94C408809140018091400195E0AD
:100F2000811190E09093110385E0891B8093100359
:100F300086E60E94710787E90E94710786EC0E948D
:100F4000710784E30E94710785E30E94710786EFB1
:100F50000E94710787EF0E94710781E30E94710769
:100F600083E30E94710782E30E94710786E30E9477
:100F70007107ECEFF2E0A6E0B3E086E093E01192B7
:100F80001D928E179F07D9F785E00E946F080E9477
:100F900021050C94CE080E94A6088823F9F08091C0
:100FA000100390E08A5F9C4F0E94E108811113C0FA
:100FB000809112028F5F80931202863050F0E09190
:100FC0001003F0E0EA5FFC4F10821182128213825C
:100FD00014820C94290510921202FBCF8091110308
:100FE00090E08A5F9C4F0E94FC080C948807CF9287
:100FF000DF92EF92FF920F931F93CF93DF93CEEC8C
:10100000D1E00CEF12E0D12CEE24E394F12C899185
:10101000F894E82FE295EF70F0E021A18F70A7011E
:1010200002C0440F551F8A95E2F7CA01922F982BF0
:1010300091A392A18095892382A378940E946D0741
:10104000E8ECF1E030E020E0C12C4191A42FA29522
:10105000AF70B0E090968C9190E04F7002C0959583
:1010600087954A95E2F780FD36C08E2D022E01C08D
:10107000880F0A94EAF7C82A2F5F3F4F26303105C0
:1010800021F7FE01319780810E947107F80180816C
:10109000C81619F1C08281E0D82A0F5F1F4FF1E016
:1010A000C33DDF0709F0B3CF6091110370E06A5FC1
:1010B0007C4F2D2D45E08CEF92E00E9470080E943D
:1010C000CB078D2DDF91CF911F910F91FF90EF9066
:1010D000DF90CF90089580E0CECF80E0DDCF0895FF
:1010E000FF920F931F93CF93DF93F82E092F162FA4
:1010F000D72FC42F222349F081E0809315020E944C
:10110000EE1B9093140280931302809115028823A2
:10111000A1F080911302909114020E94061C069780
:1011200060F0EF2DF02FA12FBD2FCE0FDF2FD11D9F
:10113000EC17FD0741F410921502DF91CF911F913A
:101140000F91FF90089581918D93F2CF80911602B7
:10115000811111C08091D80080618093D8008AE10C
:101160008A95F1F700C09091D900892F817090FF86
:1011700082E08093160281E090911602913009F08E
:1011800080E008950C94A6080E94C2088093400154
:101190000E94A60881110C94D50808950E94A60803
:1011A000811102C00C94DB08089561E070E081E4D5
:1011B00091E00C94540F61E070E081E491E00C94B4
:1011C0005D0FCF93DF93D82FC92F90E080E00E946E
:1011D0003610009779F4ED2FFC2FDC01A85EBD4F8F
:1011E0002C912193019685309105B9F781E0DF912B
:1011F000CF91089580E0FBCF30E020E0FC014191E9
:10120000CF01F901E85EFD4F40832F5F3F4F25304E
:101210003105A1F70895CF92DF92EF92FF920F93DD
:101220001F93CF93DF936C017B0164E670E088E746
:101230000E940E0EEC0197FD12C010E000E0F601D6
:10124000E00FF11F849164E670E00E946A0EEC01E9
:10125000892B29F40F5F1F4F0E151F0581F70E9480
:10126000ED0ECE01DF91CF911F910F91FF90EF9086
:10127000DF90CF900895E2E1F3E080E092E0DF01BB
:101280009C011D9221503040E1F7F0931705E09347
:1012900016058FEF9FEF90934902809348020895BF
:1012A0000E94BB048093440280FD0FC080E88093BD
:1012B00043020E94080E6DE070E08BE292E00E9413
:1012C0000B09892B21F080E0089580E2F0CF809116
:1012D000440263E070E081FD26C088E292E00E9453
:1012E0000B09892B81F76DE070E088E192E00E94A4
:1012F0000B09892B41F70E94FA1B605A75418F4FE9
:101300009F4F60931205709313058093140590937B
:1013100015050E943B0981E08093470280934602B5
:1013200010924502089585E292E0D9CF20914302C0
:1013300036E0839FC0011124629F800D911D11240E
:10134000811522E0920714F090E080E08E5E9C4FC1
:1013500090931705809316050895209116053091F6
:1013600017052C50334040914302642F70E0C901AF
:101370000E94FE22481B463010F4240F311D211517
:1013800082E0380710F030E020E02E5E3C4F3093D2
:1013900017052093160508951F93CF93DF93162FFB
:1013A0008A3031F481E0DF91CF911F910C94460A8D
:1013B0008D3011F480E0F7CFC0911605D09117055C
:1013C00096E0FE01ADE1B2E001900D929A95E1F751
:1013D000803EC8F086E0FE0111928A95E9F711116E
:1013E0001EC0C0911605D091170546E050E0BE0121
:1013F0008DE192E00E942123892BF9F4DF91CF91B6
:101400001F910C94AD09F6E08F9FB0011124685C28
:101410007D4F46E050E0CE010E941823E0CFE091DE
:101420001605F09117059F012A5F3F4F2E173F07C2
:10143000C1F2808180958193F9CFC251D340CE0112
:1014400025E0969587952A95E1F721E030E0A901FE
:1014500002C0440F551F8A95E2F7CA014091480225
:1014600050914902842B952B259645E0D695C7953A
:101470004A95E1F702C0220F331FCA95E2F7822B8B
:10148000932B9093490280934802B8CFCF93382F83
:10149000E0911605F0911705E251F34020914302C7
:1014A000622F70E0CF010E94FE22281B822F33237F
:1014B00069F066E00E94F222C82FC15010F4CF916B
:1014C000089560E080E20E94CC09F7CF9F01280FC9
:1014D000311D2115324018F080E0F0E0E0E08E0F81
:1014E0009F2F911D8E5E9C4F90931705809316053C
:1014F000E6CFFF920F931F93CF93DF93EC01F62E6D
:10150000FC0101900020E9F78F0101501109C0177B
:10151000D10730F0DF91CF911F910F91FF90089587
:101520006F2D89910E94CC09F2CF0E94790A81E047
:101530000C94460A80914702811103C080914602B3
:1015400008950E94FA1B605A75418F4F9F4F609318
:1015500012057093130580931405909315058091DF
:1015600046028111EBCF62E070E086E192E00E94DA
:101570000B09892B19F781E080934602DFCF2F9268
:101580003F925F926F927F928F929F92AF92BF92A3
:10159000CF92DF92EF92FF920F931F93CF93DF933F
:1015A00080914702882369F02091480230914902D6
:1015B0002115310531F08091450261E070E088230A
:1015C00099F0DF91CF911F910F91FF90EF90DF90F5
:1015D000CF90BF90AF909F908F907F906F905F90D3
:1015E0003F902F9008958F5F082F10E01B01082E69
:1015F00002C0220C331C0A94E2F7A90142215321B4
:10160000452B89F39091440290FD44C08295880F48
:10161000807680934B0198013695279536952795CE
:1016200020934E01815E80934C0110924F0124E67D
:1016300030E047E050E069E471E088E70E94990EED
:10164000892B09F0BECFA80125E0440F551F2A952C
:10165000E1F78091440280FD2BC04E5E5C4F04E6B2
:1016600010E020E230E060E488E70E94C00E892BA1
:1016700009F0A7CF0E949A0AE101C095D095809108
:10168000480290914902C823D923D0934902C093BC
:10169000480297CF880F880F880F80934B011092D4
:1016A0004E01895F80934C0183E080934F01BFCF4F
:1016B000E3E2F2E080E2DF011D928A95E9F7ACED0A
:1016C000B1E008ED11E080EEC82E81E0D82E97E061
:1016D000592E772473948D91E80129918E01240F5E
:1016E000352F311D2E5E3C4FE82FF0E0ED5DFD4FB4
:1016F00090E080E0652C681A872C082E01C0880CC9
:101700000A94EAF77901A12CE701B9907E01B8208B
:10171000662D6A196770962E062E000C770BDB2D4E
:1017200001C0DD0F9A94EAF77195619571096770B0
:10173000772701C0B6946A95EAF7BD2A6081962E94
:101740009B289082A39468E0A612DECF0196319682
:101750008830910579F6CA16DB0609F0BCCF04E69D
:1017600010E020E230E043E252E07DCF809146027B
:1017700090914702911103C091E089270895882331
:1017800069F062E070E084E192E00E940B09892B2D
:1017900019F0809146020895109246028091460207
:1017A000EBCF0F931F9380914702882319F160E0DC
:1017B00080E00E9496090E94C5040E94BF0A8091A1
:1017C00046028823B9F00E94FA1B0091120510917D
:1017D00013052091140530911505601B710B820BC8
:1017E000930B6F3F7F4F8F4F9F4720F41F910F91B7
:1017F0000C94B60B1F910F9108950F931F93CF93E5
:10180000DF93C42FD22FFC0182818823C9F040933B
:101810004C020E94EE1B90934B0280934A0280E29E
:101820008C0F883008F050C0C77081E001C0880F6D
:10183000CA95EAF7DF91CF911F910F910C94721224
:1018400010914C02141335C080914A0290914B02C2
:101850000E94061C8436910560F5C0E2CD0F1D176D
:10186000B9F080E2810F883040F4177081E001C048
:10187000880F1A95EAF70E947912C83048F481E07F
:101880009D2F977001C0880F9A95EAF70E947212F7
:10189000802F0E945F12C830B8F4D77081E001C079
:1018A000880FDA95EAF7DF91CF911F910F910C9491
:1018B000791280E28C0F883038F4C77081E001C063
:1018C000880FCA95EAF7EFCFDF91CF911F910F9163
:1018D00008950F939C01CB01243F4CE5340759F147
:1018E000A8F4293DFCE53F0701F12A3D4CE534070A
:1018F000D1F1283D3C4591F406E221EE41EE68ED40
:101900007CE50E94FD0B80E00F910895263FFCE5E9
:101910003F07E9F0B0F0273F3C45F9F0FC01828138
:10192000882339F110924C02EFCF07E225EE45EE05
:1019300069ED7CE5E6CF06E221EE40EE64EF7CE562
:10194000E0CF07E225EE44EE65EF7CE5DACF06E274
:1019500021EE42EE66EF7CE5D4CF07E225EE46EEBF
:1019600067EF7CE5CECF08E221E045EE6AED7CE54D
:10197000C8CF81E0C9CFCF93DF93EC01FB01828117
:10198000882309F419C1C230FCE5DF07C0F1C63174
:101990009CE5D90730F09E012B5F3C45293031058D
:1019A00070F50E947F1A90931D0580931C05C0312D
:1019B000ECE5DE0709F4CFC008F05BC0C8308CE569
:1019C000D80709F4B6C088F5C430ECE5DE0709F4A1
:1019D000A8C0C0F4C2308CE5D80709F49CC080913F
:1019E0001C058260C330DC4509F498C080911C0559
:1019F00090911D050E948D1A0E94D21480E0DF9103
:101A0000CF91089580911C058061C630ECE5DE071A
:101A100009F484C080911C058860C730DC4508F457
:101A20007DC080911C05806279C0CC308CE5D807E0
:101A300009F489C070F480911C058C60CA30ECE513
:101A4000DE0709F46BC008F478C080911C058E7F16
:101A500065C0CE308CE5D80709F479C080911C05AB
:101A60008B7FCF30DC4508F459C080911C058F7EF8
:101A700055C0CC3FECE5DE0709F457C030F5C33163
:101A80008CE5D80709F46FC078F4C131ECE5DE07C6
:101A900009F465C0C231DC4509F0A8CF0E94D21418
:101AA00080911C058F773AC0C5318CE5D80709F4C1
:101AB00062C008F476C080911D058160CB3FDC4593
:101AC00009F094CF80931D0591CFC115FDE5DF0787
:101AD00009F44DC088F480911D058D7FCE3F9CE5B3
:101AE000D90781F380911D058E7FCF3FDC4550F3F0
:101AF00080911D058360E6CFC230FDE5DF0709F464
:101B000059C008F444C080E0C330DD4509F06ECF11
:101B10000E94121B6BCF80911C05816080931C0575
:101B200065CF80911C058460F9CF80911D0582608E
:101B3000C9CF80911C058064F1CF0E94D21480919E
:101B40001C058068EBCF80911C058D7FE7CF8091CD
:101B50001C05877FE3CF80911C058F7DDFCF8091AF
:101B60001C058F7BDBCF80911C05837FD7CF8091B5
:101B70001D058C7FA7CF80911C0582FB992790F9CA
:101B800021E0922790FB82F990FB83F9C7CF8091E7
:101B90001D05982F909591708E7F892B90FB81F970
:101BA00091CF0E94D21490911C05892F97FB87F941
:101BB0008058B4CF81E0ACCF81E021CFCF93DF93C9
:101BC000EB0186319C4511F50E94CA199A8199232F
:101BD00099F08A7A91E009F490E090934D02811196
:101BE00009C089E20E94A5190E94091A80E0DF91CC
:101BF000CF91089585E3F6CF80914D02811104C005
:101C000089E20E94AC19F0CF85E3FBCF81E0EFCFF2
:101C10001092B9008CE08093B8000895EF92FF9283
:101C20000F931F93CF93DF93182FEB011092BC00FB
:101C300084EA8093BC000E94EE1B7C018091BC0072
:101C400087FF27C08091B900887F883029F0809174
:101C5000B900887F8031D9F51093BB0084E8809368
:101C6000BC000E94EE1B8C018091BC0087FF24C049
:101C70002091B900287F90E080E02831B1F081E028
:101C800090E0203411F490E080E0919581959109E5
:101C90000CC0CF3FDC0791F20E94EE1B8E199F090A
:101CA0008C179D0758F28EEF9FEFDF91CF911F9118
:101CB0000F91FF90EF900895CF3FDC07A9F20E94AB
:101CC000EE1B801B910B8C179D0770F2ECCF8FEFF2
:101CD0009FEFEBCF0F931F93CF93DF93EB01809395
:101CE000BB0084E88093BC000E94EE1B8C018091B5
:101CF000BC0087FF11C02091B900287F81E090E0EF
:101D0000283211F490E080E0919581959109DF915E
:101D1000CF911F910F910895CF3FDC0741F30E94AF
:101D2000EE1B801B910B8C179D0708F38EEF9FEF26
:101D3000EECFCF92DF92EF92FF920F931F93CF934C
:101D4000DF936B018A017901B9010E940E0EE60151
:101D50000C0D1D1DC017D10761F424E92093BC00B0
:101D6000DF91CF911F910F91FF90EF90DF90CF9077
:101D7000089597FDF2CFB70189910E946A0EEACFCC
:101D8000CF92DF92EF92FF920F931F93CF93DF9347
:101D9000C62F6A017901B8010E940E0E97FD0CC092
:101DA000B8018C2F0E946A0EE601EC0CFD1CCE15CA
:101DB000DF0511F097FF0CC024E92093BC00DF91F0
:101DC000CF911F910F91FF90EF90DF90CF900895EA
:101DD000B80189910E946A0EEACF84E98093BC0021
:101DE00008958EE14A9B02C08150E1F74A9BFECFE5
:101DF00008955A9880E28A95F1F75A9A0895FC015D
:101E00003BE03A95F1F720E090E080E031E040E1FE
:101E10004A95F1F7880F4A9B02C08160232742E070
:101E20004A95F1F7000040E14A95F1F79F5F691389
:101E3000EECF90E19A95F1F799B132E03A95F1F74A
:101E4000000040E14A95F1F792FB992790F992271B
:101E50002081920F90830895EF92FF920F931F932A
:101E6000CF93DF930F92CDB7DEB719828C017C013F
:101E7000E60EF11C0E151F0561F481E099819111A8
:101E800080E00F90DF91CF911F910F91FF90EF9025
:101E900008950E94F10E68E0CE0101960E94FF0EA7
:101EA000F80181938F01E6CF9093500280934F0207
:101EB00060934E02529A5A9A0895909350028093DA
:101EC0004F0260934E0252985A9AEA9AE9E6F0E07D
:101ED00080818F7C808308956150770B91E001C0F1
:101EE000990F6A95EAF720E031E0911108C02223AA
:101EF00091F05A9A80E28A95F1F75A980895492FFD
:101F0000482339F05A9A232740E24A95F1F79695EB
:101F1000ECCF5A98F9CF5A98EDCFFF920F931F93B9
:101F2000CF93DF93EC018C01060F111DC017D10771
:101F300031F4DF91CF911F910F91FF900895F990A7
:101F40000E94F90E68E08F2D0E946C0FEFCF1F9258
:101F50000F920FB60F9211240F931F932F933F935D
:101F60004F935F936F937F938F939F93AF93BF93A1
:101F7000EF93FF93CF93DF930F92CDB7DEB7198224
:101F80000E94F10E67E0CE0101960E94FF0E082F1D
:101F9000069506950695982F92959570202F257099
:101FA000920F292F2370969596958770920F89131B
:101FB00044C08981811141C080914E028017E8F1AF
:101FC00020E12A95F1F75A9A529A82E08A95F1F720
:101FD00000C0A8E00A9FC001112400914F02109197
:101FE0005002080F191F5A98F8016581662321F0E5
:101FF000868197810E948D0F0E94F90EF0E1FA957B
:10200000F1F75A9852985A9A20E12A95F1F7D80197
:1020100012966C911297662331F113968D919C91D3
:102020000E942C0FD801ED91FC91882311F088E0DB
:1020300001C082E080830E94F10E0F90DF91CF916A
:10204000FF91EF91BF91AF919F918F917F916F9190
:102050005F914F913F912F911F910F910F900FBE64
:102060000F901F901895ED91FC91E1CF0F931F9366
:10207000CF93DF9320914E02281719060CF471C0FC
:102080008C0193E0000F111F9A95E1F7C0914F0268
:10209000D0915002C00FD11FF894529A5A9825E05F
:1020A0002A95F1F70000982F969595708570980FF6
:1020B000892F837096959695980F092B0E94F90E9B
:1020C00000C067E0802F0E946C0F80E18A95F1F7D5
:1020D00052985A9A4A9B17C087E090E04A9915C0D7
:1020E0006D81662321F18E819F810E942C0F8111C9
:1020F0001EC0529A5A9AE881F98182E080837894CE
:1021000082E090E00DC000C0E5CF019771F4529AD3
:102110005A9AE881F98181E08083789481E090E0A7
:10212000DF91CF911F910F91089500C0D7CF0E94EA
:10213000F10E20E22A95F1F75A98529A80E18A9599
:10214000F1F76A81662321F08B819C810E948D0FBB
:102150000E94F90EE881F9811082789490E080E085
:10216000DFCF84E090E0DCCF90935602809355025D
:102170000895E0915502F0915602309721F00190B8
:10218000F081E02D099480E00895E0915502F091EE
:102190005602309721F00280F381E02D09940895D2
:1021A00020915302309154022817390771F090930F
:1021B000540280935302E0915502F09156023097F9
:1021C00021F00680F781E02D0994089520915102B5
:1021D000309152022817390771F090935202809380
:1021E0005102E0915502F0915602309721F000849F
:1021F000F185E02D0994089585B7806885BF85B77E
:10220000806885BF0895089508950C94031108957A
:102210000C9407110E94FC100E9404110C940511EB
:102220000C94A608089508950E94E51B0E94890752
:1022300080E00E9450090E944A1C0C940811AF9241
:10224000BF92CF92DF92EF92FF920F931F93CF93A3
:10225000DF93CDB7DEB72A970FB6F894DEBF0FBE77
:10226000CDBF0E9412110E9413110E94F707B82ED1
:102270000E941011882309F463C088E5C82E82E00B
:10228000D82E10E000E0A02E802F0E946607E82ED6
:10229000F601F1906F01F81609F44CC08091D80254
:1022A00081FD0E946C079F2D9E2580E0FF24F39402
:1022B000292F2F21D1F18E83AF82EF2081E009F405
:1022C00080E088870E94EE1B8160782F9A8789873B
:1022D0004E815F8168858A850E94C211F801E85AA3
:1022E000FD4F8081F826F0820E94D10BB1100E9430
:1022F0009A0A0E94B91090915702891791F10E9491
:10230000B910809357022A960FB6F894DEBF0FBE1D
:10231000CDBFDF91CF911F910F91FF90EF90DF9094
:10232000CF90BF90AF900C947E058F5FFF0C8630EE
:1023300009F0BECF0F5F1F4F0A30110509F0A3CF80
:102340008FEF89838A831B820E94EE1B8160782F26
:102350009D838C8349815A816B818D810E94C2113A
:10236000C3CF2A960FB6F894DEBF0FBECDBFDF9164
:10237000CF911F910F91FF90EF90DF90CF90BF9082
:10238000AF900895CF93DF93CDB7DEB72B970FB6FD
:10239000F894DEBF0FBECDBF4F83588769877A8719
:1023A0008B871E821D8285E0FE013796DE01119625
:1023B00001900D928A95E1F749815A816B817C8168
:1023C0008D819E812B960FB6F894DEBF0FBECDBFD8
:1023D000DF91CF910C943617FC01808191810C9490
:1023E0007719CF93C82F882309F43FC08CEF8C0F47
:1023F000813AA0F46C2F80915001909151010E947C
:10240000291B882329F08C2F0E94AC190E94091ADD
:102410008C2F0E94A519CF910C94091A80E28C0F81
:10242000883048F4C77081E001C0880FCA95EAF788
:102430000E94CD19F0CFEBE5EC0FE33040F4F0E073
:10244000E25FFD4F808190E0CF910C94D010C85A8C
:10245000C73158F4EC2FF0E0EE0FFF1FE052FE4FB3
:1024600080819181CF910C94E610CF9108958823BB
:1024700029F19CEF980F913A20F40E94AC190C942A
:10248000091A90E2980F983050F4877091E001C0DB
:10249000990F8A95EAF7892F0E94D319F0CF9BE50F
:1024A000980F933020F490E080E00C94D010885A7C
:1024B000873120F490E080E00C94E6100895CF93EB
:1024C000C82F0E94F111C93349F42FEF87EE93E032
:1024D000215080409040E1F700C000008C2FCF9148
:1024E0000C943712882321F00E94CD190C94091AFC
:1024F0000895882321F00E94D3190C94091A089595
:10250000BF92CF92DF92EF92FF920F931F93CF93E0
:10251000DF936C01D62FC72FFC01058102950F7048
:10252000128111110E94EA190E94C319E82E882312
:1025300091F01123E9F08C2F807F803421F080E22C
:102540008D0F8830A8F082E00E94541A0E94C319AF
:1025500091E0E82EE926BC2EB2949FE0B922FBE080
:10256000FB15A8F1EB2DF0E0E15BF94D0C94122383
:10257000E12CF1CF0C2F0F70C07F11F00295007F7E
:102580001123A9F0002359F080E28D0F883010F05C
:10259000D11109C0802F0E94CD190E94091A8D2FD8
:1025A0000E94F11114C0802F0E94DD19F6CF8D2FEB
:1025B0000E943712002359F080E28D0F883010F00E
:1025C000D1112CC0802F0E94D3190E94091A2B2DE3
:1025D0002850330B2430310520F40E94B9100E949A
:1025E0007E05EE2009F483C10E94BF1980FD7FC1E2
:1025F000F60112820E94B9190E944218C6010E9477
:1026000098140E94B919DF91CF911F910F91FF90FB
:10261000EF90DF90CF90BF900C946318802F0E94B2
:10262000E319D3CF2C2F2F70F22EC07FC03219F0B8
:10263000F29480EFF822DD2369F0D13049F11123C3
:1026400091F1002351F1F601858180FFA8CF8F70B1
:10265000858323C0112381F0011106C00E94F01967
:102660008F290E947212B3CF0130C1F70E94F01976
:102670008F290E94F619ABCF011106C00E94FF19E5
:102680008F2D0E947912A3CF013009F4A0CFF6CF8D
:10269000112329F0063008F09ACF8F2DE2CF0530B4
:1026A00008F095CFEDCF002359F3D93349F4FFEF6C
:1026B00027EE33E0F15020403040E1F700C0000049
:1026C0008D2F0E94371283CF8C2F8695869583702D
:1026D00069F0813009F07BCF8D2F9C2F9370111101
:1026E00002C090E080E00E94E61071CF8D2F9C2FF9
:1026F0009370111102C090E080E00E94D01067CF6B
:102700008C2F837009F041C0111161CF4D2F42957C
:1027100046954770440F440F0D2F0F7010E030E0C6
:1027200020E0042E04C0000F111F221F331F0A9443
:10273000D2F760E070E0CB01D4FF0FC06FE070E033
:1027400080E090E004C0660F771F881F991F4A95AC
:10275000D2F76095709580959095C695C695C37093
:10276000602B712B822B932BC23049F058F4C1306F
:1027700019F00E94F4172BCF0E94E21728CF0E9475
:10278000061825CF0E94E01722CF8695112311F05D
:102790008C2F8170882309F41ACF4D2F42954695CE
:1027A0004770440F440F0D2F0F7010E030E020E011
:1027B000042E04C0000F111F221F331F0A94D2F7EA
:1027C00060E070E0CB01D4FF0FC06FE070E080E00C
:1027D00090E004C0660F771F881F991F4A95D2F7B3
:1027E0006095709580959095C695C695C370602B41
:1027F000712B822B932BC23049F058F4C13019F061
:102800000E94B918E4CE0E94A718E1CE0E94CB180E
:10281000DECE0E941C18DBCECF70112329F08C2F46
:102820000E9442188D2F1DCF8D2F0E9479128C2F60
:102830000E946318CCCED23F89F160F4D03FC9F03A
:10284000D13F29F1112309F442C00111A8CE8C2FE8
:102850008F7121C0D33F39F1D43FA1F7112369F122
:10286000CF718C2F0E94421863E08C2F0E943F1A78
:10287000AECE112341F0053008F0A9CE8C2F8F7118
:102880000E948618A4CE063008F0A1CEF7CF8C2F78
:102890008F71112369F20E94421899CE8C2F8F718B
:1028A0001123C9F3C5CF112329F08C2F8F710E94FA
:1028B0002D188DCE0E9428188ACE81E00E94541ACD
:1028C000023008F484CE82E00E94541A80CE0023A5
:1028D00059F0D93309F0F4CE8FEF97EEE3E0815051
:1028E0009040E040E1F7EACE8C2F8F71A1CFDF91CD
:1028F000CF911F910F91FF90EF90DF90CF90BF90FD
:1029000008950F931F93CF93DF93EC016881798132
:102910008A810E9481198C010E94DD180E94DF17B4
:10292000B801CE01DF91CF911F910F910C948012CD
:10293000CF93DF93EC018B819C81892B29F08881D7
:10294000998189238F3F59F4DF91CF910895CE016A
:102950000E948114CE01DF91CF910C941605CE0117
:102960000E943B058111F3CF0E94C319882361F3B4
:102970008A81882349F382E0DF91CF910C94541A25
:102980000E94EA190E94ED190E94091A90E080E065
:102990000E94D01090E080E00C94E6100E94B319E1
:1029A0000C94C0140E94DA190C94CE14E92FE2950D
:1029B000EF70E250EE3070F4F0E0E55AF94D0C940F
:1029C0001223803F19F020F4883E20F481E008951E
:1029D000843FE1F380E00895883EC0F3813FD1F762
:1029E000F5CF93FB882780F908950E9477190C94FE
:1029F000D614CF93DF9300D000D00F92CDB7DEB7BF
:102A00000F900F900F900F900F90DF91CF9108953E
:102A1000CF93DF9300D000D000D0CDB7DEB726969D
:102A20000FB6F894DEBF0FBECDBFDF91CF910895F2
:102A30001F93CF93DF93C091630216E080916402ED
:102A40008C1304C0DF91CF911F910895D0E01C9F9B
:102A5000F0011D9FF00D1124EB59FD4F4081518174
:102A600062817381848195810E9408152196C770C7
:102A7000E5CF409195025091960260919702709136
:102A800098028091990290919A020C9408151F93D4
:102A9000CF93DF9380919A02807FA9F4809197026F
:102AA000882389F080916302C0916402609195024D
:102AB00070919602A0919802B0919902D62FD723D7
:102AC00016E0C81304C0DF91CF911F91089590E0E4
:102AD000109711F0DF3F19F401968770F2CF189F1D
:102AE0009001199F300D1124F901EB59FD4F4181DF
:102AF0004713F2CF40814613EFCF42814111ECCF13
:102B0000438154814A1B5B0B4436510528F7809161
:102B10009A028F70806180939A02F901E659FD4F05
:102B200080818F708061808385E992E00E94981493
:102B3000DF91CF911F910C941815AF92BF92CF9255
:102B4000DF92EF92FF920F931F93CF93DF93CDB756
:102B5000DEB761970FB6F894DEBF0FBECDBF8C0114
:102B600085E0F801DE011D9601900D928A95E1F74E
:102B7000F80140815181E28085E9C82E82E0D82E9B
:102B800060919802709199026115710509F44FC125
:102B90009091950220919602892F82238F3F09F40C
:102BA00046C1A380B480F0909702F501E61BF70BB5
:102BB000FF2009F40AC180919A02382F307FE43651
:102BC000F10508F0C0C0311179C0FE2C251323C0D7
:102BD000941321C0E1101FC08F70806180939A020E
:102BE0000E943915C6010E94981480919A02F8013A
:102BF00085838F2D61960FB6F894DEBF0FBECDBFD3
:102C0000DF91CF911F910F91FF90EF90DF90CF90C8
:102C1000BF90AF900895AB2829F0842F85238F3F74
:102C200009F021C180E0F82FF170DF2E80FF3CC059
:102C3000809163022091640236E0821315C04D87B3
:102C40005E878D859E850E947719292F22952F708A
:102C50002230F0F0243018F59F70F1F0F8019581E2
:102C6000907FD1F4D12C1EC090E0389FF001399FA5
:102C7000F00D1124EB59FD4F6181651306C0608191
:102C8000641303C062816E110FC001968770D5CFA7
:102C90009F7011F0882331F3805E883018F3C801EB
:102CA0000E949814FD2CA5CFEE2009F4A2CF8091AC
:102CB0009A02816080939A02F12C9BCF251314C055
:102CC000941312C0E11010C0F8018583C8010E945E
:102CD000981486E0F801A5E9B2E001900D928A957A
:102CE000E1F70E94391585CF4D875E878D859E85DA
:102CF0000E94F514882319F1EE2009F180919A02BF
:102D0000803270F0209195023091960238872F839F
:102D10001986BB86AA868C87CE0107960E949814D6
:102D200086E0F801A5E9B2E001900D928A95E1F7FD
:102D30000E9447150E943915FF24F3945ACFC80109
:102D40000E949814F9CF311113C07A2DB98AA88A3C
:102D50006E2D89890E94F91485E992E00E949814E9
:102D600086E0F60111928A95E9F70E943915A4CF01
:102D700025130FC094130DC0E1100BC0F80185831B
:102D8000C8010E94981486E0F60111928A95E9F72D
:102D900030CF4D875E878D859E850E94F5148823F0
:102DA00071F2EE2061F280919A02803208F4B8CF7D
:102DB00020919502309196023A8329831B82BD822D
:102DC000AC828E83CE010196A9CFE436F10510F5D1
:102DD000FE2CEE2009F4B3CF25130BC0941309C0C9
:102DE00086E0F801A5E9B2E001900D928A95E1F73D
:102DF00000CF4D875E878D859E850E94F5148111D9
:102E00008FCF80919A02816080939A02C8010E94BC
:102E10009814EFCE7A2DB98AA88A6E2D89890E94DE
:102E2000F91486E0F60111928A95E9F75ACFEE205F
:102E300009F485CF4D875E878D859E850E94F514A8
:102E4000F82E882309F47BCF86E0F801A5E9B2E0EB
:102E500001900D928A95E1F785E992E00E94EC11CC
:102E60000E9447153ECF81E08E25DDCE1F93CF9384
:102E7000DF93CDB7DEB72C970FB6F894DEBF0FBE49
:102E8000CDBF4F83588769877A878B879C87CE0110
:102E900007960E949D15882369F08A859B85892B5A
:102EA00039F04F815885842F85238F3F09F071C0F9
:102EB00016E05FC086E0FE013796DE0111960190B4
:102EC0000D928A95E1F78A859B85892B89F38F81FD
:102ED000988589238F3F61F32091640230E0C90116
:102EE000019687709927409163024817190671F47B
:102EF0000E94D214109264021092630286E0E5E907
:102F0000F2E0DF011D928A95E9F7D2CF96E0929F19
:102F1000D001939FB00D1124AB59BD4FFE013196E6
:102F200001900D929A95E1F7809364020E94181522
:102F3000BFCF819FC00111248B599D4F0E949D15C9
:102F40008823E9F0E09163021E9FF0011124EB5900
:102F5000FD4F4081518162817381848195810E94FE
:102F600008158091630290E00196877099278093FD
:102F7000630280916302909164028913DACF2C96E8
:102F80000FB6F894DEBF0FBECDBFDF91CF911F917A
:102F9000089569857A858B859C850E94081588CF60
:102FA00008950C94D0170E94D1176093C7027093B4
:102FB000C8028093C9029093CA020C94C014089569
:102FC0000C94D3170F931F930091C7021091C8025E
:102FD0002091C9023091CA02602B712B822B932B56
:102FE0001F910F910C94D3170F931F930091C70259
:102FF0001091C8022091C9023091CA026023712346
:10300000822393231F910F910C94D3170F931F9337
:103010000091C7021091C8022091C9023091CA02E2
:1030200060277127822793271F910F910C94D31744
:103030000C94D0170C9418180E941A186093C302AD
:103040007093C4028093C5029093C6020C94C0147E
:1030500060E070E0CB010C941C180F931F9341E0CB
:1030600050E060E070E08A019B0104C0000F111F76
:10307000221F331F8A95D2F7C901B8011F910F9102
:103080000C941C180F931F9341E050E060E070E037
:1030900004C0440F551F661F771F8A95D2F7809191
:1030A000C3029091C402A091C502B091C6028A01E8
:1030B0009B01082B192B2A2B3B2BC901B8011F910F
:1030C0000F910C941C180F931F9341E050E060E0A7
:1030D00070E004C0440F551F661F771F8A95D2F712
:1030E000CB01BA0160957095809590950091C302CF
:1030F0001091C4022091C5023091C6026023712351
:10310000822393231F910F910C941C180F931F93EC
:1031100041E050E060E070E004C0440F551F661FBE
:10312000771F8A95D2F78091C3029091C402A09133
:10313000C502B091C6028A019B01082719272A27D8
:103140003B27C901B8011F910F910C941C180F93D4
:103150001F930091C3021091C4022091C5023091C7
:10316000C602602B712B822B932B1F910F910C9415
:103170001C180F931F930091C3021091C402209159
:10318000C5023091C60260237123822393231F91CD
:103190000F910C941C180F931F930091C302109170
:1031A000C4022091C5023091C60260277127822790
:1031B00093271F910F910C941C180895E92FEE0F7F
:1031C000E90FEE0F8E0F982F977041E001C0440F6A
:1031D0009A95EAF786958695869595E0899FF00100
:1031E0001124E556FD4F30E020E070E05191DF0101
:1031F0001197CB01022E02C0969587950A94E2F7AB
:10320000817081958527842385278C932F5F3F4F7D
:103210002530310559F70895E92FEE0FE90FEE0F2C
:103220008E0F982F977086958695869525E0829FBC
:10323000F0011124E556FD4F50E040E080E021917F
:1032400030E0092E02C0369527950A94E2F72170E6
:103250003327042E01C0220F0A94EAF7822B4F5F16
:103260005F4F4530510559F70895BF92CF92DF92D5
:10327000EF92FF920F931F93CF93DF938C01C09037
:10328000C302D090C402E090C502F090C6028091C3
:10329000C7029091C802A091C902B091CA02C82A7F
:1032A000D92AEA2AFB2ACFE1D0E0BC2ED701C601F9
:1032B0000C2E04C0B695A795979587950A94D2F7DA
:1032C00080FD0EC0219788F7B12C8B2DDF91CF9117
:1032D0001F910F91FF90EF90DF90CF90BF900895D6
:1032E000B8018C2F0E949A05019761F3EECFCF931E
:1032F000DF93EC010E943519BE01DF91CF910C9450
:103300009A051F93CF93DF93EB019091620299236B
:1033100031F0CB01DF91CF911F910C947719882365
:1033200079F0CB010E943519182F682FCE010E9429
:10333000DE18BE01812FDF91CF911F910C949A0569
:10334000CB010E940C19182FF4CF682F80915001E7
:10335000909151010C945F1B682F809150019091C6
:1033600051010C94611B80915001909151010C947A
:10337000631B8091CB0285958595859508958091F5
:10338000CB02877008959091CB02977081E009F489
:1033900080E008958091D70208959091D702892BFB
:1033A0008093D702089580959091D70298239093A7
:1033B000D70208951092D70208959091D602892BD2
:1033C0008093D602089580959091D6029823909389
:1033D000D60208951092D60208951092D50208954B
:1033E0008091CC02089508950C94F3199091CC0229
:1033F000981721F08093CC020C94F41908958091D1
:10340000CC02882329F01092CC0280E00C94F419AD
:103410000895E0915001F09151018091D70280838D
:10342000E0915001F091510180819091D602892B59
:103430008083E0915001F091510180819091D502FB
:10344000892B80839091CC02992381F0E0915001E7
:10345000F09151018081892B80838091500190915E
:1034600051010E94171B81110E94FF198091500188
:10347000909151010C94C51008950C943C1A98E059
:10348000899F90011124622B6093CB020E94421805
:103490008091CB028595859585950C943D1A109267
:1034A000CB0280E00C943D1A9091CB028095892349
:1034B0008093CB02282F277071F4282F082E000C40
:1034C000330B9217130639F08595859585950E94E3
:1034D00063180C944F1A089590E080E00E94DC2558
:1034E00021E08C3E9E4F09F020E0822F089582E07B
:1034F00090E00C94D42583E090E00C94D425CF93F5
:1035000084E090E00E94D425C82F81E290E00E94E0
:10351000D425982F8C2FCF910895CF93C92F682F42
:1035200084E090E00E94E2256C2F81E290E0CF9150
:103530000C94E225AB01BC018FE090E00C94F425E3
:10354000AB01BC0183E190E00C94F42560E070E0F5
:10355000CB010C94A01A60E070E0CB010E949A1A93
:103560000C94A61A6CEE7EEF90E080E00E9400269C
:1035700060E082E090E00E94E22560E083E090E07D
:103580000E94E2251092C7021092C8021092C9024E
:103590001092CA0260E084E090E00E94E22560E0C0
:1035A00081E290E00E94E22560E085E090E00E94E8
:1035B000E22560E086E090E00E94E2256FEF87E080
:1035C00090E00E94E22540E050E0BA0188E090E0FF
:1035D0000E94F42560E08DE090E00E94E22540E04A
:1035E00050E0BA0188E190E00E94F42560E087E1B4
:1035F00090E00E94E22540E050E0BA018CE190E0CA
:103600000E94F42560E080E290E00E94E22540E024
:1036100050E0BA0188E190E00E94F4250C94AB1AC6
:103620000C94B21A682F8EE090E00C94E2259C0175
:103630002E5F3F4FAC01485F5F4F80E02417350796
:1036400009F40895F90191919F019923B9F38F5FCE
:10365000F5CF662349F0FC01329608962191261792
:1036600029F0E817F907D1F780E0089581E008957F
:103670009C01FC0132969FEF80E04191461751F08A
:103680009F3F19F4411101C0982F8F5F8630A9F731
:103690009F3F09F40895290F311D97FD3A95F901CF
:1036A00062830895FC01329608962191261303C087
:1036B000DF0111971C92E817F907B9F708950C94E8
:1036C000381B0C94521B029626E0FC0111922A959D
:1036D000E9F70895089508950C946B1B0E946C1BE4
:1036E00080912205843049F11092D90288E190E05E
:1036F00020E40FB6F894A895809360000FBE209345
:10370000600080E00E947E050E946C1B83B7817F71
:10371000846083BF83B7816083BF7894889583B7C3
:103720008E7F83BF0FB6F894A89580916000886162
:1037300080936000109260000FBE08950895CF93AB
:103740000E946A1B0E94F7070E949E1BC0E08C2FFC
:103750000E946607811105C0CF5FCA30C1F7CF91C3
:10376000089581E0FCCF08950C94B31B0E94D214FD
:103770000E94B9100E947E050C94B41B1F921FB6C4
:103780001F9211248F939F93AF93BF938091D9027F
:10379000811113C08091180590911905A0911A0507
:1037A000B0911B054196A11DB11D80931805909302
:1037B0001905A0931A05B0931B05BF91AF919F9176
:1037C0008F911F901FBE1F90189582E084BD93E0DB
:1037D00095BD9AEF97BD80936E0008952FB7F8942A
:1037E0008091180590911905A0911A05B0911B05BB
:1037F0002FBF08952FB7F89460911805709119059F
:1038000080911A0590911B052FBF08959C014FB719
:10381000F8948091180590911905A0911A05B0911E
:103820001B054FBF821B930B089578941F921FB600
:103830001F9211248F939F93AF93BF93809118058C
:1038400090911905A0911A05B0911B050196A11D33
:10385000B11D8093180590931905A0931A05B09394
:103860001B05BF91AF919F918F911F901FBE1F901D
:10387000189587E797E7909301088093000888E1FF
:103880009AE00FB6F894A895809360000FBE9093CD
:103890006000FFCF0E946C1A811102C00E94101BB1
:1038A0000E94771A8093D8020E947F1A90931D0578
:1038B00080931C050E947B1A682F70E090E080E0E6
:1038C0000E94E0176091C3027091C4028091C5020A
:1038D0009091C6020C941A188091E20208950895FE
:1038E000CF93DF9300D00F92CDB7DEB79091220532
:1038F000943019F589837B836A8382E08093E900A1
:103900008FEF9091E800815095FD06C095ED9A9556
:10391000F1F700008111F5CF8091E80085FF0DC01F
:1039200050E040E063E070E0CE0101960E94611E2D
:103930008091E8008E778093E8000F900F900F90B1
:10394000DF91CF910895BC0184E00C94701CBC0100
:1039500083E00C94701CCF93DF93EC0181E08093A3
:10396000E9008FEF9091E800815095FD06C095ED3C
:103970009A95F1F700008111F5CF8091E80085FF5D
:1039800014C050E040E068E070E0CE010E94611E8B
:103990008091E8008E778093E80088E0FE01AAED30
:1039A000B2E001900D928A95E1F7DF91CF910895F1
:1039B00080912105811109C00E94F11F0E944E20B3
:1039C0008091E20084608093E200089510922105C6
:1039D0000895089508950C94B61B42E061EC81E0CF
:1039E0000E946D1F42E261EC82E00C946D1F809199
:1039F0002405833009F45FC030F48130C1F1823096
:103A000009F49BC008958A3009F487C08B3009F40B
:103A10006DC0893009F04EC080912305813209F0D4
:103A200049C08091270590912805029708F042C06F
:103A30008091E800877F8093E8008091E80082FF12
:103A400035C09091F3008091F200029729F48091A3
:103A5000F1008B7F813021F48091F1008093E202AC
:103A60008091E8008B778093E8000C94A11F8091EF
:103A70002305813AF9F48091E800877F8093E8007C
:103A80008091270590912805892B61F468E08AEDE3
:103A900092E070E00E94B01E8091E8008B778093E6
:103AA000E800089560E090E080E0F3CF8091220587
:103AB0008111C3CF089580912305813AD9F7809170
:103AC000270590912805892BA9F78091E800877F29
:103AD0008093E8008091E80080FFFCCF80915C013A
:103AE0008093F1008091E8008E77BDCF809123050F
:103AF000813201F78091270590912805892BD1F615
:103B00008091E800877F8093E8000E94A11F809148
:103B1000250580935C010C94D21480912305813299
:103B200049F68091E800877F8093E8000E94A11FFA
:103B3000809126058093E302089580912305813AC0
:103B400009F0B8CF8091E800877F8093E8008091EA
:103B5000E80080FFFCCF8091E302C2CF84B7877F6B
:103B600084BF0FB6F894A895809160008861809317
:103B70006000109260000FBE80E890E00FB6F894ED
:103B800080936100909361000FBE0E940A110E9411
:103B9000F11F0E944E208091E20084608093E20039
:103BA00078940E94D7220E94141182E591E00E942D
:103BB000B41080912205853039F00E941F110E94B7
:103BC00012110E941311F5CF0E946E1B80912005E7
:103BD000882379F30E949F1B882359F30E944B1E70
:103BE000E8CF0C94F31D292F33272330310519F129
:103BF00068F42130310509F444C02230310509F45C
:103C000045C090E080E030E020E025C02132310561
:103C100049F122323105A9F780E490E02DE138E046
:103C200061157105C1F082E390E02BEE37E0613061
:103C3000710589F0E6CF99278130910581F00097D1
:103C400029F00297F1F6E8E7F7E002C0EAE9F7E0C9
:103C5000849190E09F01FA01318320830895E8E880
:103C6000F7E0F6CF89E090E020EB37E061157105D1
:103C700091F389E090E029EC37E06130710559F368
:103C8000C0CF82E190E029ED37E0E5CF8BE390E013
:103C90002EE937E0E0CF80E189BD82E189BD09B43A
:103CA00000FEFDCF8091D8008F7D8093D800809159
:103CB000E00082608093E0008091E00081FDFCCF15
:103CC0000895AF92BF92CF92DF92FF920F931F930E
:103CD000CF93DF936C01EB018A010E94C01FF82E85
:103CE000811123C00115110539F0F80180819181FE
:103CF000C81BD90BC80ED91EB12CA12C2097A9F036
:103D00008091E80085FD22C08091E8008E77809345
:103D1000E80001151105A1F0F80180819181A80E3C
:103D2000B91EB182A08285E0F82E8F2DDF91CF9150
:103D30001F910F91FF90DF90CF90BF90AF900895AB
:103D40000E94C01F8823D1F2F82EEFCFF601819197
:103D50006F018093F1002197FFEFAF1ABF0ACECF1A
:103D6000FC018091290590912A0586179707A0F0FC
:103D70006115710529F49091E8009E779093E80011
:103D800090E06115710551F4911108C08091E8002F
:103D900082FF34C080E00895BC01F2CF80912205FB
:103DA0008823C1F18530C1F18091E80083FD30C0E6
:103DB0008091E80082FDEACF8091E80080FFE1CFAA
:103DC0008091F3002091F200382F6115710519F0F0
:103DD0002830310558F091E02830310509F090E0A5
:103DE0002091E8002E772093E800CBCF819180933B
:103DF000F100615071092F5F3F4FE7CF809122059D
:103E0000882341F0853041F08091E80083FFBECFE8
:103E100081E0089582E0089583E00895FC01809197
:103E2000290590912A0586179707A0F0611571055D
:103E300029F48091E8008E778093E80090E0611586
:103E4000710551F4911108C08091E80082FF35C0DE
:103E500080E00895BC01F2CF809122058823C9F14A
:103E60008530C9F18091E80083FD31C08091E80080
:103E700082FDEACF8091E80080FFE1CF8091F300DE
:103E80002091F200382F6115710519F028303105A5
:103E900058F091E02830310509F090E08091E80079
:103EA0008E778093E800CBCF84918093F100319698
:103EB000615071092F5F3F4FE6CF80912205882323
:103EC00041F0853041F08091E80083FFBDCF81E073
:103ED000089582E0089583E00895982F973028F0A0
:103EE0008F708093E90081E008959093E900242F7A
:103EF000762F50E0981731F07091EC002091ED0092
:103F00005091F00021FD02C09F5FE8CF3091EB009F
:103F10003E7F3093EB003091ED003D7F3093ED001C
:103F20003091EB0031603093EB007093EC00209304
:103F3000ED005093F0002091EE0027FDE5CF80E0EA
:103F400008958091230587FF13C08091E80082FFC8
:103F500006C08091E8008B778093E80004C08091D0
:103F600022058111F2CF0895809122058823D9F38B
:103F70008091E80080FFF8CF8091E8008E77ECCF49
:103F80002091E4003091E50095E6A9012091EC0034
:103F9000822F817020FF06C08091E80080FF06C05C
:103FA00080E008952091E80022FD1AC0809122054A
:103FB000882389F0853089F08091EB0085FD0FC062
:103FC0002091E4003091E50042175307F9F2915037
:103FD000E1F684E0089582E0089583E0089581E0A9
:103FE00008950E945F200E946720E0EEF0E080814B
:103FF00081608083E8EDF0E080818F77808319BC59
:10400000A7EDB0E08C918E7F8C9380818F7E808332
:104010001092210508950F931F93CF93DF930E9471
:104020005F200E946720C8EDD0E088818F77888369
:1040300088818068888388818F7D888319BC1092ED
:10404000220510921E051092200510921F0500EE09
:1040500010E0F80180818B7F808388818160888374
:1040600042E060E080E00E946D1FE1EEF0E08081C0
:104070008E7F8083E2EEF0E08081816080838081AA
:1040800088608083F80180818E7F80838881806151
:104090008883DF91CF911F910F910895E8EDF0E0B3
:1040A00080818F7E8083E7EDF0E080818160808376
:1040B00084E082BF81E0809321050C940B20E8ED21
:1040C000F0E080818E7F80831092E200089510924C
:1040D000DA001092E10008951F920F920FB60F922E
:1040E00011242F933F934F935F936F937F938F93FD
:1040F0009F93AF93BF93EF93FF938091E10082FF73
:104100000BC08091E20082FF07C08091E1008B7FAD
:104110008093E1000E94D6228091DA0080FF19C0CE
:104120008091D80080FF15C08091DA008E7F809347
:10413000DA008091D90080FF96C080E189BD82E1DC
:1041400089BD09B400FEFDCF81E0809322050E9465
:10415000D81C8091E10080FF19C08091E20080FFAF
:1041600015C08091E2008E7F8093E2008091E20092
:1041700080618093E2008091D80080628093D800B3
:1041800019BC85E0809322050E94EA1C8091E10021
:1041900084FF2BC08091E20084FF27C080E189BDAD
:1041A00082E189BD89B5982F917080FFFBCF809106
:1041B000D8008F7D8093D8008091E1008F7E80931E
:1041C000E1008091E2008F7E8093E2008091E20026
:1041D00081608093E20080911E05882309F449C024
:1041E00084E0809322050E94EB1C8091E10083FF14
:1041F00029C08091E20083FF25C08091E100877F84
:104200008093E10082E08093220510921E05809148
:10421000E1008E7F8093E1008091E2008E7F8093A9
:10422000E2008091E20080618093E20042E060E081
:1042300080E00E946D1F8091F00088608093F00004
:104240000E94E91CFF91EF91BF91AF919F918F91D7
:104250007F916F915F914F913F912F910F900FBE82
:104260000F901F90189519BC109222050E94E61C11
:1042700070CF8091E30087FD93E090932205B3CF48
:104280001F920F920FB60F9211242F933F934F93CB
:104290005F936F937F938F939F93AF93BF93CF93CE
:1042A000DF93EF93FF93D091E900DF708091EC00F2
:1042B000C82FC17080FDC0E81092E9008091F00025
:1042C000877F8093F00078940E9484211092E90007
:1042D0008091F00088608093F000CD2BCF70C09368
:1042E000E900FF91EF91DF91CF91BF91AF919F9145
:1042F0008F917F916F915F914F913F912F910F908F
:104300000FBE0F901F9018951F93CF93DF93CDB7DB
:10431000DEB7AA970FB6F894DEBF0FBECDBF83E21B
:1043200095E02091F100FC012193CF01F5E08B3263
:104330009F07B9F70E94F71C8091E80083FF1EC118
:1043400080912305909124059A3008F017C1E92F38
:10435000F0E0E759F94D0C941223803899F0823837
:1043600009F00CC1809127058F70873008F006C1D5
:104370008093E9008091EB0085FB882780F91092FB
:10438000E90006C080911F0590912005911182607F
:104390009091E800977F9093E8008093F10010924D
:1043A000F1008091E8008E77E5C0882309F4D3C03E
:1043B000823009F0E3C0809125058111D6C080913B
:1043C00027058F702FEF280F263008F0D7C0809375
:1043D000E9002091EB0020FFC8C0933031F48091B8
:1043E000EB0080628093EB00C0C09091EB00906185
:1043F0009093EB0021E030E001C0220F8A95EAF7AC
:104400002093EA001092EA008091EB008860EACFE6
:104410008111B4C0109125051F778091E300807849
:10442000812B8093E3008091E800877F8093E800F0
:104430000E94A11F8091E80080FFFCCF8091E300E3
:1044400080688093E30082E0111183E0809322056D
:1044500095C08058823008F091C0809125059091D8
:1044600026058C3D23E09207A1F583E08A838AE24A
:1044700089834FB7F894DE01139620E03EE051E2C5
:10448000E32FF0E050935700E49120FF03C0E29542
:10449000EF703F5FEF708E2F90E0EA30C0F0C7966C
:1044A0008D939D932F5F243159F74FBF8091E80082
:1044B000877F8093E8006AE270E0CE0101960E9457
:1044C000B01E8091E8008B778093E80057C0C096BB
:1044D000E7CF6091270570912805AE014F5F5F4FD0
:1044E0000E94F11DBC01892B09F448C09091E8009D
:1044F000977F9093E80089819A810E940E1FE1CFF7
:104500008038E1F58091E800877F8093E800809112
:104510001E058093F10045CF811130C09091250593
:10452000923060F58091E800877F8093E800909357
:104530001E050E94A11F80911E05882311F084E0B2
:1045400005C08091E30087FDFACF81E080932205CA
:104550000E94ED1C13C080912505813079F481E023
:10456000933009F080E0809320051092E90080915B
:10457000E800877F8093E8000E94A11F8091E800F7
:1045800083FF0AC08091E800877F8093E8008091D4
:10459000EB0080628093EB00AA960FB6F894DEBF22
:1045A0000FBECDBFDF91CF911F9108950895CF9396
:1045B000809122058823A1F0C091E900CF709091ED
:1045C000EC00892F817090FD80E8C82B1092E900E3
:1045D0008091E80083FD0E948421CF70C093E900A0
:1045E000CF910895991B79E004C0991F961708F0A0
:1045F000961B881F7A95C9F780950895AA1BBB1B47
:1046000051E107C0AA1FBB1FA617B70710F0A61BD2
:10461000B70B881F991F5A95A9F780959095BC01F3
:10462000CD010895EE0FFF1F0590F491E02D099440
:10463000FB01DC0102C005900D9241505040D8F7BB
:104640000895FB01DC0104C08D910190801921F4D3
:1046500041505040C8F7881B990B0895FB01DC01BD
:1046600001900D920020E1F70895AEE0B0E0EBE399
:10467000F3E20C9424260D891E898F89988D26E0FB
:104680002C831A83098397FF02C080E090E801978A
:104690009E838D83AE01455E5F4F698D7A8DCE011D
:1046A00001960E9465234D815E8157FD0AC02F81CE
:1046B0003885421753070CF49A01020F131FF801B3
:1046C00010822E96E4E00C944026ABE0B0E0EBE6DE
:1046D000F3E20C9416267C013B018A01FC0117824F
:1046E0001682838181FFB9C19AE0292ECE010196FD
:1046F0005C01F7019381F30193FD859193FF819113
:104700003F01882309F446C1853239F493FD859130
:1047100093FF81913F01853229F4B70190E00E9417
:104720004625E7CF912C412C512CFFE1F51538F0AF
:104730008B3209F188F4803201F1833221F157FC88
:104740003AC020ED280F2A3040F556FE1FC0929C3B
:10475000200D1124922E06C08D3291F0803379F70E
:10476000689450F8F30193FD859193FF81913F0187
:104770008111DBCF20C0689451F8689452F8F2CFD1
:10478000689453F8EFCF689454F8ECCF429C200D16
:104790001124422E689455F8E5CF8E3229F456FC48
:1047A000F9C0689456F8DECF8C3619F4689457F83F
:1047B000D9CF8836B9F2982F9F7D95549330C0F0A9
:1047C0008336A1F18337C1F1833509F05BC0F8016D
:1047D000C190D1908F01692D70E056FC02C06FEF3F
:1047E0007FEFC6010E9430254C01689457F80AC03B
:1047F0000C5F1F4F2FE3298388248394912C65013C
:10480000E89457F853FC04C04814190409F018F54B
:10481000342C8114910431F5332009F46ACFB701A7
:1048200080E290E00E9446253A94F6CFF80180811C
:1048300089830E5F1F4FE0CFF801C190D1908F01A7
:10484000692D70E056FC02C06FEF7FEFC6010E9439
:104850003B254C01D5CFB70180E290E00E94462570
:104860004A94D2CFF60157FC859157FE81916F0192
:10487000B70190E00E94462531103A94F1E08F1A7A
:104880009108C7CF843619F0893609F074C0F80151
:1048900057FE6AC061917191819191918F01252D8F
:1048A0002F76D22E97FF09C09095809570956195CF
:1048B0007F4F8F4F9F4F6894D7F82AE030E0A501D3
:1048C0000E947625C82ECA188C2C5D2CD6FE0CC0F2
:1048D000E89450F8C91440F4D4FE05C0D2FC03C0DB
:1048E000FD2DFE7E5F2E892C54FE8FC0FE01EC0D47
:1048F000F11D8081803309F081C0252D297E522E43
:10490000852D8870382E53FC8FC050FE89C09C2C9A
:10491000841418F44C0C942C981854FE8BC0B701D6
:1049200080E390E00E94462552FE09C088E790E0AF
:1049300051FE02C088E590E0B7010E944625C914E7
:1049400008F484C0CA94D12C9FEFC91AD90ACA0CA2
:10495000DB1CF60182916F01B70190E00E944625B1
:10496000AC14BD04B1F758CF61917191072E000CC2
:10497000880B990B93CFD52CE894D4F82AE030E03B
:10498000853739F1952D997FD92E8F3601F148F46D
:104990008835A9F0F701868197812B96E2E10C9486
:1049A0003226803749F08837A9F7D4FE02C06894D0
:1049B000D2F820E130E00DC06894D4F8F6CF54FE70
:1049C00003C0E92FE660DE2E20E132E002C028E0DD
:1049D00030E0F801D7FE0DC0619171918191919104
:1049E0008F01A5010E947625C82ECA18E894D7F831
:1049F0006BCF6191719190E080E0F2CF52FC02C0E8
:104A000083947ECF839483947BCF852D867809F41D
:104A100077CFF6CFB70180E290E00E9446258394DD
:104A20008414C0F3312C79CF342C3818841408F452
:104A300074CFF8CF852D867809F481CF8BE251FEB3
:104A400080E257FC8DE2B70190E077CFB70180E3B9
:104A500090E00E9446259A9472CF8FEF9FEF9DCFF2
:104A6000FC010590615070400110D8F78095909539
:104A70008E0F9F1F0895FC0161507040019001103E
:104A8000D8F7809590958E0F9F1F08950F931F93D1
:104A9000CF93DF93182F092FEB018B8181FD09C084
:104AA0001FEF0FEF812F902FDF91CF911F910F916B
:104AB000089582FF14C02E813F818C819D8128172B
:104AC00039073CF4E881F981CF0101969983888305
:104AD00010838E819F8101969F838E83E3CFE8852B
:104AE000F985812F0995892BA1F3DACFFA01AA273D
:104AF000283051F1203181F1E8946F936E7F6E5F21
:104B00007F4F8F4F9F4FAF4FB1E03ED0B4E03CD0CE
:104B1000670F781F891F9A1FA11D680F791F8A1FB1
:104B2000911DA11D6A0F711D811D911DA11D20D018
:104B300009F468943F912AE0269F11243019305DD2
:104B40003193DEF6CF010895462F4770405D4193C3
:104B5000B3E00FD0C9F7F6CF462F4F70405D4A3310
:104B600018F0495D31FD4052419302D0A9F7EACFD8
:104B7000B4E0A6959795879577956795BA95C9F707
:104B800000976105710508959B01AC010A2E0694FA
:104B90005795479537952795BA95C9F7620F731FB3
:104BA000841F951FA01D0895F999FECF92BD81BD68
:104BB000F89A992780B50895A8E1B0E042E050E066
:104BC0000C940826262FF999FECF92BD81BDF89A44
:104BD000019700B4021639F01FBA20BD0FB6F89441
:104BE000FA9AF99A0FBE08950396272F0E94E3259B
:104BF0000E94E225252F0E94E325242F0C94E32513
:104C00000196272F0E94E3250C94E225DC01CB01BD
:104C1000FC01F999FECF06C0F2BDE1BDF89A3196CC
:104C200000B40D9241505040B8F708952F923F9232
:104C30004F925F926F927F928F929F92AF92BF92AC
:104C4000CF92DF92EF92FF920F931F93CF93DF9358
:104C5000CDB7DEB7CA1BDB0B0FB6F894DEBF0FBEB5
:104C6000CDBF09942A88398848885F846E847D8402
:104C70008C849B84AA84B984C884DF80EE80FD8004
:104C80000C811B81AA81B981CE0FD11D0FB6F8947A
:104C9000DEBF0FBECDBFED010895F894FFCFBA126D
:104CA000BA12121312136413E712E712E7128013F9
:104CB0000C141B141B14E114E114EA14EA14EC1490
:104CC000EA14EA14EA14E114E114F114EA14EA14FF
:104CD000F114AD21D521BE22D521BE2208222922E0
:064CE000BE2280228C229E
:104CE600808182838485868788898A8B8C8D8E8F46
:104CF6009091929394A0A1A2A3A4A5A6A7A8A9AABD
:104D0600ABACADAEAFB0B1B2B3B4C0C1C2C3C4C533
:104D1600C6C7C8C9CACBCCCDCECFD0D1D2D3D4008A
:104D26000117020018020518020021007F22000365
:104D3600CD026C1CAB1C6F1CA71CA31C014C61791B
:104D460065723A2044656661756C74004C617965DC
:104D5600723A205261697365004C617965723A2036
:104D66005375706572004C617965723A20556E64B0
:104D760065662D256C6400E200E900EA00B500B620
:104D860000B700CD008301CC008A01920194012175
:104D960002230224022502260227022A02B300B4B5
:104DA600006F007000818283F6F7313332366697E2
:104DB600C63435000000000000081018181008005E
:104DC600E200E900EA00B500B600B700CD008301B5
:104DD600CC008A01920194012102230224022502B9
:104DE600260227022A02B300B4006F0070008182F7
:024DF600830038
:00000001FF
